:020000040800F2
:10000000C80900204501000865450008733500084F
:100010008944000877140008BD6200080000000051
:10002000000000000000000000000000F94D000882
:10003000FD16000800000000354D0008FD5A0008BC
:100040005F0100085F0100085F0100085F01000810
:100050005F0100085F0100085F0100085F01000800
:100060005F0100085F0100085F0100085F010008F0
:100070005F0100085F0100085F0100085F010008E0
:100080005F0100087D1600085F0100085F0100089D
:100090005F0100085F0100085F0100085F010008C0
:1000A0005F0100085F0100085F0100085F010008B0
:1000B000C55B00085F0100085F0100085F010008E0
:1000C0005F0100085F0100085F0100085F01000890
:1000D0005F0100085F010008AD6200085F010008D1
:1000E000FF1600085F0100085F0100085F010008BB
:1000F0005F0100085F0100085F0100085F01000860
:100100005F0100085F0100085F0100085F0100084F
:100110005F0100085F0100085F0100085F0100083F
:100120005F0100085F0100085F0100085F0100082F
:10013000DFF80CD000F0B6FE00480047B1750008AB
:10014000C80900200648804706480047FEE7FEE74A
:10015000FEE7FEE7FEE7FEE7FEE7FEE7FEE7FEE777
:100160006D5B000831010008202A04DB203A21FAE7
:1001700002F00021704721FA02F3D040C2F12002C0
:100180009140084319467047004870473C84000876
:1001900010B50446FFF7F8FF0068005D00F00100AD
:1001A00010BD40EA01039B0703D009E008C9121FF4
:1001B00008C0042AFAD203E011F8013B00F8013B21
:1001C000521EF9D27047D2B201E000F8012B491E4D
:1001D000FBD270470022F6E710B513460A460446E4
:1001E0001946FFF7F0FF204610BD10B5044604E0A5
:1001F0000B7800F8013B03B1491C521EF8D220468F
:1002000010BD00000FB400B58DB010A909900B907F
:1002100000914FF0FF300A9000200C9005480690A6
:10022000054807906A4609A80F9900F0A3FC0DB095
:100230005DF814FB910B0008AF0B00082DE9FF4F90
:10024000087883B09946FF2805D0491C2D2804D092
:100250000024002008E000200BE00124F9E700EB77
:10026000800003EB4000491C0B78FF2BF7D104B151
:10027000404200230293147819461D462D2C01D0CC
:100280002B2C04D1521C2D2C13D000240294AA46EE
:100290001478FF2C0FD00A25A3FB057801FB0581FC
:1002A0004FF0000C03FB0C11521CE3194AEB010147
:1002B000EEE70124EAE7814453EA010002D019F590
:1002C000C87F06DA03980021C0E9001107B0BDE835
:1002D000F08F0025AE4E2F46DFF8B882184600F0AA
:1002E000A4FDCDE90001B9F1000002DAC9F1000472
:1002F00000E004460023A74A1AEB030B42EB045A22
:1003000012E0E00707D02A4633463846414600F05F
:10031000B4FA074688462A4633461046194600F086
:10032000ACFA05460E466410002CEAD1DDE9000166
:10033000B9F1000F5A46534606DA00F007FD3A4677
:10034000434600F003FD05E000F097FA3A464346C5
:1003500000F093FA029A0AB181F00041039AC2E9CF
:100360000001B3E72DE9FF4F1F468DB0D7E90146E5
:100370004FF0FF382E2045464FF000090B90B96929
:100380006D1C0E988847396A824688470028F6D146
:10039000BAF1FF3F0AD024F4D064002E11DDBAF187
:1003A0002B0F08D0BAF12D0F0BD102E0404611B04F
:1003B0008DE744F48064B9696D1C0E9888478246C5
:1003C000761E6946600501D52D2000E02B208DF8B2
:1003D000000001F1010B0DF1200809E0B9696D1C65
:1003E0000E98884782460F9844F40074761E056084
:1003F000002E02DDBAF1300FF0D00B998A453ED1C4
:1004000044F0800406E00F99681CA9F1010944F446
:1004100000740860B9696D1C761E0E988847824684
:100420003028F0D02BE00B998A4505D1200603D463
:1004300044F08004761E18E0504606F005F908B333
:100440000DF11301761E44F400748B4508D2AAF115
:1004500030000BF8010B200607D5A9F1010003E0DD
:10046000200602D409F101008146A00502D50F99AA
:10047000681C0860B9696D1C0E9888478246002E7A
:10048000D1DC53E0002E51DDBAF1650F02D0BAF194
:10049000450F4BD1A00549D5B9696D1C24F44074B2
:1004A000761E0E9888478246002E0CDD2B2804D03D
:1004B000BAF12D0F07D144F48074B9696D1C0E9800
:1004C00088478246761EE00501D52D2100E02B21CC
:1004D00008F8011BCDF82C8021E00DF12901761ED2
:1004E00044F4007488450CD2AAF1300010F0FF00EB
:1004F00088F8000002D10B99884509D908F1010854
:1005000006E0E00501D5244801E042F20F70814683
:10051000B9696D1C0E98884782460F980560002EB9
:1005200004DD504606F090F80028D6D1F9690E98FF
:100530008847FF208BF8000088F800000020069014
:1005400007904B466A4608A906A8FFF777FEA00564
:1005500002D46FF001002AE714F0240F0AD0E0075C
:1005600014D1DDE906123868031D3B600068C0E95C
:1005700000120BE0DDE9060100F05EFA0146E0073B
:1005800004D13868021D3A600068016028460EE711
:10059000000014400000F03FF1D8FFFFF0B480EA03
:1005A0000102D40F4200B2EB410F02D202460846CC
:1005B00011464A0042D0C30DDDB2C1F3C752AD1A95
:1005C000202D35DAC1F3160141F4000204B1524284
:1005D000C5F1200602FA06F12A411044B3EBD05FC0
:1005E00023D0C4B1012DA0EBC35009DCF0BC4FF007
:1005F000004202EAC352DBB200F5000000F0F1BA9B
:10060000400000F1807000EBC350A0F1807040EA20
:10061000D170490009E0490841EAC071A0EBC3501C
:1006200000F50000400800EBC350F0BC00F0D0BA69
:100630006142012202EB4101001BF6E7F0BC70476A
:1006400081F00041AAE780F00040A7E780EA0102BC
:1006500010B502F00043400022D04A001FD0010E26
:1006600001EB1261C0F35600C2F3560240F40000E1
:1006700042F40002A0FB022000047F39140400D0E1
:10068000401C50EA124001D44000491EC2B20C0680
:1006900004EBD010401C4008802A02D003E0002068
:1006A00010BD20F00100002900DA0020184310BD21
:1006B00030B480EA010202F0004530F0004221F03F
:1006C000004013D090B1C30DD40DC2F31601C0F396
:1006D0001600E41A41F4000140F400027D34914216
:1006E00001D3641C00E04900002C02DA30BC002079
:1006F00070474FF400000023914201D3891A03434D
:1007000040084FEA4101F7D151B1914202D14FF077
:10071000004105E002D24FF0010101E06FF001015C
:1007200003EBC450284430BC00F052BA2DE9FE4F10
:10073000804681EA0300C00F0C46009021F0004182
:1007400023F00045B8EB0200A94105D240462146FE
:1007500090461C460B46024623F00040104347D00B
:10076000270DC7F30A00C3F30A510290401A019003
:1007700040286BDAC3F3130040F4801B00989246C4
:1007800020B10023D2EB030A63EB0B0B019859460F
:10079000C0F14002504600F0C6F906460D465046EC
:1007A0005946019A00F0CEF910EB0800614100248F
:1007B00087EA115284EAE7731A4340D0009A62B381
:1007C000019A012A4FEA075215DC001B61EB020176
:1007D0004FF0004202EA0752CDE90042001C41F509
:1007E000801132462B4600F063FA03B0BDE8F08F6B
:1007F00040462146F9E7001B61EB0201001C41F570
:10080000801300185B412018A2F5001747EB030185
:1008100040EAD570B6196D4111E06D084FEA360611
:1008200045EAC0754FEA0752001B61EB0201001C4C
:1008300041F5801149084FEA300000195141324614
:100840002B4603B0BDE8F04F00F023BA0098012218
:1008500040000023D0EB020263EBE07300982146D6
:100860004FEAE074B8EB000061EB0401E9E783F0C4
:1008700000435BE781F0004158E72DE9FE4F81EA34
:10088000030404F0004421F0004100944FF0000BF9
:1008900023F0004350EA01045ED052EA03045BD027
:1008A000C3F30A54C1F30A552C44A4F2F33401945F
:1008B000A0FB0254C1F3130141F48011C3F31303ED
:1008C00043F4801301FB024400FB034E840A970AA1
:1008D00044EA815447EA8357A4FB076802958D0ACE
:1008E00005FB07854FEA932C04FB0C542705029D5A
:1008F0004FEA065847EA1637B5EB08056EEB070CCA
:10090000870E920E47EA811742EA8312A7FB020183
:10091000B6EB0B0164EB00042B0D43EA0C335E18BD
:1009200044EB1C50DA465146E7FB0201C5F31304C1
:100930004FEA0B3343EA14534FEA0432019C43EA73
:100940000603A4F10C040294009CCDE900B400F06D
:10095000AFF903B0BDE8F08F00200146F9E7C10F01
:1009600080EAE0700844CA079623002100F039B9F4
:1009700096230022114600F034B900F0004220F026
:100980000040C10DC0F3160040F400007F2901DAD9
:1009900000207047962903DCC1F19601C84001E0B0
:1009A00096398840002AF4D04042704720F0004039
:1009B000C10DC0F3160040F400007F2901DA0020C9
:1009C0007047962903DCC1F19601C84070479639FB
:1009D0008840704770B5C1F30A5201F00045002409
:1009E000C1F3130140F2FF3341F480119A4201DA5E
:1009F000002070BD40F233439A42A2F2334203DC3E
:100A00005242FFF7B1FB00E090402C43F1D040424E
:100A100070BD00F0004230F000400AD0C10D01F579
:100A20006071C0F3160042EA0151C2084007114349
:100A3000704700200146704701F0004330B421F0B8
:100A4000004150EA010206D00A0DA2F56072C1F31E
:100A50001301002A02DC30BC00207047440F44EA36
:100A6000C104C100E01830BC00EBC25000F0B0B8C7
:100A7000002801DBC0F10040002901DBC1F1004189
:100A800081427047002801DBC0F10040002901DBF2
:100A9000C1F100418842704730B50B460146002045
:100AA0002022012409E021FA02F59D4205D303FA30
:100AB00002F5491B04FA02F52844151EA2F10102B1
:100AC000F1DC30BD2DE9F05F0546002092469B46E3
:100AD00088460646814640241BE028464146474654
:100AE0002246FFF741FB53465A46C01A914110D3A4
:100AF00011461846224600F016F82D1A67EB010839
:100B00004F4622460120002100F00DF817EB0009A6
:100B10004E41201EA4F10104DFDC484631462A463E
:100B20004346BDE8F09F202A04DB203A00FA02F198
:100B3000002070479140C2F1200320FA03F31943CB
:100B400090407047202A06DBCB17203A41FA02F08A
:100B500043EAE07306E041FA02F3D040C2F120021A
:100B600091400843194670470268114413780160A8
:100B700018467047D160044951610449116200214F
:100B80001161114600F0A0B9690B0008910100083D
:100B9000426842B1016811F8013B23B1521EC0E91D
:100BA0000012184670470121C160881E70474268D4
:100BB0005AB1C368016843B983688B4205D0491EA6
:100BC000521CC0E90012002070474FF0FF30704700
:100BD0000029A8BF7047401C490008BF20F0010051
:100BE000704710B4B0FA80FC00FA0CF050EA01042F
:100BF00004BF10BC704749B1CCF1200421FA04F4C1
:100C000011FA0CF118BF012121430843A3EB0C0199
:100C1000CB1D4FEA00614FEA102042BF002010BCFC
:100C2000704700EBC35010440029A4BF10BC7047AC
:100C3000401C490008BF20F0010010BC7047420072
:100C400005D0C0F3C7525242914201DC00207047E8
:100C500000EBC150704710B541000CD0C0F3C75134
:100C6000962908DC7E2909DC06DB410204D000F06D
:100C7000004040F07E5010BD002010BDC1F1960430
:100C8000C4F1200100FA01F1E040FFF7A1FFA0400C
:100C900010BD10B5141E73F1000408DA401C41F1B8
:100CA000000192185B411A4301D120F0010010BDF0
:100CB0002DE9F04D92469B4611B1B1FA81F202E066
:100CC000B0FA80F220329046FFF72DFF04460F461F
:100CD00040EA0A0041EA0B0153465A46084313D042
:100CE000114653EA010019D0C8F140025046FFF7FF
:100CF0003BFA05460E46504659464246FFF713FF5B
:100D0000084305D0012004E020463946BDE8F08DB7
:100D10000020054346EAE0762C4337430A986305F2
:100D2000E40AA0EB08000022FD0A44EA47540A3016
:100D300002D500200146E9E7010510196941DDE906
:100D4000084500196941BDE8F04DA2E72DE9F04DD5
:100D500081EA030404F0004B21F0004514464FF0F3
:100D6000000A23F0004150EA050220D054EA0102B3
:100D70001DD0C5F30A570246C5F31303C1F3130090
:100D8000C1F30A5640F4801543F48013A7EB06081C
:100D9000101BD64608F2FD3873EB050002D308F1AC
:100DA000010801E092185B41B8F1000F03DA00205E
:100DB0000146BDE8F08D00204FF4801106468446C0
:100DC0000EE0171B73EB050705D3121B63EB05033E
:100DD00006434CEA010C49084FEA300092185B4187
:100DE00050EA0107EDD152EA030012D082EA040072
:100DF00083EA0501084305D0101BAB4106D201224E
:100E0000002306E000224FF0004302E06FF00102F1
:100E100053101AEB06004CEB085110EB0A0041EBA3
:100E20000B01BDE8F04DFFF734BF0EB540F2334281
:100E300002920022CDE900221346FFF739FF03B0EA
:100E400000BDC1F30A52C1F3130140F2FF3341F474
:100E500080119A4202DA00200146704740F2334383
:100E60009A42A2F2334202DC5242FFF77DB9FFF709
:100E70005ABE000030B5041E71F1000404DB4FF0CF
:100E80000044404264EB0101141E73F1000405DBD1
:100E90001C464FF00043524263EB0403994208BFE3
:100EA000904230BD064C074D06E0E06840F001037B
:100EB00094E8070098471034AC42F6D3FFF73CF9AA
:100EC00060840008808400082DE9F34F8BB04FF058
:100ED000000801F10C000C464FF0010B46460DF1E5
:100EE000080A01906269012101989047051E2DD0E2
:100EF000252D2CD0216A8847C0B162690121019853
:100F00009047216A88470028F7D1411E62690198FD
:100F1000904700E0761CA1690B988847216A8847B2
:100F20000028F7D1E1690B988847DBE7A1690B98A6
:100F300088470746A84201D1761CD3E7E1690B98A0
:100F400088477F1C02D1B8F1000F6FD046E100271F
:100F500062693D463946019890472A2804D1626962
:100F60000121019890470125DFF8849262690121EF
:100F700001989047A0F130010A290AD24F45E5DCDB
:100F800007EB870100EB4107303FDFD445F0100548
:100F9000ECE7E90601D46FF000476C280AD04C2832
:100FA00014D0682815D06A280DD074281CD07A284F
:100FB0001AD01DE062690121019890476C2802D087
:100FC00045F0040514E045F002050DE045F020056C
:100FD0000AE06269012101989047682802D045F033
:100FE000080505E045F40065626901210198904714
:100FF000C4E9015765283DD019DC58287AD00CDCAB
:10100000452837D004DC252826D0412831D131E0CD
:1010100046282FD047282CD12CE05B2877D0612898
:1010200028D063287CD0642823D15AE0D0E06F28F0
:1010300048D008DC66281DD067281BD0692821D03D
:101040006E2816D127E0702845D0732868D07528FF
:1010500047D078280DD14DE0A1690B988847054607
:1010600025283FF469AFE1690B9888476D1C3FF470
:101070006AAFB3E023466A466FF001000B99FFF7B1
:1010800071F99EE045F040006060A80723464FF0EC
:10109000000236D43EE0E8077FF447AF2068011D28
:1010A00021600068290501D506701BE7290701D5D5
:1010B000068017E7A90703D5F117C0E9006111E71A
:1010C00006600FE745F040006060A80723464FF038
:1010D000080216D41EE040F60E0125EA0100606009
:1010E00016E045F040006060A80723464FF00A0272
:1010F00007D40FE045F040006060A80708D52346FC
:1011000010226FF001000B99AFF3008059E007E067
:10111000234610226FF001000B99AFF3008050E0DE
:101120004FF000094F464B46632802D05B2806D09B
:1011300040E0E80601D40120A06001273AE062699E
:101140000121019890475E2805D14FF0010962699D
:10115000494601989047216939B900210A4653460A
:1011600043F82120491C0829FADBB0B3216969B989
:10117000C11700EBD16253110AEB830122F01F0269
:10118000821A01200B68904003430B6062690121C1
:10119000019890475D28E8D1B9F1000F09D00020EF
:1011A000514651F82020D24341F82020401C082805
:1011B000F7DB02AB224600976FF001000B99AFF30B
:1011C000008000280CDA401C08D1BBF1000F05D0CC
:1011D0004FF0FF300DB0BDE8F08FFFE74046F9E774
:1011E000E90701D108F1010806444FF0000B79E648
:1011F000CCCCCC0CF0B4002802DCF0BC0020704752
:10120000C0F3C751C0F3160040F40000CA0701D173
:101210004000491E3F2202EB6105002211464FF4B7
:10122000000626FA01F31344D418844201D8001BA7
:101230001A464000491C1729F3DD5100814202D2B1
:101240004FF0FF3100E0002102EBC550F0BCFFF78A
:10125000BFBC70B58C1810F8015B15F0070301D105
:1012600010F8013B2A1106D110F8012B03E010F809
:10127000016B01F8016B5B1EF9D12B0705D400232C
:10128000521E0DD401F8013BFAE710F8013BCB1ACE
:10129000921C03E013F8015B01F8015B521EF9D5C3
:1012A000A142D8D3002070BD0FB42DE9FC4782467F
:1012B0000C4694F800910DA801902046524690F8F3
:1012C00000311918AA230B7090F8013113B90123CA
:1012D0004B7002E090F801314B70AF238B70CA70F5
:1012E00090F800315B1D80F8003100BF5CE00C9885
:1012F00010F8011B0C9066292BD004DC63291DD04B
:10130000642950D10FE0682902D075294BD139E00A
:10131000019830F8041B019008B2009069462046FD
:1013200000F099F83FE00198006800900198001DD6
:1013300001906946204600F070F834E0019810F8FA
:10134000041B0190C8B200906946204600F05CF88A
:1013500029E00198C01D20F007000190D0E900713C
:10136000019A083201920022264B3846FFF785FA8F
:101370000546FFF72FFB00B200906946204600F0BB
:101380006AF810E0019802C8019001EBC10000EB7F
:1013900001104FF6FF7101EA800000906946204677
:1013A00000F059F800BF00BF0C98007800289ED1CB
:1013B00020464946002390F80021521F521AD5B208
:1013C0000A1D85540A4604E0855C1D44EBB2551C99
:1013D000EAB290F800519542F6D190F800516A1C9B
:1013E00080F80021435500BF0020019094F80001CF
:1013F000A0EB090000F0FF094846BDE8FC075DF8D6
:1014000014FB00000000594010B50B7890F8004123
:10141000621C80F80021035510BD10B5CB7890F800
:101420000041621C80F8002103558B7890F8004140
:10143000621C80F8002103554B7890F80041621C33
:1014400080F8002103550B7890F80041621C80F869
:101450000021035510BD10B54B7890F80041621C77
:1014600080F8002103550B7890F80041621C80F849
:101470000021035510BD00BFFEE7000038B593E022
:101480004BA20021084603F0A8F94EA2002101203A
:1014900003F0A3F950A20021022003F09EF953A209
:1014A0000021032003F099F902F0C4FD0446152C35
:1014B00000D17AE0204602F0FDFD312804D0322828
:1014C00024D0332860D140E003F08CF84CA20021F6
:1014D000084603F082F90021022003F065FA4CA0CF
:1014E00003F06AF94BA20021032003F076F9684665
:1014F00000F07CF948B1022003F08EF84AA20021E6
:10150000022003F06AF902F095FD4CE003F06AF85E
:1015100048A20021084603F060F90021022003F0F0
:1015200043FA48A003F048F93AA20021032003F04F
:1015300054F9684600F05AF930B13BA2002102206C
:1015400003F04BF902F076FD2DE003F04BF83EA2DC
:101550000021084603F041F90021022003F024FA9B
:101560003DA003F029F92BA20021032003F035F957
:10157000684600F03BF930B12BA20021022003F0B5
:101580002CF902F057FD0EE003F02CF833A20321F2
:10159000002003F022F934A20021032003F01DF9FA
:1015A00002F048FD00BF00BF6AE700BF38BD000081
:1015B000B2CBB5A53E3EB2CECAFDD0DEB8C4202027
:1015C00000000000312ED0DEB8C44B702020202057
:1015D0002020202000000000322ED0DEB8C44B694D
:1015E000202020202020202000000000332ED0DEEC
:1015F000B8C44B64202020202020202000000000C0
:10160000B2CECAFDD0DEB8C43E3E4B700000000032
:101610004B703D00456E74657220202020202020F4
:101620002044656C00000000D0DEB8C4B3C9B9A680
:1016300021000000B2CECAFDD0DEB8C43E3E4B69E8
:10164000000000004B693D00B2CECAFDD0DEB8C438
:101650003E3E4B64000000004B643D00CAE4C8EB12
:10166000B4EDCEF321000000C7EBB0B4C8CED2E297
:10167000BCFCBCCCD0F8A3A10000000010B502480F
:1016800000F0D2F910BD00000004002030B590F841
:1016900040500124AC40C56B6C60046863604468D2
:1016A000102C04D10468A2600468E16003E00468BF
:1016B000A1600468E26030BD10B50848006840F0E1
:1016C000807006490860002000F012F804480068A5
:1016D00040F001000249086010BD0000FCED00E090
:1016E000001000E00148406870470000001000E072
:1016F0000149486070470000001000E0704710B5D5
:101700004FF4005000F004FC10BD704770B5054662
:101710000C46164600200F490860032000F01CF814
:10172000C4F3074000F036F8C4F3072000F032F8A5
:10173000E0B200F02FF804E0FF2000F02BF8287052
:101740006D1C301EA6F101018EB2F5D101200149B8
:10175000086070BDB8812142002116E000220C4BC8
:101760001A6000F0800222B10122094B08331A608E
:1017700003E00022064B08331A600122044B1A6072
:101780004206100E00BF4A1CD1B20829E6DB7047A2
:101790009401214210B50146002000221EE00023E2
:1017A000104C23604306180E01F0800323B101237F
:1017B0000C4C0834236003E000230A4C08342360F7
:1017C0000123084C23604B06190E074BD3F8183140
:1017D0000BB140F0010000BF531CDAB2082ADEDB77
:1017E00010BD00009401214200002142F8B50646D8
:1017F0000024002000903AE0284602F05BFCC5B2CD
:101800000D2D0CD0172D16D1002C06DD32461BA154
:101810006846FEF7F7FC0120F8BD0020FCE7002C2D
:1018200008DD0021601EC0B204460DF80010012042
:1018300002F0B6FE1AE0032C00DB17E0FEF7A4FC72
:101840000068405D202801D1012000E0002060B147
:10185000032C0ADA2046611CCCB20DF8005000209F
:101860000DF80400284603F03BF800BF00BF02F06B
:10187000E1FB05461528BFD10020CDE72566000015
:1018800070B50446002594F82100022803D00420F6
:10189000A0630125C1E02068006820F00E002168E7
:1018A00008602068006820F00100216808605C4939
:1018B0002068884252D95A4978392068884201D133
:1018C000012047E0564964392068884201D1102040
:1018D00040E0534950392068884201D1801539E0F1
:1018E0004F493C392068884201D1801432E04C498C
:1018F00028392068884202D14FF480302AE04849D4
:1019000014392068884202D14FF4801022E0444903
:101910002068884201D140041CE042492068884286
:1019200001D1012016E03F4914312068884201D1DD
:1019300010200FE03B4928312068884201D18015F2
:1019400008E038493C312068884201D1801401E028
:101950004FF480303349091F086051E0304978392D
:101960002068884201D1012047E02D496439206870
:10197000884201D1102040E029495039206888422E
:1019800001D1801539E026493C392068884201D1CF
:10199000801432E0224928392068884202D14FF46D
:1019A00080302AE01E4914392068884202D14FF461
:1019B000801022E01A492068884201D140041CE0CE
:1019C00018492068884201D1012016E015491431D8
:1019D0002068884201D110200FE012492831206888
:1019E000884201D1801508E00E493C3120688842C8
:1019F00001D1801401E04FF48030094980394860FA
:101A0000012084F8210000BF002084F8200000BFDE
:101A1000606B10B12046616B8847284670BD00009E
:101A2000800002400804024070B50446E06B05687F
:101A30002068066894F84010042088402840002858
:101A400075D006F004000028FAD02068006800F085
:101A5000200028B92068006820F004002168086090
:101A6000D5492068884254D9D349783920688842BA
:101A700001D1042049E0D04964392068884201D16D
:101A8000402042E0CC4950392068884201D10015FD
:101A90003BE0C9493C392068884202D14FF480407C
:101AA00033E0C54928392068884202D14FF48020AC
:101AB0002BE0C14914392068884202D14FF48000DC
:101AC00023E0BD492068884201D1C0041DE0BB4924
:101AD0002068884201D1042017E0B84914312068F9
:101AE000884201D1402010E0B44928312068884262
:101AF00001D1001509E0B1493C312068884202D18A
:101B00004FF4804001E04FF48020AC49091F086089
:101B100054E0A94978392068884201D104204AE07C
:101B2000A54964392068884202D1402043E04CE056
:101B3000A14950392068884201D100153BE09E49F7
:101B40003C392068884202D14FF4804033E09A4902
:101B500028392068884202D14FF480202BE0964932
:101B600014392068884202D14FF4800023E0924962
:101B70002068884201D1C0041DE090492068884255
:101B800001D1042017E08D4914312068884201D129
:101B9000402010E0894928312068884201D1001591
:101BA00009E086493C312068884202D14FF48040E8
:101BB00001E04FF48020804980394860E06A0028C5
:101BC00002D02046E16A8847F4E094F840100220F1
:101BD00088402840002871D006F002000028FAD082
:101BE0002068006800F0200040B92068006820F0FC
:101BF0000A0021680860012084F821006E492068ED
:101C0000884254D96C4978392068884201D1022031
:101C100049E0694964392068884201D1202042E0C6
:101C2000654950392068884201D140153BE062493E
:101C30003C392068884202D14FF4005033E05E49BD
:101C400028392068884202D14FF400302BE05A49ED
:101C500014392068884202D14FF4001023E056491D
:101C60002068884201D180041DE0544920688842E0
:101C700001D1022017E0514914312068884201D176
:101C8000202010E04D4928312068884201D14015BC
:101C900009E04A493C312068884202D14FF40050A3
:101CA00001E04FF400304549091F086054E0424903
:101CB00078392068884202D102204AE057E03E4944
:101CC00064392068884201D1202042E03A495039E5
:101CD0002068884201D140153BE037493C392068F3
:101CE000884202D14FF4005033E03349283920684C
:101CF000884202D14FF400302BE02F49143920687C
:101D0000884202D14FF4001023E02B49206888421A
:101D100001D180041DE029492068884201D10220B8
:101D200017E0264914312068884201D1202010E0B4
:101D3000224928312068884201D1401509E01F4915
:101D40003C312068884202D14FF4005001E04FF44A
:101D5000003019498039486000BF002084F8200015
:101D600000BFA06A30B32046A16A884722E094F8F9
:101D70004010082088402840E0B106F00800C8B1B3
:101D80002068006820F00E002168086094F8401078
:101D900001208840E16B48600120A06384F82100A5
:101DA00000BF002084F8200000BF206B10B1204647
:101DB000216B884770BD000080000240080402408B
:101DC0000146002209B9012070471E4B086898425D
:101DD0000BD21D4B0868C01A1423B0FBF3F080002F
:101DE000086419480838C8630AE0164B0868C01A26
:101DF0001423B0FBF3F08000086412480838C8636D
:101E0000022081F821000868026843F6F0708243DE
:101E1000D1E901031843CB6818430B6918434B6998
:101E200018438B691843CB69184302430868026062
:101E300000208863012081F82100002081F8200023
:101E400000BFC1E708040240080002402DE9F0414C
:101E500004460D4616461F464FF0000800BF94F892
:101E60002000012802D10220BDE8F081012084F881
:101E7000200000BF94F8210001282CD1022084F812
:101E800021000020A0632068006820F00100216884
:101E900008603B46324629462046FFF7F7FBE06ADA
:101EA00030B12068006840F00E00216808600BE047
:101EB0002068006820F0040021680860206800683D
:101EC00040F00A00216808602068006840F00100C6
:101ED0002168086006E000BF002084F8200000BFF1
:101EE0004FF002084046BFE710B50446B4F5005F66
:101EF0000AD10648007880F00100044908700846BD
:101F0000007808B102F0AAF810BD00009802002085
:101F100010B5044604480068204020B1024804601F
:101F20002046FFF7E1FF10BD140401402DE9F847FA
:101F300002460024002000258446002700237BE180
:101F40004FF0010808FA03F4D1F8008008EA040011
:101F5000A0427DD1DFF8ECA2D1F80480A8EB0A09F9
:101F6000D0453AD014DCB8F1030F50D009DCB8F1F9
:101F7000000F31D0B8F1010F1CD0B8F1020F49D1D8
:101F800020E0B8F1110F18D0B8F1120F42D11EE0C5
:101F9000B9F5881F25D006DCB9F5803F20D0B9F50A
:101FA000801F37D11AE0B9F5001F18D0B9F5041F0A
:101FB00030D117E0D1F80CC02DE0D1F80C8008F139
:101FC000040C28E0D1F80C8008F1080C23E0D1F8CB
:101FD0000C8008F10C0C1EE000BF00BF00BF00BF6A
:101FE00000BF00BFD1F80880B8F1000F02D14FF058
:101FF000040C0BE0D1F80880B8F1010F03D14FF0C9
:10200000080C146102E04FF0080C546103E04FF03B
:10201000000C00E000BF00BFFF2801D8904601E09F
:1020200002F104084646FF2802D84FEA830803E07D
:10203000A3F108084FEA88084746D6F800804FF019
:102040000F0909FA07F928EA09080CFA07F900E06C
:102050007AE048EA0908C6F80080D1F8048008F060
:102060008058B8F1805F6FD100BFDFF8DC81D8F80D
:10207000188048F00108DFF8D091C9F81880C846E8
:10208000D8F8188008F00108CDF8008000BF00BF24
:102090004FEAB9384FEA930958F829504FEA837844
:1020A0004FEA18794FF00F0808FA09F825EA0805F1
:1020B000DFF89881424502D14FF0000824E0DFF8B4
:1020C0009081424502D14FF001081DE0DFF8848184
:1020D000424502D14FF0020816E0DFF87C8142450C
:1020E00002D14FF003080FE0DFF87081424502D1C2
:1020F0004FF0040808E0DFF86881424502D14FF054
:10210000050801E04FF006084FEA83794FEA197994
:1021100008FA09F848EA0505DFF848814FEA93090B
:1021200048F82950D1F8048008F48038B8F5803F89
:102130000BD1DFF83481D8F8008048EA0008DFF8D6
:102140002891C9F800800AE075E0DFF81C81D8F812
:10215000008028EA0008DFF81091C9F80080D1F863
:10216000048008F40038B8F5003F0ED1DFF8F8809D
:1021700008F10408D8F8008048EA0008DFF8E89081
:1021800009F10409C9F800800DE0DFF8DC8008F1EE
:102190000408D8F8008028EA0008DFF8CC9009F19C
:1021A0000409C9F80080D1F8048008F48018B8F553
:1021B000801F0ED1DFF8B08008F10808D8F8008041
:1021C00048EA0008DFF8A09009F10809C9F8008082
:1021D0000DE0DFF8948008F10808D8F8008028EABC
:1021E0000008DFF8849009F10809C9F80080D1F8E7
:1021F000048008F40018B8F5001F0ED1DFF86880DD
:1022000008F10C08D8F8008048EA0008DFF8589078
:1022100009F10C09C9F800800DE0DFF84C8008F1E5
:102220000C08D8F8008028EA0008DFF83C9009F193
:102230000C09C9F800805B1C102BFFF481AEBDE8CF
:10224000F887000000001110001002400008014053
:10225000000C014000100140001401400018014032
:10226000001C014008000140000401400AB1016166
:1022700001E00B04036170470148006870470000EB
:102280009C0200200348006803490978084401497A
:10229000086070479C020020A402002010B5084886
:1022A000006840F0100006490860032000F0AAF81A
:1022B000002000F007F800F02BF8002010BD00000F
:1022C0000020024070B504460E4800784FF47A7141
:1022D000B1FBF0F00C490968B1FBF0F5284600F0BD
:1022E0001DFC08B1012070BD102C07D20022214630
:1022F000501E00F048F80548046001E00120F2E7B4
:102300000020F0E7A4020020A8020020A002002084
:1023100008B500BF1348806940F001001149886189
:102320000846806900F00100009000BF00BF00BFB8
:102330000846C06940F08050C8610846C06900F096
:102340008050009000BF00BF052000F05BF800BF88
:102350000549486820F0E06040F00070486000BF28
:1023600008BD0000001002400000014000BF00F066
:102370001F02012191404209920002F1E022C2F8BD
:10238000001100BF70472DE9F05F80460D461646EC
:10239000002702F0E9F8074639462A46334601F09D
:1023A0000700C0F1070ABAF1040F02D94FF0040A7E
:1023B00001E0C0F1070AD14600F1040ABAF1070FA3
:1023C00002D24FF0000A01E0A0F1030AD4464FF018
:1023D000010A0AFA09FAAAF1010A0AEA020A0AFA41
:1023E0000CFA4FF0010B0BFA0CFBABF1010B0BEAF3
:1023F000030B4AEA0B042146404602F0BDF8BDE853
:10240000F09F000000BF00F00702064B19684FF66E
:10241000FF031940044B0B4343EA0221014B1960AF
:1024200000BF70470CED00E00000FA0570B50446EF
:102430000D4600266D48006800F00700A8420ED245
:102440006A48006820F00700284368490860084689
:10245000006800F00700A84201D0012070BD20787C
:1024600000F0020002281DD1207800F004000428AA
:1024700005D15F48406840F4E0605D4948602078DD
:1024800000F00800082805D15948406840F4605021
:10249000574948605648406820F0F000A16808435A
:1024A00053494860207800F0010000285DD0606842
:1024B000012806D14E48006800F4003090B9012090
:1024C000CCE76068022806D14948006800F0007037
:1024D00040B90120C2E74648006800F0020008B990
:1024E0000120BBE74248406820F0030061680843D0
:1024F0003F494860FFF7C0FE06466068012810D1DA
:1025000008E0FFF7B9FE801B41F28831884201D90B
:102510000320A3E73648406800F00C000428F0D1FF
:1025200023E06068022810D108E0FFF7A5FE801BB9
:1025300041F28831884201D903208FE72C48406856
:1025400000F00C000828F0D10FE008E0FFF794FE3F
:10255000801B41F28831884201D903207EE724485C
:10256000406800F00C000028F0D12048006800F01E
:102570000700A8420ED91D48006820F00700284334
:102580001A4908600846006800F00700A84201D018
:10259000012063E7207800F00400042807D11448E4
:1025A000406820F4E060E168084311494860207801
:1025B00000F00800082808D10D48406820F4605059
:1025C000216940EAC1000A49486000F03DF8084925
:1025D0004968C1F30311074A515CC84006490860C5
:1025E0000020FFF76FFE002038E7000000200240C7
:1025F00000100240A0830008A802002001480068E3
:1026000070470000A802002000B5FFF7F7FF04495B
:102610004968C1F30221034A515CC84000BD000073
:1026200000100240B083000800B5FFF7E7FF04493F
:102630004968C1F3C221034A515CC84000BD000093
:1026400000100240B0830008F0B585B00FF26C0CAA
:102650009CE8E01001A8A0E8E0101CA52D680095FA
:1026600000210022002300240020194D696801F098
:102670000C05F5B1042D02D0082D19D101E0154843
:1026800019E001ADC1F38346AC5D01F4803555B16D
:102690000F4D6D68C5F340451DF805200D4D654390
:1026A000B5FBF2F302E00C4D04FB05F3184602E023
:1026B00000BF084800BF00BF05B0F0BD020304051D
:1026C000060708090A0B0C0D0E0F1010010200007E
:1026D0000010024000127A0000093D00F8B50446DF
:1026E0000025207800F00100002878D0F8484068E4
:1026F00000F00C0004280CD0F548406800F00C00F5
:10270000082811D1F248406800F48030B0F5803FCD
:102710000AD1EF48006800F4003000285FD06068FC
:1027200000285CD10120F8BD00BF6068B0F5803F93
:1027300006D1E748006840F48030E549086028E0A9
:10274000606858B9E248006820F48030E0490860C9
:102750000846006820F4802008601AE06068B0F540
:10276000A02F0BD1DA48006840F48020D8490860D7
:102770000846006840F4803008600AE0D4480068E9
:1027800020F48030D24908600846006820F4802098
:10279000086000BF606888B1FFF76EFD054606E07F
:1027A000FFF76AFD401B642801D90320BBE7C84836
:1027B000006800F400300028F2D010E0FFF75CFD64
:1027C000054606E0FFF758FD401B642801D90320A9
:1027D000A9E7BF48006800F400300028F2D1207853
:1027E00000F00200022857D1B948406800F00C0000
:1027F00050B1B748406800F00C00082818D1B44820
:10280000406800F4803098B9B148006800F00200D8
:1028100020B12069012801D0012084E7AC4800687C
:1028200020F0F800616940EAC100A949086033E07E
:102830002069E8B10120A7490860FFF71DFD0546A2
:1028400006E0FFF719FD401B022801D903206AE7C3
:102850009F48006800F002000028F2D09C48006801
:1028600020F0F800616940EAC1009949086013E06E
:10287000002098490860FFF7FFFC054606E0FFF7D7
:10288000FBFC401B022801D903204CE7904800685C
:1028900000F002000028F2D1207800F0080008289B
:1028A0002DD1A069B8B101208B490860FFF7E4FC85
:1028B000054606E0FFF7E0FC401B022801D9032093
:1028C00031E78348406A00F002000028F2D001207E
:1028D00002F07EFA13E000207F490860FFF7CCFC8D
:1028E000054606E0FFF7C8FC401B022801D903207B
:1028F00019E77748406A00F002000028F2D12078FA
:1029000000F00400042873D100267148C06900F06B
:10291000805070B900BF6E48C06940F080506C496B
:10292000C8610846C06900F08050009000BF00BF39
:1029300001266A48006800F48070B0B967480068F2
:1029400040F4807065490860FFF796FC054606E094
:10295000FFF792FC401B642801D90320E3E65F489F
:10296000006800F480700028F2D000BFE068012801
:1029700006D15748006A40F001005549086227E037
:10298000E06858B95248006A20F0010050490862D6
:102990000846006A20F00400086219E0E068052893
:1029A0000BD14B48006A40F00400494908620846D0
:1029B000006A40F0010008620AE04548006A20F021
:1029C0000100434908620846006A20F004000862DA
:1029D00000BFE068A0B1FFF74FFC054609E0FFF734
:1029E0004BFC401B41F28831884202D903209AE611
:1029F00022E03748006A00F002000028EFD012E021
:102A0000FFF73AFC054608E0FFF736FC401B41F2B1
:102A10008831884201D9032085E62D48006A00F0FC
:102A200002000028F0D1012E05D12948C06920F00C
:102A300080502749C86100BFE069C8B32448406896
:102A400000F00C00082860D0E069022848D100207E
:102A500020490866FFF710FC054606E0FFF70CFC6E
:102A6000401B022801D903205DE61948006800F0E8
:102A700000700028F2D1206AB0F5803F07D11448D9
:102A8000406820F40030A168084311494860D4E947
:102A9000080108430E49496821F4741108430C49A0
:102AA000486001200B490866FFF7E6FB054607E092
:102AB0002DE0FFF7E1FB401B022801D9032032E69D
:102AC0000348006800F000700028F2D01FE000000A
:102AD0000010024000004242800442420070004068
:102AE00000200C490866FFF7C7FB054606E0FFF724
:102AF000C3FB401B022801D9032014E606480068E6
:102B000000F000700028F2D101E001200BE6002067
:102B100009E60000000042420010024070B5044681
:102B20002546681EB0F1807F01D301200FE0681EAA
:102B30004FF0E02148610F214FF0FF3001F01CFD04
:102B400000204FF0E021886107200861002070BD5F
:102B500070477047024600BF92F83C00012801D13F
:102B600002207047012082F83C0000BF022082F85A
:102B70003D001068406820F07000136858601068CD
:102B800040680B681843136858601068806820F02C
:102B9000800013689860106880684B681843136859
:102BA0009860012082F83D0000BF002082F83C00C0
:102BB00000BF00BFD5E710B504460CB9012010BD19
:102BC00094F83D0028B9002084F83C00204600F02D
:102BD0000DF8022084F83D00211D206802F0FAFF64
:102BE000012084F83D000020E9E7000038B50446E4
:102BF0002068B0F1804F16D100BF1448C06940F082
:102C000001001249C8610846C06900F00100009047
:102C100000BF00BF012202211C20FFF7B4FB1C20D3
:102C2000FFF7A4FB11E00A49206888420DD100BFDC
:102C30000648C06940F002000449C8610846C069FE
:102C400000F00200009000BF00BF38BD001002403D
:102C50000004004001460868C06840F001000A68AE
:102C6000D0600868006840F001000A681060002029
:102C700070472DE9F04104460D46002600BF94F848
:102C80003C00012802D10220BDE8F081012084F837
:102C90003C0000BF022084F83D002068866826F0D2
:102CA000770626F47F4620688660286850283BD047
:102CB0000CDC202860D004DC002853D0102865D11B
:102CC00055E030285DD0402860D141E0602835D003
:102CD00070280DD0B0F5805F03D0B0F5005F55D1FE
:102CE00015E02068806820F00700216888604EE0C9
:102CF000D5E902136A68206802F0C6FF206886687A
:102D000026F0770646F07706206886603FE0D5E932
:102D100002136A68206802F0B7FF2068806840F4F8
:102D200080402168886032E0EA686968206803F0C2
:102D3000A9F85021206802F0B3FF28E0EA6869682A
:102D4000206803F0B4F86021206802F0A9FF1EE0BB
:102D5000EA686968206803F095F84021206802F06D
:102D60009FFF14E00021206802F09AFF0FE010217D
:102D7000206802F095FF0AE02021206802F090FF11
:102D800005E03021206802F08BFF00E000BF00BFAB
:102D9000012084F83D0000BF002084F83C0000BF03
:102DA00000BF71E7704710B5044620680069C0F3A2
:102DB0004000D8B12068C068C0F34000B0B16FF0E7
:102DC000020021680861012020772068806900F0F6
:102DD000030018B12046FFF7E5FF05E0204600F0AC
:102DE000E7F8204600F084F9002020772068006989
:102DF000C0F38000D8B12068C068C0F38000B0B1D3
:102E00006FF0040021680861022020772068806943
:102E100000F4407018B12046FFF7C4FF05E02046DB
:102E200000F0C6F8204600F063F900202077206803
:102E30000069C0F3C000D8B12068C068C0F3C0000A
:102E4000B0B16FF008002168086104202077206885
:102E5000C06900F0030018B12046FFF7A3FF05E0AA
:102E6000204600F0A5F8204600F042F90020207727
:102E700020680069C0F30010D8B12068C068C0F3B2
:102E80000010B0B16FF010002168086108202077B1
:102E90002068C06900F4407018B12046FFF782FF37
:102EA00005E0204600F084F8204600F021F90020DB
:102EB00020772068006900F0010058B12068C068E0
:102EC00000F0010030B16FF0010021680861204678
:102ED00000F036F920680069C0F3C01058B12068CE
:102EE000C068C0F3C01030B16FF080002168086185
:102EF0002046FFF72DFE20680069C0F3801058B10E
:102F00002068C068C0F3801030B16FF040002168C5
:102F10000861204600F08CF920680069C0F3401079
:102F200058B12068C068C0F3401030B16FF0200085
:102F3000216808612046FFF70CFE10BD10B586B071
:102F400004460020029003900490059014492068E4
:102F5000884222D100BF1348806940F01000114917
:102F600088610846806900F01000019000BF00BF32
:102F70004FF47070029002200390059002A90A4855
:102F8000FEF7D4FF00BF0949486820F4406040F0D4
:102F9000E06040F44060486000BF06B010BD000033
:102FA00000040040001002400010014000000140F9
:102FB000704770B504460D46164600BF94F83C00B5
:102FC000012801D1022070BD012084F83C0000BF1F
:102FD000022084F83D0036B1042E1BD0082E31D0DB
:102FE0000C2E5ED145E02946206802F063FE206881
:102FF000806940F00800216888612068806920F0BD
:103000000400216888612068806929690843216873
:10301000886147E02946206802F088FE20688069C0
:1030200040F40060216888612068806920F4806035
:103030002168886120688069296940EA0120216847
:1030400088612FE02946206802F0B0FE2068C06940
:1030500040F008002168C8612068C06920F00400C1
:103060002168C8612068C069296908432168C8616E
:1030700018E02946206802F0D9FE2068C06940F4B3
:1030800000602168C8612068C06920F48060216800
:10309000C8612068C069296940EA01202168C861C7
:1030A00000E000BF00BF012084F83D0000BF002009
:1030B00084F83C0000BF00BF85E710B504460CB99A
:1030C000012010BD94F83D0028B9002084F83C0090
:1030D000204600F00CF8022084F83D00211D2068F5
:1030E00002F078FD012084F83D000020E9E77047F8
:1030F0007047000030B504460D460122294620687D
:1031000002F0B4FD0C492068884203D00B492068C6
:10311000884201D1012000E0002028B12068406CE5
:1031200040F40040216848642068006840F00100D5
:1031300021680860002030BD002C014000340140AF
:103140002DE9F04786B08246304882455AD1304852
:1031500000F052FC2F4804F017FD2E48103804F000
:1031600009FD2D48006820B12C482B490968884783
:1031700041E00020294981F8000126491039886979
:10318000FDF747FC04460D46224910390869FDF752
:1031900040FC06460F461F4910394869FDF739FCC7
:1031A0001FA28DE8C300CDE904451C490120FEF7AC
:1031B0007BF818481038B0F9040016491039B1F9F5
:1031C0000210144A103AB2F90020124B103BB3F926
:1031D0000A30CDE90132CDE903100E481038B0F9BC
:1031E000080000900B481038B0F906300DA20B49CA
:1031F0000220FEF759F8094890F8002101460B48D3
:1032000000F064F906B0BDE8F0870000400300203C
:103210000AD7A33B54040020940200206C04002031
:10322000666666006868686868680000C003002019
:10323000704770472DE9F04704462068056820680C
:10324000C668206847694FF00008C14605F00F08BE
:10325000B8F1000F0AD105F0200038B106F02000C7
:1032600020B1204602F0B7FEBDE8F087B8F1000FAC
:103270006DD007F0010018B906F49070002866D0F0
:1032800005F0010030B106F4807018B1E06B40F039
:103290000100E06305F0040030B107F0010018B14F
:1032A000E06B40F00200E06305F0020030B107F08F
:1032B000010018B1E06B40F00400E06305F0080085
:1032C00030B107F0010018B1E06B40F00800E06396
:1032D000E06B68B305F0200028B106F0200010B1C3
:1032E000204602F078FE20684069C0F38019E06B48
:1032F00000F0080010B9B9F1000F22D0204602F00A
:1033000040FE2068406900F04000B0B1206840698C
:1033100020F0400021684861606B50B11748616B34
:103320004863606BFEF7ACFA10B1606B416B884785
:103330000CE02046FFF77DFF08E02046FFF779FF0D
:1033400004E02046FFF775FF0020E0638CE705F0FE
:10335000800030B106F0800018B1204602F072FF04
:1033600082E705F0400030B106F0400018B1204679
:1033700002F017FE78E700BF76E70000DB5E00088A
:1033800010B504460CB9012010BDA06900B100E0E1
:1033900000BF94F8390028B9002084F8380020468E
:1033A00000F028F8242084F839002068C06820F450
:1033B00000502168C860204602F060FE2068006965
:1033C00020F49040216808612068406920F02A00BC
:1033D000216848612068C06840F400502168C860D6
:1033E0000020E063202084F8390084F83A000020AF
:1033F000CAE7000010B586B0044600200290039092
:10340000049005902B492068884250D100BF2A487B
:10341000C06940F400302849C8610846C06900F41A
:103420000030019000BF00BF00BF0846806940F037
:10343000040088610846806900F00400019000BF24
:1034400000BF04200290022003900320059002A9EF
:103450001A48FEF76BFD08200290002003900490AC
:1034600002A91648FEF762FD1548164908601020AB
:1034700048600021134881608021C1600021016102
:10348000416181614FF40051C161FEF799FC08B1BF
:10349000FEF73BF900BF0B482063446200BF0222E5
:1034A00001212620FEF76FFF2620FEF75FFF06B002
:1034B00010BD000000440040001002400008014020
:1034C000800002400004002070470000F7B5044669
:1034D000154694F8390020283DD1019800B10DB966
:1034E0000120FEBD00BF94F83800012801D1022060
:1034F000F7E7012084F8380000BF01982062A58416
:10350000E5840020E063212084F839001348216B12
:1035100088621348216BC8621248216B086300203F
:10352000216B486301AE23681A1D31682B46206B5E
:10353000FEF78CFC6FF040002168086000BF00209F
:1035400084F8380000BF2068406940F0800021689E
:1035500048610020C5E70220C3E700003F5F000884
:10356000755F0008EF5E00087047202180F8391071
:10357000704700BFFEE7000010B51248006820F455
:103580007040104908600846006840F440500860E8
:1035900000200D490860052003F062FF01200B495F
:1035A000C1F8A801052003F05BFF00200649091FB0
:1035B0000860052003F054FF01200449C1F8AC0164
:1035C00010BD0000040C0140AC812142008021426A
:1035D00010B50020124908601248006820F07040C1
:1035E000104908600846006840F04050086000201C
:1035F0000D49C1F89C01022003F032FF0120084967
:103600000860022003F02CFF00200749C1F8980150
:10361000022003F025FF01200149091D086010BDAB
:1036200098812142000C01400080214210B51048D1
:10363000006820F470400E4908600846006840F4B5
:103640004050086001200B490860052003F008FF86
:1036500001200949C1F8A801052003F001FF00205D
:103660000449091F0860052003F0FAFE10BD0000A0
:10367000040C0140AC8121420080214270B5154804
:10368000006820F47040134908600846006840F460
:1036900000400860002515E0052003F0E1FE60060B
:1036A000040E01200C490860052003F0D9FE0B48E8
:1036B000D0F82C0108B1601CC4B200200649086093
:1036C000681CC5B2082DE7DB052003F0C9FE2046C3
:1036D00070BD0000040C0140A881214200802142FD
:1036E00070B51648006820F070401449086008461C
:1036F000006840F0004008600024002516E000202B
:103700000F490860022003F0ABFE01200D49C1F80B
:1037100098016006040E0A487C38006808B1601CF5
:10372000C4B2022003F09CFE681CC5B2082DE6DB83
:10373000002003490860204670BD0000000C0140D5
:10374000988121420080214270B5044617480068E4
:1037500020F47040154908600846006840F4405065
:10376000086000251EE004F0800018B10120104917
:10377000086002E000200E490860052003F070FE9A
:1037800001200B49091F0860052003F069FE002095
:103790000849C1F8A8016006040E052003F060FE88
:1037A000681CC5B2082DDEDB70BD0000040C0140B2
:1037B000AC8121420080214270B504461548006862
:1037C00020F07040134908600846006840F04050FF
:1037D0000860002010490860002518E0C4F3C010FC
:1037E0000D49091D08606006040E022003F038FE32
:1037F00001200A49C1F89801022003F031FE00209F
:1038000005490860022003F02BFE681CC5B2082D94
:10381000E4DB70BD000C0140988121420080214210
:1038200010B51848006820F4706016490860084612
:10383000006840F4407008600846006820F470405A
:1038400008600846006840F44050086001200E49B6
:103850000860052003F004FE01200C49C1F8A8010E
:10386000052003F0FDFD002007490860052003F056
:10387000F7FD00200549C1F8A801052003F0F0FD7F
:10388000012010BD040C0140AC8121420080214286
:1038900010B51748006820F07040154908600846C8
:1038A000006840F04050086001201249086012484A
:1038B000D0F81C0108B9002010BD01200D49091FD6
:1038C0000860022003F0CCFD00200B49C1F89C01E8
:1038D00008488038006808B10020EDE7022003F0B6
:1038E000BFFD00200349091F08600120E4E7000034
:1038F000000C01409C8121420080214210B50F48FC
:10390000006820F470400D4908600846006840F4E3
:103910004050086000200A490860052003F0A0FD1F
:1039200001200849C1F8A801052003F099FD0120F4
:1039300003490860052003F093FD10BD040C01400D
:10394000AC8121420080214210B50F48006820F070
:1039500070400D4908600846006840F0405008601B
:1039600000200A4908600A49C1F89C01022003F0BE
:1039700077FD0120054908600549C1F89C01022036
:1039800003F06EFD10BD0000000C01409881214243
:103990000080214210B501201449086014480068D5
:1039A00020F47040124908600846006840F4004066
:1039B000086001200F49C1F8A801052003F050FD5F
:1039C00000240EE009488038006828B90020074923
:1039D000091F0860012010BD052003F041FD601C97
:1039E000C4B2322CEEDB0020F5E70000AC812142AE
:1039F000040C01400080214201B59AB04FF0804094
:103A00001990FE4818904FF07C511A98FCF71EFE52
:103A1000179003F0D1FF10B900201BB000BDF8488B
:103A2000C08828B1F648008910B1F548408908B926
:103A30000020F2E7F248B0F900000690FCF78FFF93
:103A4000F0490790FCF702FEEF490890FCF7FEFDF5
:103A50001090EB48B0F902000690FCF780FFE949AE
:103A60000790FCF7F3FDE8490890FCF7EFFD119093
:103A7000E348B0F904000690FCF771FFE1490790B4
:103A8000FCF7E4FDE0490890FCF7E0FD1290DC480B
:103A9000B0F906004043DA49B1F90820B1F908103D
:103AA00002FB0101D648B0F90A20B0F90A0002FB76
:103AB00000100790FCF753FF089003F053FD169099
:103AC000CF48B0F906000790FCF749FF0890169917
:103AD000FCF7BCFD1390CA48B0F908000790FCF74A
:103AE0003EFF08901699FCF7B1FD1490C448B0F958
:103AF0000A000790FCF733FF08901699FCF7A6FD23
:103B0000159015980690C14801680698FCF79EFD2F
:103B1000089014980690BE4801680698FCF796FD38
:103B200007900899FCF78CFD0F9013980690B84801
:103B300001680698FCF78AFD089015980690B5482C
:103B400001680698FCF782FD07900899FCF778FD5C
:103B50000E9014980690AF4801680698FCF776FD21
:103B6000089013980690A94801680698FCF76EFD26
:103B700007900899FCF764FD0D90A0480F99FCF799
:103B800065FD07901A99FCF761FD0890A24801684D
:103B90000898FCF703FDA049086098480E99FCF7C7
:103BA00055FD07901A99FCF751FD08909B48016854
:103BB0000898FCF7F3FC9949086090480D99FCF7C8
:103BC00045FD07901A99FCF741FD0890944801685B
:103BD0000898FCF7E3FC924908604FF080400F9989
:103BE000FCF734FD07908C4801680798FCF7D6FC79
:103BF00008901098014607900898FCF7CFFC1090A9
:103C00004FF080400E99FCF721FD07908348016832
:103C10000798FCF7C3FC0890119801460790089894
:103C2000FCF7BCFC11904FF080400D99FCF70EFDA5
:103C300007907B4801680798FCF7B0FC0890129841
:103C4000014607900898FCF7A9FC1290129804907E
:103C50007448C06803900499FCF7F8FC069011982A
:103C600002907048806801900299FCF7EFFC049084
:103C70006C48406880F00040029010980146019026
:103C80000298FCF7E3FC03900499FCF7D9FC05903B
:103C90000699FCF7D5FC07901799FCF7D7FC08901C
:103CA00060480068014607900898FCF777FC5D497A
:103CB0000860119804900846C06803900499FCF7C6
:103CC000C5FC0690129802905648806801900299AF
:103CD000FCF7BCFC049010980290524800680190D8
:103CE0000299FCF7B3FC03900499FCF757FC05908C
:103CF0000699FCF7A5FC07901799FCF7A7FC08901C
:103D000048484068014607900898FCF747FC454939
:103D10004860109804900846C06803900499FCF726
:103D200095FC0690129802903E48406801900299D6
:103D3000FCF78CFC0490119802903A4800680190BE
:103D40000299FCF783FC03900499FCF779FC059039
:103D50000699FCF723FC07901799FCF777FC08906D
:103D600030488068014607900898FCF717FC2D49F9
:103D70008860109804900846806803900499FCF7C6
:103D800065FC0690119802902648406801900299BF
:103D9000FCF75CFC049012980290224800680190A5
:103DA0000299FCF753FC03900499FCF7F7FB05908C
:103DB0000699FCF745FC07901799FCF747FC08901B
:103DC0001848C068014607900898FCF7E7FB1549BA
:103DD000C8600846C06805900846C0680490059908
:103DE000FCF734FC07900F48806803900D4880680A
:103DF00002900399FCF72AFC059015E06F12033B33
:103E0000B002002000007A3D35FA8E3C20000020F0
:103E1000240000201C00002030000020340000207E
:103E200038000020040000207B48406801907A4858
:103E3000406800900199FCF709FC039076480068FF
:103E400001907548006800900199FCF7FFFB029013
:103E50000399FCF7A3FB04900599FCF79FFB0690E0
:103E60000799FCF79BFB089003F07CFB16906A48CF
:103E7000006808901699FCF7E9FB67490860084656
:103E8000406808901699FCF7E1FB634948600846D2
:103E9000806808901699FCF7D9FB5F49886008464E
:103EA000C06808901699FCF7D1FB5B49C8600846CA
:103EB000006808900846006807900899FCF7C6FB60
:103EC0000C905548406808905348406807900899FE
:103ED000FCF7BCFB0B905048806808904E48806807
:103EE00007900899FCF7B2FB0A904B48C06808900D
:103EF0004948C06807900899FCF7A8FB0990DDE9DC
:103F00000B10FCF74BFB07900A99FCF799FB089004
:103F10000999FCF795FB414908603F48C068059046
:103F20003D48006804900599FCF790FB07903A48DB
:103F3000806805903848406804900599FCF786FB36
:103F400006900799FCF72AFB4FF080410890FCF798
:103F50007DFB334908603048806805902E48006832
:103F600004900599FCF772FB07902B48C0680590F8
:103F70002948406804900599FCF768FB069007996A
:103F8000FCF75EFB4FF080410890FCF75FFB254992
:103F900008602148C06805901F4880680490059912
:103FA000FCF754FB07901C48406805901A480068CD
:103FB00004900599FCF74AFB06900799FCF7EEFA86
:103FC0004FF080410890FCF741FB17490860DDE99C
:103FD0000B10FCF735FB07900A99FCF731FB0890B2
:103FE0000999FCF7DBFA114908604FF07E510D4842
:103FF0000068FCF747FD03D24FF07E500949086086
:104000000B4908480068FCF733FD02D2084805490F
:104010000860012001E500000400002014000020D9
:10402000180000201C000020200000202400002098
:10403000000080BF08B500BF00F08AF80028FBD060
:1040400000BF684600F066F80028FAD100BF00F013
:104050007FF80028FBD19DF8000008BD10B514487A
:10406000006820F07060124908600846006840F05F
:10407000407008600846006820F0704008600846FC
:10408000006840F040500860FFF702FC08B90020CB
:1040900010BD4820FFF790FBFFF79AFA0920FFF7C1
:1040A0008BFBFFF795FAFFF74FFC0120F0E70000CC
:1040B000000C01400146262920D00CDC1E2923D00B
:1040C00004DC162910D01D2922D11FE01F2919D088
:1040D00025291DD114E027290ED02D290AD02E29FB
:1040E00006D02F2914D101E0302070473120FCE7A1
:1040F0003220FAE73320F8E73420F6E73520F4E7FA
:104100003620F2E73720F0E73820EEE73920ECE7F9
:104110000846EAE770B50546FFF7BAFB4F20FFF700
:104120004BFBFFF755FAFFF7DBFA0446FFF750FAAF
:10413000FFF70AFC04F0400018B1FF2C01D0012663
:1041400000E0002604F0BF0405B12C70304670BDBD
:104150000348006808B1002070470120FCE7000018
:104160002081214208B500BF0A48406940F00100A3
:10417000084948610846406900F00100009000BF0E
:1041800000BF002211461120FEF7FDF81120FEF7B6
:10419000EDF808BD0010024000B585B00020019088
:1041A00002900390049000BF5348806940F01000D3
:1041B000514988610846806900F01000009000BFF6
:1041C00000BF00BF0846806940F0200088610846B3
:1041D000806900F02000009000BF00BF00BF0846CB
:1041E000806940F0040088610846806900F004009E
:1041F000009000BF00BF00BF0846806940F0080083
:1042000088610846806900F00800009000BF00BF88
:10421000012248F2A0013948FEF728F8012244F6AD
:10422000F8413748FEF722F8012211033548FEF71E
:104230001DF8012204213448FEF718F84FF400500D
:104240000190324802900020039001A92D48FDF70B
:104250006DFE48F2A0000190012002900020039022
:104260000320049001A92548FDF760FE402001903D
:1042700000200290039001A92048FDF757FE4FF45B
:1042800040600190112002900020039003200490D0
:1042900001A91B48FDF74AFE44F2F80001900120F5
:1042A0000290002003900320049001A91448FDF718
:1042B0003DFE4FF4805001900120029000200390B9
:1042C0000320049001A90F48FDF730FE042001905F
:1042D00001200290002003900320049001A90A48C5
:1042E000FDF724FE022211462820FEF74CF8282074
:1042F000FEF73CF805B000BD001002400008014088
:10430000000C014000100140001401400000111099
:1043100000B587B0002003900490059006900190AE
:1043200002904FF080401449086047204860002107
:104330001148816041F28731C160002101618161D2
:10434000FEF739FC08B1FDF7E0F94FF48050039017
:1043500003A90948FEF78DFC08B1FDF7D6F9002046
:104360000190029001A90448FEF7F4FB08B1FDF7A3
:10437000CCF907B000BD00004003002000B58DB0AF
:10438000002009900A900B900C90079008901C2137
:104390006846FBF71FFF2C482C4908600020486046
:1043A00000212A48816041F61F41C160002101615E
:1043B0008161FEF700FC08B1FDF7A7F94FF48050CA
:1043C000099009A92148FEF754FC08B1FDF79DF9B1
:1043D0001E48FEF772FE08B1FDF797F9002007901E
:1043E000089007A91948FEF7B5FB08B1FDF78DF94C
:1043F0006020009000200190029004900022694605
:104400001248FEF7D6FD08B1FDF77FF90422694690
:104410000E48FEF7CEFD08B1FDF777F90822694690
:104420000A48FEF7C6FD08B1FDF76FF90C22694690
:104430000648FEF7BEFD08B1FDF767F90348FEF731
:104440007DFD0DB000BD0000000400408003002091
:1044500010B50B480B4908604FF4E130486000216B
:1044600008488160C16001610C21416100218161C6
:10447000C161FEF785FF08B1FDF747F910BD0000E7
:1044800000440040C003002000BFFEE708B5FFF76E
:10449000E5FD1AA20021084600F09FF91CA20021A8
:1044A000012000F09AF91FA20021022000F095F9E6
:1044B00021A20021032000F090F9FFF749FEE0B1AE
:1044C0006846FFF727FE9DF80000FFF7F3FDC0B236
:1044D00000909DF80000312804D0322805D0332800
:1044E00009D105E0FCF7CAFF05E000F087FC02E017
:1044F00000F0C0FA00BF00BF00BF08BD2020202090
:104500002020B2CBB5A520202020202000000000D4
:10451000312EB2CECAFDD0DEB8C42020202020200B
:1045200000000000322EB1C8C8FCCFEEC4BF20206E
:104530002020202000000000332EC6E4CBFCB9A6CA
:10454000C4DC2020202020200000000001200149A0
:104550000870704729000020012001490870704749
:10456000280000207047000002480068C0F30220C5
:10457000704700000CED00E010B5002807DA0A07CC
:10458000140E054A00F00F031B1FD45403E00A0762
:10459000130E024A135410BD18ED00E000E400E0D1
:1045A00070B504460E480078A04205DB0C48007840
:1045B000001B0B49087004E00948047800200849F2
:1045C000087007480578002604E0202000F088F9EC
:1045D000701CC6B2A642F8DB0148057070BD000031
:1045E0005C00002010B500200949087009490870D6
:1045F000002404E0202000F073F9601CC4B2402CB9
:10460000F8DB0020024908700249087010BD000064
:104610005C0000205D00002070B5054600212846A2
:1046200000F0C2F958B1002404E0202000F058F94D
:10463000601CC4B2102CF8DB00200149087070BD6A
:104640005C0000202DE9F04180460D4600264DE03B
:10465000284800780E2807DD0020264908702648E3
:104660000078401C2449087023480078042803DBA4
:104670004FF0FF30BDE8F08100242EE044B91E4920
:104680000978B722A2EB4101C8B200F09FF907E018
:1046900019490978B622A2EB4101C8B200F096F997
:1046A000144909780F2202EAC10000F08FF911497C
:1046B0000978C900102242EA211000F087F900278A
:1046C00007E0311908EB0111C85D00F0A9F9781C69
:1046D000C7B2102FF5DB601CC4B2022CCEDB05483C
:1046E0000078801C03490870701CC6B2AE42AFDB74
:1046F0002846BFE75C0000205D00002010B50020C8
:104700002B490860642002F091FE01202949C1F87C
:104710008C01AE2000F05AF9D52000F057F9502056
:1047200000F054F9A82000F051F93F2000F04EF9B4
:10473000D32000F04BF9002000F048F9402000F0B1
:1047400045F98D2000F042F9142000F03FF92020B7
:1047500000F03CF9022000F039F9A12000F036F910
:10476000C02000F033F9DA2000F030F9122000F018
:104770002DF9812000F02AF9EF2000F027F9D92047
:1047800000F024F9F12000F021F9DB2000F01EF9FF
:10479000302000F01BF9A42000F018F9A62000F04A
:1047A00015F9AF2000F012F9FFF71CFF10BD000053
:1047B0008C812142008021420FB400B591B013A832
:1047C0000090402101A8009B129A01F079FD01A8F8
:1047D00000F019F811B05DF814FB0FB430B587B0D4
:1047E00004460D460DA80190112102A8019B0C9AC8
:1047F00001F066FD02AA2946204600F03FF807B006
:1048000030BC5DF814FB70B588B005460026002466
:104810002DE0285D7F281FDD601C2A5C285DA13803
:10482000C0EB001303EB401002EB4000A1384FF443
:10483000802202EB401120226846FCF767FF01212D
:104840006846FFF7FFFE401C10B1B01CC6B200E086
:1048500010E0601CC4B208E0285D00F041F8401C84
:1048600010B1701CC6B200E004E0601CC4B2285D48
:104870000028CED100BF304608B070BD2DE9F0470A
:1048800086B007460C461546134890F8008013483A
:1048900090F800902146384600F086F8C0B1C4F187
:1048A0001000C6B23246294601A8FBF79EFC002044
:1048B00001A9885501A8FFF7A6FF8246064880F89F
:1048C0000080064880F80090504606B0BDE8F087AA
:1048D0004FF0FF30F9E700005C0000205D00002091
:1048E0002DE9F041064600BFA6F12000C7B27E2F99
:1048F00002DD0020BDE8F081284800EB07182848B9
:104900000078102807DB002025490870254800782A
:10491000401C2449087023480078042802DB4FF02B
:10492000FF30E7E700242DE044B91E490978B7229B
:10493000A2EB4101C8B200F049F807E01949097833
:10494000B622A2EB4101C8B200F040F81449097840
:104950000F2202EAC10000F039F811490978C900B4
:10496000102242EA211000F031F8002506E008EBA1
:10497000C401485D00F054F8681CC5B2082DF6DB90
:10498000601CC4B2022CCFDB05480078401C0449EF
:10499000087000BF00BF00BF3046ABE79C7D000839
:1049A0005C0000205D0000200246102901DA042A84
:1049B00001DB0020704703480170034802700120AA
:1049C000F8E700005C0000205D0000200022114B91
:1049D0001A60114BC3F88821002114E000220F4B0C
:1049E0001A6000F080021AB101221B1F1A6003E056
:1049F00000220A4B1B1F1A600122084B1A60420654
:104A0000100E4A1CD1B20829E8DB0122014B1A60C2
:104A100070470000B001224200802242948121426E
:104A20000022114B1A600122104BC3F8882100218B
:104A300014E000220E4B1A6000F080021AB101222D
:104A40001B1F1A6003E00022094B1B1F1A60012282
:104A5000074B1A604206100E4A1CD1B20829E8DB47
:104A60000122014B1A607047B001224200802242AD
:104A70009481214210B53EE0FFF7B4FD1FA2002152
:104A80000846FFF7AAFE21A200210120FFF7A5FE9C
:104A900021A200210220FFF7A0FE22A20021032074
:104AA000FFF79BFEFFF7C6FA0446152C00D123E062
:104AB0002046FFF7FFFA312804D0322805D03328EA
:104AC00009D105E000F044F814E000F079F811E0B5
:104AD00000F0D8F80EE0FFF785FD15A203210020B5
:104AE000FFF77BFE15A200210320FFF776FEFFF7FC
:104AF000A1FA00BF00BFBFE700BF10BDB2CBB5A594
:104B00003E3EC6E4CBFCB9A6C4DC0000312EC7F89B
:104B1000D3F2D0A3D7BC0000322EB6E6BBFABFD882
:104B2000D6C60000332EB2CECAFDB1A3B4E6000053
:104B3000CAE4C8EBB4EDCEF321000000C7EBB0B47B
:104B4000C8CED2E2BCFCBCCCD0F8A3A100000000CF
:104B500010B5FFF747FD0DA200210846FFF73DFE07
:104B60000EA200210120FFF738FE10A20021032031
:104B7000FFF733FE00210220FFF716FF00BFFFF70B
:104B800059FA04461528FAD110BD0000C6E4CBFB43
:104B9000B9A6C4DC3E3ED0A3D7BC0000C7EBCAE434
:104BA000C8EBD0A3D7BCC7F8D3F23A00456E746502
:104BB00072202020202020202044656C000000006E
:104BC00008B5FFF70FFD35E01CA200210846FFF7EE
:104BD00004FE1E48007828B91DA200210120FFF71D
:104BE000FCFD04E01EA200210120FFF7F6FD20A23B
:104BF00000210320FFF7F1FDFFF7AAFAD0B100BFB3
:104C00006846FFF787FA0028FAD19DF800001728B8
:104C100003D101200D4908700CE09DF800000D281B
:104C200003D100200949087004E09DF80000152810
:104C300000D100E0C8E700BF08BD0000C6E4CBFB20
:104C4000B9A6C4DC3E3EBFD8D6C600009002002004
:104C5000B5B1C7B0D7B4CCAC3AB9D8B1D500000023
:104C6000B5B1C7B0D7B4CCAC3ABFAAC6F400000007
:104C7000456E746572202020202020202044656C21
:104C80000000000010B5FFF7ADFC26E013A20021E4
:104C90000846FFF7A2FD15A200210120FFF79DFDA8
:104CA00017A200210320FFF798FDFFF7C3F9044680
:104CB000152C01D00D2C00D110BD172C0DD0FFF7F5
:104CC00091FC14A203210020FFF787FD14A200210C
:104CD0000320FFF782FDFFF7ADF9D7E7C6E4CBFB72
:104CE000B9A6C4DC3E3EB1A3B4E60000CAC7B7F122
:104CF000C8B7B6A8B1A3B4E6B2CECAFD00000000A2
:104D0000456E746572202020202020202044656C90
:104D100000000000CAE4C8EBB4EDCEF321000000AF
:104D2000C7EBB0B4C8CED2E2BCFCBCCCD0F8A3A1D7
:104D30000000000070472DE9F04104460E4660680F
:104D4000851B6069291AE1616561A0694119A1614A
:104D5000204600F033F86069FBF701FE8046A16849
:104D6000FBF774FC0746FBF708FE2062A069FBF71F
:104D7000F6FD8046E168FBF769FC0746FBF7FDFDA1
:104D80006062E069FBF7EBFD80462169FBF75EFCA2
:104D90000746FBF7F2FDA062204600F002F8BDE8EE
:104DA000F08110B50446D4E908210A44A16A5018DC
:104DB00041F27C52514202F06FFA10BD10B5044628
:104DC0004FF47A725142A06902F066FAA06110BDF8
:104DD00008B508490968C9084FF47A72B1FBF2F1C5
:104DE0004143009100BF00BF00994A1E0092002974
:104DF000F9D108BDA8020020704700002DE9F84352
:104E0000E4E0FFF7EFFB73A200210846FFF7E5FCA3
:104E100074A200210120FFF7E0FC0B210120FFF725
:104E2000C3FDFFF707F90546FFF744F9C4B2152C97
:104E300000D1CCE0312C73DB382C71DC21466CA026
:104E4000FFF7BAFC6BA200210220FFF7C6FC6CA2A0
:104E500000210320FFF7C1FC9EE0172DFCD1A4F137
:104E60003100062807D2DFE800F00307335C6087D3
:104E700068486949086083E00120FFF7CDFB022004
:104E8000FFF7CAFB65A200210120FFF7A6FC002165
:104E90000220FFF789FD65A0FFF78EFC6846FCF74E
:104EA000A5FCA0B14FF080410098FBF701FC8046C3
:104EB000FBF763FD07461E220F2102F0EDF90646BF
:104EC000FBF74DFD5A4908605A485349086057E0BE
:104ED0000120FFF7A1FB0220FFF79EFB56A2002155
:104EE0000120FFF77AFC00210220FFF75DFD56A0AC
:104EF000FFF762FC6846FCF779FC80B10098FBF78D
:104F00003CFD07464FF4B472002102F0C5F9064695
:104F1000FBF725FD4E4908604E483F4908602FE0E9
:104F200046E04D483C4908602AE00120FFF774FB49
:104F30000220FFF771FB49A200210120FFF74DFC81
:104F400000210220FFF730FD48A0FFF735FC68463E
:104F5000FCF74CFC78B10098FBF70FFD07462322C5
:104F60000F2102F099F90646FBF7F9FC4049086069
:104F700040482949086003E03F482749086000BFCE
:104F800000BF0320FFF748FB3CA200210320FFF7EE
:104F900024FCFFF74FF805E0FFF74CF8054615280D
:104FA0007FF45BAF00BF152D01D1BDE8F8830DE0A4
:104FB000FFF718FB34A203210020FFF70EFC35A2F7
:104FC00000210320FFF709FCFFF734F819E700BFC1
:104FD00000BFEAE7B2CBB5A53E3EB1C8C8FCCFEEF4
:104FE000C4BF0000C7EBCAE4C8EBCCE2BAC53A00C4
:104FF00025630000CAC7B7F1C8B7C8CF3F0000009B
:10500000456E7465722020202020202020455343C7
:1050100000000000A950000894020020C7EBCAE479
:10502000C8EBD6B1CFDFB3A4B6C83A004C3D000000
:10503000600000201D520008C7EBCAE4C8EBD6B1DF
:10504000CFDFBDC7B6C83A005261643D0000000022
:105050006400002099530008FD550008C7EBCAE41E
:10506000C8EBD4B2B5C4B0EBBEB63A00523D0000B6
:1050700068000020DD560008D1580008D1A1D4F105
:10508000B3C9B9A6A3A10000CAE4C8EBB4EDCEF33E
:1050900021000000C7EBB0B4C8CED2E2BCFCBCCC4F
:1050A000D0F8A3A1000000002DE9F04F8BB082469C
:1050B00000BF4FF0000B00200A904A4802F02EF883
:1050C00005464949FBF7C2FA04464849FBF7F0FA9E
:1050D000099047480068401D454908600846006837
:1050E000FBF746FC43490890FBF7B0FA814642497A
:1050F000FBF7DEFA804602F077FD07460999FBF7D9
:10510000A5FA06463D49FBF7A1FA05464FF07C514A
:10511000FBF744FA0446FBF730FC3949486039494B
:1051200008693649FBF792FA0546FBF726FC044668
:1051300021463348FFF7FFFD0FFA80FB3148B0F9F5
:1051400000103148FFF7F7FD00B20A9058460A995F
:1051500000F0AEFC00208AF800012A498869FBF7BC
:1051600058FC04460D4627490869FBF752FC804667
:10517000894624494869FBF74CFC24A28DE80303C7
:10518000CDE9044551460120FCF78EF81D49086918
:10519000FBF7F3FB00B2642100FB01F41848406800
:1051A0001849B1F90410CDE906B4CDE90410154849
:1051B000B0F90220B0F900001249B1F90A10114B00
:1051C000B3F90830CDE90031CDE902020D48B0F95C
:1051D00006300FA251460220FCF766F80BB0BDE87E
:1051E000F08F00000000F03E00003443DC0F494027
:1051F000C4000020DA0FC94000409C440000C842AF
:105200006C000020440400209800002066666600C0
:105210006868686868686868680000002DE9F04F91
:105220008BB0824600BF4FF0000B00200A904FF079
:1052300085414B480068FBF73BFA064601F06EFFDC
:1052400005464849FBF702FA04464749FBF730FA9E
:10525000099046480068401D4449086008460068B7
:10526000FBF786FB42490890FBF7F0F9814641497C
:10527000FBF71EFA804602F0B7FC07460999FBF7D8
:10528000E5F906463C49FBF7E1F905464FF07C514C
:10529000FBF784F90446FBF770FB3849486038494E
:1052A00008693549FBF7D2F90546FBF766FB04466A
:1052B00021463248FFF73FFD0FFA80FB3048B0F936
:1052C00000103048FFF737FD00B20A9058460A999F
:1052D00000F0EEFB00208AF8000129498869FBF7FD
:1052E00098FB04460D4626490869FBF792FB0646E3
:1052F0000F4623494869FBF78CFB23A28DE8C300C6
:10530000CDE9044551460120FBF7CEFF1C49086951
:10531000FBF733FB00B2642100FB01F4174840683F
:105320001749B1F90410CDE906B4CDE904101448C9
:10533000B0F90210B0F90020B0F90A00104BB3F92F
:105340000830CDE90030CDE902210D48B0F9063032
:105350000EA251460220FBF7A7FF0BB0BDE8F08F6D
:105360006000002000003443DC0F49402001002091
:10537000DA0FC94000409C440000C842C800002029
:1053800044040020F40000206666660068686868CF
:1053900068686868680000002DE9F04FA1B0824697
:1053A00000BF382113A8FAF715FF142282490EA86E
:1053B000FAF7F7FE00200D900C9080480068401D21
:1053C0007E4908607E497F480068FBF771F9044612
:1053D000FBF7ECFAC0B20B904FF085417A480068B9
:1053E000FBF766F9064601F099FE05467749FBF79B
:1053F0002DF904467649FBF75BF90A907349714829
:105400000068FBF755F906467149FBF71FF9054699
:1054100001F04EFF04460A99FBF718F909906B4911
:1054200068480068FBF744F906466949FBF70EF93E
:10543000054602F0D9FB04460A99FBF707F90890E4
:105440005E480068FBF794FA62490790FBF7FEF8A4
:1054500083466149FBF72CF981460EAA0B9852F856
:1054600020104846FBF79AF8804602F0BDFB07463D
:105470000899FBF7EBF806465849FBF7E7F80546AD
:105480004FF07C51FBF78AF80446FBF776FA544953
:1054900048604A480068FBF76BFA83464D49FBF7C2
:1054A000D5F881464C49FBF703F9804602F09CFB96
:1054B00007460999FBF7CAF806464849FBF7C6F8BC
:1054C00005464FF07C51FBF769F80446FBF755FAA7
:1054D00044494860444908694049FBF7B7F8054624
:1054E000FBF74BFA044621463D48FFF724FC00B287
:1054F0000D903D4948693949FBF7A8F80546FBF787
:105500003CFA044621463748FFF715FC00B20C90E0
:10551000DDE90C1000F0CCFA00208AF800013249D5
:105520008869FBF776FA04460D462F490869FBF7B0
:1055300070FA06460F462C494869FBF76AFA2BA217
:105540008DE8C300CDE9044551460120FBF7ACFED0
:1055500025490869FBF711FA00B2642100FB01F448
:1055600021494869FBF709FA00B2642100FB01F503
:105570001B4840681C49B1F90410CDE90654CDE937
:1055800004101948B0F902001749B1F90010164A81
:10559000B2F90A20144BB3F90830CDE90032CDE955
:1055A00002101148B0F9063011A251460220FBF753
:1055B0007BFE21B0BDE8F08F8C8300087C010020C9
:1055C00000002041640000206000002000003443FF
:1055D000DC0F4940DA0FC94000409C440000C8423B
:1055E000240100205001002044040020666666006B
:1055F0006868686868686868680000002DE9F04FAE
:1056000087B082464FF0000B002006902B48B0F97F
:1056100002102B48FFF78FFB0FFA80FB2748B0F9E9
:1056200000102848FFF787FB00B2069058460699FD
:1056300000F03EFA00208AF8000120498869FBF753
:10564000E8F904460D461D4908691F49FAF7FEFFAF
:105650000590FBF7DEF906460F46184948691A49D6
:10566000FAF7F4FF0590FBF7D4F918A28DE8C30010
:10567000CDE9044551460120FBF716FE0F48B0F96D
:1056800004000E49B1F902100C4AB2F900200B4B8C
:10569000B3F90A30CDE90132CDE903100748B0F97A
:1056A000080000900548B0F9063009A251460220D2
:1056B000FBF7FAFD07B0BDE8F08F000044040020BE
:1056C00080010020AC0100200000C8426666660030
:1056D0006868686868686868680000002DE9F04FCD
:1056E0008BB0824600BF00200A900990694800688C
:1056F000401D684908604FF0854167480068FAF727
:10570000D7FF064601F00AFD05466449FAF79EFFF9
:1057100004466349FAF7CCFF08905E480068FBF73F
:1057200027F960490390FAF791FF5F490490FAF76F
:10573000BFFF8346FBF76DF9064600225B4BFAF785
:10574000F5FF0446FBF778F9059002F04DFA069054
:105750000899FAF77BFF56490790FAF777FF8146D9
:105760004FF07C51FAF71AFF8046FBF706F95149D2
:10577000486048480068FBF7FBF883464949FAF758
:1057800065FF81464849FAF793FF804602F02CFAFC
:1057900007460899FAF75AFF06464549FAF756FFB1
:1057A00005464FF07C51FAF7F9FE0446FBF7E5F8A1
:1057B00041494860414908693D49FAF747FF0546B4
:1057C000FBF7DBF8044621463A48FFF7B4FA00B28B
:1057D0000A903A4948693649FAF738FF0546FBF717
:1057E000CCF8044621463448FFF7A5FA00B20990E8
:1057F000DDE9091000F05CF900208AF800012F496A
:105800008869FBF706F904460D462C490869FBF741
:1058100000F906460F4629494869FBF7FAF828A21D
:105820008DE8C300CDE9044551460120FBF73CFD5E
:1058300022490869FBF7A1F800B2642100FB01F4DA
:105840001E494869FBF799F800B2642100FB01F595
:10585000184840681949B1F90410CDE90654CDE95A
:1058600004101648B0F90210B0F90020B0F90A008F
:10587000124BB3F90830CDE90030CDE902210F48D1
:10588000B0F906300FA251460220FBF70DFD0BB018
:10589000BDE8F08F30020020680000200000344393
:1058A000DC0F4940DA0FC94000409C440000F83F3B
:1058B0000000C842D8010020040200204404002057
:1058C00066666600686868686868686868000000FE
:1058D0002DE9F04F8BB0824600BF00200A9009905E
:1058E00064480068401D63490860634801F016FC85
:1058F00005466249FAF7AAFE04466149FAF7D8FE5E
:1059000008905C480068FBF733F85E490790FAF7A7
:105910009DFE83465C49FAF7CBFE81464FF07F51EE
:10592000FAF73CFE804602F05FF907460899FAF75D
:105930008DFE06465549FAF789FE05464FF07C5123
:10594000FAF72CFE0446FBF718F85149486049481D
:105950000068FBF70DF883464E49FAF777FE81465B
:105960004949FAF7A5FE804602F03EF90746089934
:10597000FAF76CFE06464549FAF768FE05464FF011
:105980007C51FAF70BFE0446FAF7F7FF42494860EC
:10599000424908693D49FAF759FE0546FAF7EDFF15
:1059A000044621463A48FFF7C6F900B20A903B493F
:1059B00048693649FAF74AFE0546FAF7DEFF04461B
:1059C00021463548FFF7B7F900B20990DDE9091023
:1059D00000F06EF800208AF8000130498869FBF772
:1059E00018F804460D462D490869FBF712F80646DB
:1059F0000F462A494869FBF70CF829A28DE8C30035
:105A0000CDE9044551460120FBF74EFC23490869C6
:105A1000FAF7B3FF00B2642100FB01F41F494869A3
:105A2000FAF7ABFF00B2642100FB01F518484068AB
:105A30001A49B1F90410CDE90654CDE9041017480C
:105A4000B0F902001549B1F90010144AB2F90A2060
:105A5000124BB3F90830CDE90032CDE902100F48FE
:105A6000B0F906300FA251460220FBF71DFC0BB027
:105A7000BDE8F08F8C0200200000A03E00003443FF
:105A8000DC0F4940E4CB964100409C440000C842F2
:105A900034020020DA0FC9406002002044040020D4
:105AA000666666006868686868686868680000001C
:105AB000002806DB104A106000220F4B08331A60E2
:105AC00006E042420C4B08331A6000220A4B1A606F
:105AD000002907DB084A0C3211600022064B1B1D0F
