:020000040800F2
:100000003806002001010008090100080B01000862
:100010000D0100080F010008110100080000000098
:1000200000000000000000000000000013010008B4
:100030001501000800000000170100081901000860
:100040001B0100081B0100081B0100081B01000820
:100050001B0100081B0100081B0100081B01000810
:100060001B0100081B0100081B010008910B000880
:10007000B10B0008D10B0008F10B0008110C0008AF
:10008000310C0008510C00081B0100081B0100087E
:100090001B0100081B0100081B0100081B010008D0
:1000A0001B0100081B0100081B0100081B010008C0
:1000B0001B010008052600081B0100081B010008A1
:1000C0001B0100081B0100081B0100081B010008A0
:1000D0001B0100081B0100081B0100081B01000890
:1000E0001B0100081B0100081B010008DFF80CD0F1
:1000F00000F004FC00480047353C000838060020AA
:100100000648804706480047FEE7FEE7FEE7FEE7B1
:10011000FEE7FEE7FEE7FEE7FEE7FEE765230008F1
:10012000ED00000810B5044604E00B7800F8013B30
:1001300003B1491C521EF8D2204610BDF0B480EA2B
:100140000102D40F4200B2EB410F02D20246084630
:1001500011464A0042D0C30DDDB2C1F3C752AD1AF9
:10016000202D35DAC1F3160141F4000204B15242E8
:10017000C5F1200602FA06F12A411044B3EBD05F24
:1001800023D0C4B1012DA0EBC35009DCF0BC4FF06B
:10019000004202EAC352DBB200F5000000F0D0B921
:1001A000400000F1807000EBC350A0F1807040EA85
:1001B000D170490009E0490841EAC071A0EBC35081
:1001C00000F50000400800EBC350F0BC00F0AFB9F0
:1001D0006142012202EB4101001BF6E7F0BC7047CF
:1001E00081F00041AAE780F00040A7E780EA010221
:1001F00010B502F00043400022D04A001FD0010E8B
:1002000001EB1261C0F35600C2F3560240F4000045
:1002100042F40002A0FB022000047F39140400D045
:10022000401C50EA124001D44000491EC2B20C06E4
:1002300004EBD010401C4008802A02D003E00020CC
:1002400010BD20F00100002900DA0020184310BD85
:1002500030B480EA010202F0004530F0004221F0A3
:10026000004013D090B1C30DD40DC2F31601C0F3FA
:100270001600E41A41F4000140F400027D3491427A
:1002800001D3641C00E04900002C02DA30BC0020DD
:1002900070474FF400000023914201D3891A0343B1
:1002A00040084FEA4101F7D151B1914202D14FF0DC
:1002B000004105E002D24FF0010101E06FF00101C1
:1002C00003EBC450284430BC00F031B92DE9FE4F97
:1002D00081EA030404F0004421F0004100944FF04F
:1002E000000B23F0004350EA01045ED052EA0304FD
:1002F0005BD0C3F30A54C1F30A552C44A4F2F3347F
:100300000194A0FB0254C1F3130141F48011C3F323
:10031000130343F4801301FB024400FB034E840AE1
:10032000970A44EA815447EA8357A4FB0768029579
:100330008D0A05FB07854FEA932C04FB0C54270517
:10034000029D4FEA065847EA1637B5EB08056EEBF3
:10035000070C870E920E47EA811742EA8312A7FB29
:100360000201B6EB0B0164EB00042B0D43EA0C33E6
:100370005E1844EB1C50DA465146E7FB0201C5F318
:1003800013044FEA0B3343EA14534FEA0432019C3F
:1003900043EA0603A4F10C040294009CCDE900B4E6
:1003A00000F017F903B0BDE8F08F00200146F9E72F
:1003B000C10F80EAE0700844CA079623002100F0CC
:1003C000BFB800F0004220F00040C10DC0F316009D
:1003D00040F400007F2901DA00207047962903DCF1
:1003E000C1F19601C84001E096398840002AF4D056
:1003F0004042704770B5C1F30A5201F00045002435
:10040000C1F3130140F2FF3341F480119A4201DA43
:10041000002070BD40F233439A42A2F2334203DC23
:10042000524200F074F800E090402C43F1D040427A
:1004300070BD00F0004230F000400AD0C10D01F55F
:100440006071C0F3160042EA0151C208400711432F
:100450007047002001467047002801DBC0F10040D2
:10046000002901DBC1F1004181427047002801DB16
:10047000C0F10040002901DBC1F100418842704712
:1004800030B50B46014600202022012409E021FA64
:1004900002F59D4205D303FA02F5491B04FA02F561
:1004A0002844151EA2F10102F1DC30BD2DE9F05FF8
:1004B0000546002092469B468846064681464024D3
:1004C0001BE0284641464746224600F020F85346A6
:1004D0005A46C01A914110D311461846224600F0E0
:1004E0001FFA2D1A67EB01084F4622460120002112
:1004F00000F016FA17EB00094E41201EA4F101048A
:10050000DFDC484631462A464346BDE8F09F202AB4
:1005100004DB203A21FA02F00021704721FA02F3AD
:10052000D040C2F12002914008431946704700298B
:10053000A8BF7047401C490008BF20F00100704769
:1005400010B4B0FA80FC00FA0CF050EA010404BFC9
:1005500010BC704749B1CCF1200421FA04F411FA1F
:100560000CF118BF012121430843A3EB0C01CB1D63
:100570004FEA00614FEA102042BF002010BC7047D4
:1005800000EBC35010440029A4BF10BC7047401CAE
:10059000490008BF20F0010010BC7047420005D0A0
:1005A000C0F3C7525242914201DC0020704700EB79
:1005B000C150704710B5141E73F1000408DA401CD6
:1005C00041F1000192185B411A4301D120F0010072
:1005D00010BD2DE9F04D92469B4611B1B1FA81F262
:1005E00002E0B0FA80F22032904600F099F9044619
:1005F0000F4640EA0A0041EA0B0153465A460843B7
:1006000013D0114653EA010019D0C8F140025046F8
:10061000FFF77DFF05460E4650465946424600F01C
:100620007FF9084305D0012004E020463946BDE8A3
:10063000F08D0020054346EAE0762C4337430A98C4
:100640006305E40AA0EB08000022FD0A44EA4754CF
:100650000A3002D500200146E9E701051019694179
:10066000DDE9084500196941BDE8F04DA2E72DE933
:10067000FE4F804681EA0300C00F0C46009021F037
:10068000004123F00045B8EB0200A94105D24046E5
:10069000214690461C460B46024623F0004010437C
:1006A00047D0270DC7F30A00C3F30A510290401A3E
:1006B000019040286BDAC3F3130040F4801B0098CC
:1006C000924620B10023D2EB030A63EB0B0B019897
:1006D0005946C0F14002504600F022F906460D4648
:1006E00050465946019A00F02AF910EB0800614182
:1006F000002487EA115284EAE7731A4340D0009A33
:1007000062B3019A012A4FEA075215DC001B61EB24
:1007100002014FF0004202EA0752CDE90042001CFC
:1007200041F5801132462B46FFF753FF03B0BDE879
:10073000F08F40462146F9E7001B61EB0201001CE7
:1007400041F5801300185B412018A2F5001747EB14
:10075000030140EAD570B6196D4111E06D084FEA0A
:10076000360645EAC0754FEA0752001B61EB0201ED
:10077000001C41F5801149084FEA30000019514131
:1007800032462B4603B0BDE8F04FFFF713BF009889
:10079000012240000023D0EB020263EBE0730098DB
:1007A00021464FEAE074B8EB000061EB0401E9E791
:1007B00083F000435BE781F0004158E72DE9F04DFD
:1007C00081EA030404F0004B21F0004514464FF089
:1007D000000A23F0004150EA050220D054EA010249
:1007E0001DD0C5F30A570246C5F31303C1F3130026
:1007F000C1F30A5640F4801543F48013A7EB0608B2
:10080000101BD64608F2FD3873EB050002D308F141
:10081000010801E092185B41B8F1000F03DA0020F3
:100820000146BDE8F08D00204FF480110646844655
:100830000EE0171B73EB050705D3121B63EB0503D3
:1008400006434CEA010C49084FEA300092185B411C
:1008500050EA0107EDD152EA030012D082EA040007
:1008600083EA0501084305D0101BAB4106D20122E3
:10087000002306E000224FF0004302E06FF0010287
:1008800053101AEB06004CEB085110EB0A0041EB39
:100890000B01BDE8F04DFFF78DBEC1F30A52C1F365
:1008A000130140F2FF3341F480119A4202DA002032
:1008B0000146704740F233439A42A2F2334202DCCF
:1008C0005242FFF724BE00F02BB8000030B5041EE2
:1008D00071F1000404DB4FF00044404264EB01017D
:1008E000141E73F1000405DB1C464FF00043524216
:1008F00063EB0403994208BF904230BD064C074D9C
:1009000006E0E06840F0010394E8070098471034DF
:10091000AC42F6D3FFF7EEFB4C4700086C470008EB
:10092000202A04DB203A00FA02F1002070479140AF
:10093000C2F1200320FA03F3194390407047202AA4
:1009400006DBCB17203A41FA02F043EAE07306E0F7
:1009500041FA02F3D040C2F1200291400843194607
:100960007047F0B4002802DCF0BC00207047C0F3F0
:10097000C751C0F3160040F40000CA0701D140007F
:10098000491E3F2202EB6105002211464FF400068A
:1009900026FA01F31344D418844201D8001B1A46E6
:1009A0004000491C1729F3DD5100814202D24FF06B
:1009B000FF3100E0002102EBC550F0BCFFF7B7BDEE
:1009C0000FB42DE9FC4782460C4694F800910DA81F
:1009D00001902046524690F800311918AA230B7056
:1009E00090F8013113B901234B7002E090F8013106
:1009F0004B70AF238B70CA7090F800315B1D80F88C
:100A0000003100BF5CE00C9810F8011B0C906629C7
:100A10002BD004DC63291DD0642950D10FE0682954
:100A200002D075294BD139E0019830F8041B0190B0
:100A300008B200906946204600F099F83FE001981E
:100A4000006800900198001D01906946204600F062
:100A500070F834E0019810F8041B0190C8B20090BF
:100A60006946204600F05CF829E00198C01D20F09E
:100A700007000190D0E90071019A0832019200222A
:100A8000264B3846FFF722FC0546FFF7B3FC00B2C1
:100A900000906946204600F06AF810E0019802C80C
:100AA000019001EBC10000EB01104FF6FF7101EA6C
:100AB000800000906946204600F059F800BF00BF52
:100AC0000C98007800289ED120464946002390F8D3
:100AD0000021521F521AD5B20A1D85540A4604E05D
:100AE000855C1D44EBB2551CEAB290F8005195426A
:100AF000F6D190F800516A1C80F80021435500BFE0
:100B00000020019094F80001A0EB090000F0FF091B
:100B10004846BDE8FC075DF814FB000000005940A2
:100B200010B50B7890F80041621C80F80021035545
:100B300010BD10B5CB7890F80041621C80F8002100
:100B400003558B7890F80041621C80F80021035512
:100B50004B7890F80041621C80F8002103550B7817
:100B600090F80041621C80F80021035510BD10B5BB
:100B70004B7890F80041621C80F8002103550B78F7
:100B800090F80041621C80F80021035510BD7047A9
:100B900010B50548006800F00F0403484460204683
:100BA000FFF7F5FF10BD0000000002407047000095
:100BB00010B505480068C0F30314200102494860DD
:100BC0002046FFF7F3FF10BD000002407047000011
:100BD00010B505480068C0F30324200202494860AC
:100BE0002046FFF7F3FF10BD0000024070470000F1
:100BF00010B505480068C0F303342003024948607B
:100C00002046FFF7F3FF10BD0000024070470000D0
:100C100010B505480068C0F3034420040249486049
:100C20002046FFF7F3FF10BD0000024070470000B0
:100C300010B505480068C0F3035420050249486018
:100C40002046FFF7F3FF10BD000002407047000090
:100C500010B505480068C0F30364200602494860E7
:100C60002046FFF7F3FF10BD0000024021B10268EB
:100C700042F00102026004E002684FF6FE731A407F
:100C80000260704701684FF6FE721140016000215A
:100C9000016041608160C1604B49884208D14A4986
:100CA0000839496841F00F01474A083A51608AE023
:100CB00045491431884208D143490839496841F00F
:100CC000F001414A083A51607DE03F4928318842AD
:100CD00008D13D490839496841F470613A4A083AF7
:100CE000516070E038493C31884208D136490839B2
:100CF000496841F47041344A083A516063E032492E
:100D00005031884208D130490839496841F470218E
:100D10002D4A083A516056E02B496431884208D187
:100D200029490839496841F47001274A083A516055
:100D300049E025497831884208D123490839496872
:100D400041F07061204A083A51603CE01F498842F6
:100D500006D1011F096841F00F01021F116032E046
:100D60001A491431884208D11849091F096841F00D
:100D7000F001164A121F116025E0144928318842FB
:100D800008D11249091F096841F470610F4A121F06
:100D9000116018E00D493C31884208D10B49091F08
:100DA000096841F47041094A121F11600BE00749BC
:100DB0005031884207D10549091F096841F4702163
:100DC000024A121F116070470800024008040240E6
:100DD00010B50022026847F6F0739A430C6A8B68DC
:100DE00023430C6923434C6923438C692343CC6917
:100DF00023434C6A23438C6A23431A430260CB6823
:100E000043600B6883604B68C36010BD41607047EE
:100E100010B50848006840F080700649086000205E
:100E200000F012F80448006840F001000249086030
:100E300010BD0000FCED00E0001000E0014840683B
:100E400070470000001000E0014948607047000052
:100E5000001000E000B587B00121084601F024F938
:100E60000121042001F030F90320ADF80000042036
:100E70008DF8030069461B4800F080F804A801F0D3
:100E800095FE0020ADF810004FF6FF70ADF814008D
:100E90000020ADF81600ADF8120004A94FF0804014
:100EA00001F032FE00231A4603214FF0804001F08A
:100EB000C0FC01A801F046FD0A20ADF80C0001A914
:100EC000400701F0E9FC0121880701F091FC0021B5
:100ED0004FF0804001F0E9FD0121880701F08EFC10
:100EE00007B000BD0008014000B587B00121042013
:100EF00001F0DAF80121082001F0E6F8C020ADF891
:100F0000000004208DF8030069461A4800F036F806
:100F100004A801F04BFE0020ADF810004FF6FF7062
:100F2000ADF814000020ADF81600ADF8120004A9C9
:100F3000114801F0E9FD00231A4603210E4801F093
:100F400078FC01A801F0FEFC0A20ADF80C0001A914
:100F5000094801F0A1FC0121074801F049FC0021EA
:100F6000054801F0A2FD0121034801F047FC07B04C
:100F700000BD0000000C0140000800402DE9F041D8
:100F8000024600250026002000230024002791F8B7
:100F900003C00CF00F0591F803C00CF0100CBCF16D
:100FA000000F03D091F802C04CEA050591F800C08B
:100FB000BCF1000F31D0146800202BE04FF0010C81
:100FC0000CFA00F3B1F800C00CEA03069E4220D1EF
:100FD00083004FF00F0C0CFA03F7BC4305FA03FC37
:100FE0004CEA040491F803C0BCF1280F06D14FF07D
:100FF000010C0CFA00FCC2F814C00AE091F803C01E
:10100000BCF1480F05D14FF0010C0CFA00FCC2F8FE
:1010100010C0401C0828D1D31460B1F800C0BCF146
:10102000FF0F34DD546800202EE000F1080C4FF073
:10103000010808FA0CF3B1F800C00CEA03069E425E
:1010400021D183004FF00F0C0CFA03F7BC4305FAD3
:1010500003FC4CEA040491F803C0BCF1280F05D14D
:1010600000F1080C08FA0CF8C2F8148091F803C0DB
:10107000BCF1480F07D100F1080C4FF0010808FA45
:101080000CF8C2F81080401C0828CED35460BDE88C
:10109000F0810000F0B50A4600230024002100255D
:1010A00000F00046B6F1004F02D11D4EF16901E09B
:1010B0001B4E7168C0F3034583B200F44016B6F5C9
:1010C000401F08D121F07061154E766826F07066D9
:1010D000134F7E6012E000F48016B6F5801F06D133
:1010E000032606FA05F4A14341F0706106E0460DBF
:1010F000360103FA06F6B14341F0706122B1460DA4
:10110000360103FA06F6314300F00046B6F1004F0F
:1011100002D1034EF16101E0014E7160F0BD0000AB
:10112000000001400246002093680B400BB10120F3
:1011300000E0002070474161704701617047000086
:1011400010B500200A490860012002F0CBFC012004
:101150000849C1F8A00102F0C5FC00200449091F9C
:10116000086001200349C1F8A40102F0BBFC10BDD6
:10117000A48121420080214210B501200849086065
:1011800002F0B0FC01200749C1F8A00102F0AAFC5E
:1011900000200349091F0860012002F0A3FC10BDD4
:1011A000A48121420080214270B5002514E0012075
:1011B00002F098FC6006040E01200B49086002F062
:1011C00091FC0A48D0F8240108B1601CC4B2002088
:1011D00005490860681CC5B2082DE8DB012002F053
:1011E00081FC204670BD0000A08121420080214288
:1011F00070B5044600251DE004F0800018B1012000
:101200000E49086002E000200C490860012002F04D
:1012100069FC01200949091F086002F063FC0020F5
:101220000749C1F8A0016006040E012002F05AFC33
:10123000681CC5B2082DDFDB70BD0000A48121420F
:101240000080214210B501201249086002F04AFCDA
:101250001148D0F8240108B9002010BD01200D4923
:10126000091F086002F03EFC00200B49C1F8A401F0
:10127000012002F037FC07488038006808B10020E0
:10128000EBE700200349091F0860012002F02AFC57
:101290000120E2E7A48121420080214210B5002014
:1012A00008490860012002F01DFC01200649C1F830
:1012B000A00102F017FC01200249086002F012FCB4
:1012C00010BD0000A48121420080214210B5012000
:1012D0000D4908600D49C1F8A00102F003FC00248B
:1012E0000BE009488038006828B900200649091F2A
:1012F0000860012010BD601CC4B2322CF1DB01205B
:1013000002F0F0FB0020F5E7A48121420080214299
:1013100001B59AB04FF080401990FE4818904FF0F8
:101320007C511A98FEF762FF179002F0D9FD10B9B0
:1013300000201BB000BDF848C08828B1F6480089DD
:1013400010B1F548408908B90020F2E7F248B0F939
:1013500000000690FFF72CF8F0490790FEF746FFD3
:10136000EF490890FEF742FF1090EB48B0F90200F9
:101370000690FFF71DF8E9490790FEF737FFE849A7
:101380000890FEF733FF1190E348B0F9040006908F
:10139000FFF70EF8E1490790FEF728FFE0490890B3
:1013A000FEF724FF1290DC48B0F906004043DA490A
:1013B000B1F90820B1F9081002FB0101D648B0F9D3
:1013C0000A20B0F90A0002FB00100790FEF7F0FFB8
:1013D000089002F009FC1690CF48B0F9060007907B
:1013E000FEF7E6FF08901699FEF700FF1390CA4833
:1013F000B0F908000790FEF7DBFF08901699FEF79A
:10140000F5FE1490C448B0F90A000790FEF7D0FF2B
:1014100008901699FEF7EAFE159015980690C148B7
:1014200001680698FEF7E2FE089014980690BE4800
:1014300001680698FEF7DAFE07900899FEF7D0FEDD
:101440000F9013980690B84801680698FEF7CEFEF4
:10145000089015980690B54801680698FEF7C6FEF4
:1014600007900899FEF7BCFE0E9014980690AF48BE
:1014700001680698FEF7BAFE089013980690A948EE
:1014800001680698FEF7B2FE07900899FEF7A8FEDD
:101490000D90A0480F99FEF7A9FE07901A99FEF744
:1014A000A5FE0890A24801680898FEF747FEA049EB
:1014B000086098480E99FEF799FE07901A99FEF772
:1014C00095FE08909B4801680898FEF737FE9949F9
:1014D000086090480D99FEF789FE07901A99FEF76B
:1014E00085FE0890944801680898FEF727FE924907
:1014F00008604FF080400F99FEF778FE07908C4807
:1015000001680798FEF71AFE0890109801460790A8
:101510000898FEF713FE10904FF080400E99FEF7EA
:1015200065FE0790834801680798FEF707FE08905C
:101530001198014607900898FEF700FE11904FF0B1
:1015400080400D99FEF752FE07907B48016807988E
:10155000FEF7F4FD08901298014607900898FEF7F0
:10156000EDFD1290129804907448C068039004999D
:10157000FEF73CFE0690119802907048806801903A
:101580000299FEF733FE04906C48406880F00040FA
:1015900002901098014601900298FEF727FE0390F2
:1015A0000499FEF71DFE05900699FEF719FE0790B7
:1015B0001799FEF71BFE08906048006801460790E7
:1015C0000898FEF7BBFD5D49086011980490084635
:1015D000C06803900499FEF709FE069012980290E5
:1015E0005648806801900299FEF700FE049010981A
:1015F00002905248006801900299FEF7F7FD0390AF
:101600000499FEF79BFD05900699FEF7E9FD07900A
:101610001799FEF7EBFD089048484068014607908F
:101620000898FEF78BFD45494860109804900846DD
:10163000C06803900499FEF7D9FD069012980290B5
:101640003E48406801900299FEF7D0FD0490119841
:1016500002903A48006801900299FEF7C7FD039096
:101660000499FEF7BDFD05900699FEF767FD07900A
:101670001799FEF7BBFD0890304880680146079037
:101680000898FEF75BFD2D49886010980490084685
:10169000806803900499FEF7A9FD069011980290C6
:1016A0002648406801900299FEF7A0FD0490129828
:1016B00002902248006801900299FEF797FD03907E
:1016C0000499FEF73BFD05900699FEF789FD07900A
:1016D0001799FEF78BFD08901848C06801460790DF
:1016E0000898FEF72BFD1549C8600846C0680590AC
:1016F0000846C06804900599FEF778FD07900F48EA
:10170000806803900D48806802900399FEF76EFD93
:10171000059015E06F12033BEC01002000007A3DBC
:1017200035FA8E3C20000020240000201C00002000
:101730002C00002030000020340000200400002095
:101740007B48406801907A48406800900199FEF714
:101750004DFD039076480068019075480068009040
:101760000199FEF743FD02900399FEF7E7FC049010
:101770000599FEF7E3FC06900799FEF7DFFC089059
:1017800002F032FA16906A48006808901699FEF73F
:101790002DFD674908600846406808901699FEF7D5
:1017A00025FD634948600846806808901699FEF751
:1017B0001DFD5F4988600846C06808901699FEF7CD
:1017C00015FD5B49C8600846006808900846006837
:1017D00007900899FEF70AFD0C905548406808905C
:1017E0005348406807900899FEF700FD0B90504859
:1017F000806808904E48806807900899FEF7F6FCCC
:101800000A904B48C06808904948C06807900899FA
:10181000FEF7ECFC0990DDE90B10FEF78FFC07905A
:101820000A99FEF7DDFC08900999FEF7D9FC4149B9
:1018300008603F48C06805903D48006804900599DD
:10184000FEF7D4FC07903A48806805903848406815
:1018500004900599FEF7CAFC06900799FEF76EFC06
:101860004FF080410890FEF7C1FC334908603048D2
:10187000806805902E48006804900599FEF7B6FC34
:1018800007902B48C0680590294840680490059946
:10189000FEF7ACFC06900799FEF7A2FC4FF08041E2
:1018A0000890FEF7A3FC254908602148C068059010
:1018B0001F48806804900599FEF798FC07901C4823
:1018C000406805901A48006804900599FEF78EFC60
:1018D00006900799FEF732FC4FF080410890FEF722
:1018E00085FC17490860DDE90B10FEF779FC0790CD
:1018F0000A99FEF775FC08900999FEF71FFC11493B
:1019000008604FF07E510D480068FEF7AFFD03D22E
:101910004FF07E50094908600B4908480068FEF7FF
:101920009BFD02D2084805490860012001E500003E
:101930000400002014000020180000201C000020DB
:101940002000002024000020000080BF10B500F01F
:101950000FF8002141F61F4000F06CF800F0BEF8CF
:10196000FFF778FAFFF7C0FA01F056F910BD000052
:1019700008B5002000904FF470412C48FFF7DBFBC6
:101980004FF400412A48FFF7D8FB4FF44E71274827
:10199000FFF7D3FB0121042000F096FB0121082072
:1019A00000F092FB2020ADF8000048208DF80300E5
:1019B00069461F48FFF7E2FA4FF23800ADF8000021
:1019C00010208DF8030003208DF8020069461748A7
:1019D000FFF7D4FA4FF40040ADF8000010208DF866
:1019E000030003208DF8020069461148FFF7C6FA8C
:1019F0004FF48070ADF8000014208DF80300032030
:101A00008DF8020069460948FFF7B8FA4FF40070F4
:101A1000ADF8000014208DF8030003208DF80200BB
:101A200069460248FFF7AAFA08BD0000000C014011
:101A30000008014030B589B005460C460121C802B6
:101A400000F042FB0121042000F03EFB4FF4106047
:101A5000ADF8200018208DF8230003208DF8220017
:101A600008A91C48FFF78AFAADF81850ADF81440E1
:101A70000020ADF81A00ADF8160005A9164801F0CF
:101A800043F86020ADF804000120ADF80600002006
:101A9000ADF80A00ADF80C0001A90F4800F064FF92
:101AA00001A90D4800F0B6FF01210B4800F0B2FE7D
:101AB0000821094800F0A4FF0821074800F0E8FFCA
:101AC0000121054800F088FE0021034800F096FE41
:101AD00009B030BD00080140002C01401FB50121B4
:101AE000022000F0E1FA0020ADF8060041F2873054
:101AF000ADF808004720ADF804000020ADF80A005A
:101B000001A9114801F000F8012211460E4800F029
:101B100022FF012240210C4800F01DFF1D208DF8FE
:101B2000000001208DF803008DF801008DF80200FF
:101B30000021054800F062FE0121034800F05BFE31
:101B4000684600F003F81FBD0004004070B5002196
:101B500000230F22C47804B3154C246804F4E06415
:101B6000C4F5E064210AC1F10403CA40447804FAD0
:101B700003F184781440214309010E4C0678A155E5
:101B8000047804F01F050124AC4005786D11AD0008
:101B900005F1E025C5F8004109E0047804F01F05CF
:101BA0000124AC40044D0678761145F8264070BDFE
:101BB0000CED00E000E400E080E100E002490143B8
:101BC000024A1160704700000000FA050CED00E0C9
:101BD00010B500200949087009490870002404E084
:101BE000202000F0D1F8601CC4B2402CF8DB0020AB
:101BF000024908700249087010BD0000380000203A
:101C00003900002010B500202B490860642001F045
:101C10004FFF01202949C1F88C01AE2000F02AF9BC
:101C2000D52000F027F9502000F024F9A82000F07A
:101C300021F93F2000F01EF9D32000F01BF900200D
:101C400000F018F9402000F015F98D2000F012F98D
:101C5000142000F00FF9202000F00CF9022000F011
:101C600009F9A12000F006F9C02000F003F9DA20FC
:101C700000F000F9122000F0FDF8812000F0FAF8E1
:101C8000EF2000F0F7F8D92000F0F4F8F12000F090
:101C9000F1F8DB2000F0EEF8302000F0EBF8A420A3
:101CA00000F0E8F8A62000F0E5F8AF2000F0E2F838
:101CB000FFF78EFF10BD00008C8121420080214281
:101CC0000FB430B587B004460D460DA80190112120
:101CD00002A8019B0C9A01F06FF802AA294620463F
:101CE00000F020F807B030BC5DF814FB70B5054675
:101CF0000026002410E0285D7F2802DD601CC4B2AD
:101D000008E0285D00F040F8401C10B1701CC6B21D
:101D100000E004E0601CC4B2285D0028EBD100BFE5
:101D2000304670BD2DE9F04786B007460C46154693
:101D3000134890F80080134890F8009021463846E8
:101D400000F086F8C0B1C4F11000C6B23246294690
:101D500001A8FEF7E7F9002001A9885501A8FFF7BF
:101D6000C5FF8246064880F80080064880F800904B
:101D7000504606B0BDE8F0874FF0FF30F9E70000AD
:101D800038000020390000202DE9F041064600BF50
:101D9000A6F12000C7B27E2F02DD0020BDE8F08151
:101DA000284800EB071828480078102807DB002097
:101DB0002549087025480078401C244908702348AC
:101DC0000078042802DB4FF0FF30E7E700242DE025
:101DD00044B91E490978B722A2EB4101C8B200F00C
:101DE00049F807E019490978B622A2EB4101C8B2C7
:101DF00000F040F8144909780F2202EAC10000F00F
:101E000039F811490978C900102242EA211000F07E
:101E100031F8002506E008EBC401485D00F04CF8FD
:101E2000681CC5B2082DF6DB601CC4B2022CCFDBE7
:101E300005480078401C0449087000BF00BF00BF7F
:101E40003046ABE75C410008380000203900002034
:101E50000246102901DA042A01DB002070470348FA
:101E60000170034802700120F8E7000038000020EC
:101E70003900002000220E4B1A60002114E00022DD
:101E80000C4B1A6000F080021AB101221B1F1A606D
:101E900003E00022074B1B1F1A600122054B1A604A
:101EA0004206100E4A1CD1B20829E8DB7047000038
:101EB000BC0121429481214201220E4B1A60002173
:101EC00014E000220C4B1A6000F080021AB10122CB
:101ED0001B1F1A6003E00022074B1B1F1A60012220
:101EE000054B1A604206100E4A1CD1B20829E8DBE5
:101EF00070470000BC012142948121422DE9F0414C
:101F000004460E46A088801B05B26069291AE1616B
:101F10006561A0694119A161204600F040F860693F
:101F2000FEF746FA8046A168FEF760F90746FEF71D
:101F300048FA2062A069FEF73BFA8046E168FEF7A6
:101F400055F90746FEF73DFA6062E069FEF730FAA0
:101F500080462169FEF74AF90746FEF732FAA06289
:101F6000204600F002F8BDE8F08110B50446207864
:101F700050B9D4E908210A44A16A501841F65832F0
:101F8000514201F089FD10BDD4E908210A44A16A3B
:101F9000501841F65832514201F07EFDF3E710B57A
:101FA0000446207810B101281ED116E0606800F6C2
:101FB000B8306169814205DC6068A0F6B8306169BB
:101FC000814202DA0021A16106E043F698225142E3
:101FD000A06901F061FDA06106E042F21072514279
:101FE000A06901F059FDA06100BF10BD2DE9F041CD
:101FF00004460D4616466068401B6061D4E9051032
:102000000144A1617142E1612046FFF7C8FF6069A8
:10201000FEF7CEF98046A168FEF7E8F80746FEF71E
:10202000D0F92062A069FEF7C3F98046E168FEF7A7
:10203000DDF80746FEF7C5F96062E069FEF7B8F91A
:1020400080462169FEF7D2F80746FEF7BAF9A0628A
:102050002046FFF78AFFBDE8F081000070B5049CC0
:10206000084D2D780570074D2D786D1C054E357087
:1020700041608260C360046100254561002686617D
:10208000C66170BD3A00002029B1064A5269024378
:10209000044B5A6104E0034A52698243014B5A617E
:1020A000704700000010024029B1064AD26902437D
:1020B000044BDA6104E0034AD2698243014BDA61DE
:1020C000704700000010024029B1064A926902439D
:1020D000044B9A6104E0034A92698243014B9A617E
:1020E000704700000010024030B50021002200249B
:1020F00000232D4D6D6805F00C0121B1042905D098
:10210000082923D105E0294D056022E0274D05600F
:102110001FE0254D6D6805F47012234D6D6805F4C0
:102120008034022505EB92421CB9214D55430560D0
:102130000BE01D4D6D6805F400351DB11C4D554378
:10214000056002E0194D5543056002E0174D05603A
:1021500000BF00BF144D6D6805F0F0010909154D71
:102160006B5C0568DD4045600F4D6D6805F4E0610E
:10217000090A104D6B5C4568DD4085600A4D6D684D
:1021800005F46051C90A0B4D6B5C4568DD40C560C4
:10219000054D6D6805F44041890B074D6B5CC568C2
:1021A000B5FBF3F5056130BD0010024000127A0066
:1021B00000093D003B0000204B00002001460229A1
:1021C00004D003290BD0042917D10FE04FF080422F
:1021D000928C10B200224FF080439A840FE0094A9B
:1021E000128810B20022074B1A8008E0064A1288B3
:1021F00010B20022044B1A8001E0002000BF00BF93
:1022000070470000240400402408004010B500F08E
:1022100001F810BD0CB50020019000903348006813
:1022200040F480303149086000BF3048006800F455
:10223000003000900198401C0190009818B9019856
:10224000B0F5A06FF1D12948006800F4003010B15A
:102250000120009001E0002000900098012843D167
:102260002348006840F010002149086008460068D3
:1022700020F0030008600846006840F00200086093
:102280001A4840681949486008464068486008464E
:10229000406840F4806048600846406820F47C1044
:1022A00048600846406840F4E81048600846006806
:1022B00040F08070086000BF0C48006800F00070BB
:1022C0000028F9D00948406820F003000749486019
:1022D0000846406840F00200486000BF034840687C
:1022E00000F00C000828F9D10CBD000000100240DD
:1022F00000200240002809DD0022174B1A6001224D
:10230000164BC3F8B821164B188009E00122124B76
:102310001A600022114BC3F8B8214242104B1A80B8
:1023200000290BDD00220C4B083B1A6001220B4BED
:10233000C3F8B0210A4B0C3319800BE00122064B85
:10234000083B1A600022054BC3F8B0214A42044BF7
:102350000C331A8070470000BC812142008021426A
:10236000342C014010B51348006840F001001149B9
:10237000086008464068104908400E494860084611
:1023800000680E4908400B4908600846006820F4C0
:10239000802008600846406820F4FE0048604FF442
:1023A0001F008860FFF732FF4FF0006004490860AB
:1023B00010BD0000001002400000FFF8FFFFF6FE15
:1023C00008ED00E0F0B50C46154600220021068C11
:1023D0004FF6FE773E400684028B018C4FF60C765A
:1023E00032407E1C06EA03162E433243104EB042A2
:1023F0000ED0104EB0420BD0B0F1804F08D00E4E30
:10240000B04205D00D4EB04202D00D4EB04206D1C2
:102410004FF6FD76314044F00106314305E04FF6BA
:10242000F576314044F00106314302830184F0BD6A
:10243000002C01400034014000040040000800402E
:10244000000C0040F0B50C46154600220021002685
:10245000078C4FF6EF7C07EA0C070784028B018C90
:102460004FF6FF7707EA041640F6FF473A404FF66B
:10247000FF7707EA03373A434FF6FF7707EA052766
:102480003A43114FB8420ED0104FB8420BD0B0F1C2
:10249000804F08D00E4FB84205D00E4FB84202D040
:1024A0000D4FB84206D14FF6DF77394046F010079E
:1024B000394305E04FF65F77394044F01007394360
:1024C00002830184F0BD0000002C01400034014073
:1024D0000004004000080040000C0040F0B50C462D
:1024E0001546002200210026078C4FF6FF6C07EAF4
:1024F0000C070784828B018C4FF6FF7707EA0426CE
:102500004FF60C773A404FF6FF7707EA03172F4351
:102510003A43114FB8420ED0104FB8420BD0B0F131
:10252000804F08D00E4FB84205D00E4FB84202D0AF
:102530000D4FB84206D14FF6FF57394046F4807729
:10254000394305E04FF2FF57394044F4807739436F
:1025500082830184F0BD0000002C01400034014062
:102560000004004000080040000C0040F0B50C469C
:102570001546002200210026078C4EF6FF7C07EA54
:102580000C070784828B018C4FF6FF7707EA04362D
:1025900040F6FF473A404FF6FF7707EA05273A43F0
:1025A0004FF6FF7707EA03373A43114FB8420ED090
:1025B000104FB8420BD0B0F1804F08D00E4FB84248
:1025C00005D00E4FB84202D00D4FB84206D14DF69D
:1025D000FF77394046F48057394305E047F6FF5707
:1025E000394044F48057394382830184F0BD0000B0
:1025F000002C01400034014000040040000800406D
:10260000000C00402DE9F04F89B00121654800F031
:1026100031F900287DD04FF0000B0020089062486F
:10262000FEF776FE614801F03BFD6048001F01F0B7
:1026300067FD5E48103801F029FD00205C4981F8F3
:1026400000015A4910398869FDF7F3FE04460D462A
:10265000564910390869FDF7ECFE06460F46534906
:1026600010394869FDF7E5FE52A28DE8C300CDE9B7
:1026700004454F490120FEF7A3F94C481038B0F942
:1026800004004A491039B1F90210484A103AB2F927
:102690000020464B103BB3F90A30CDE90132CDE9B9
:1026A000031042481038B0F9080000903F48103835
:1026B000B0F9063040A23E490220FEF781F93C48BD
:1026C00090F800113E48FEF7A1FB012280213D4811
:1026D00000F0FCFA3549103948693B49FDF786FDA1
:1026E0000546FDF76EFE044630481038B0F900206C
:1026F00021463648FFF77AFC0FFA80FB0220FFF7ED
:102700005DFD00B207900420FFF758FD00B206906F
:1027100000E044E0DDE9062081182D48FFF7EEFBDC
:1027200000B2089008990BEB010041F65832514273
:1027300001F0B2F90FFA80FA51465046FFF7DAFD80
:102740002249496841F294128818FDF731FE044687
:102750001649103948691C49FDF748FD05462146D0
:10276000FDF784FE12D319494968A1F588509438C1
:10277000FDF71EFE04460D49103948691249FDF760
:1027800035FD05462146FDF767FE03D200211148BD
:1027900000F034F80121034800F02DF800BF09B023
:1027A000BDE8F08F000400400AD7A33B780000206A
:1027B00090000020666666006868686868680000C7
:1027C0001C000240004800400000C8429401002064
:1027D000C0010020002C014021B1028842F080029B
:1027E000028004E002884FF67F731A40028070472F
:1027F000CA4302827047CA430282704721B10288ED
:1028000042F00102028004E002884FF6FE731A4093
:102810000280704731B1B0F8442042F40042A0F881
:10282000442005E0B0F84420C2F30E02A0F8442092
:102830007047F0B50C4615461E46002100220023C5
:102840000189028B038C4FF6F877394021434FF60C
:10285000FC473A4040F201173A434FF6DD773B40E0
:102860004FF6FF7707EA06172F433B4301810283A8
:102870000384F0BD30B50246002000230024158AF1
:1028800005EA0103958905EA010413B10CB10120A1
:1028900000E0002030BD000070B505460C4624481D
:1028A00085420ED0234885420BD0B5F1804F08D029
:1028B0002148854205D02148854202D020488542E2
:1028C00000D100E000BF208850B92389A288618828
:1028D0002846FFF777FDE188284600F0E8F825E074
:1028E000208804280AD12389A28861882846FFF716
:1028F000A9FDE188284600F0E3F817E020880828C1
:102900000AD12389A28861882846FFF7E7FDE1887C
:10291000284600F0E2F809E02389A2886188284669
:10292000FFF724FEE188284600F0E0F870BD0000C3
:10293000002C014000340140000400400008004029
:10294000000C004000210180418001218180002194
:10295000C180018170471AB183890B43838102E0F2
:1029600083898B438381704770B500240022002344
:10297000058C4FF6FE7635400584028C8388048BE7
:102980004FF68F752C40B51E2C400D882C43751EBC
:102990002A400D892A434D882A43144DA8420BD062
:1029A000134DA84208D0134DA84205D0124DA8429D
:1029B00002D0124DA84213D14FF6F7752A404D8927
:1029C0002A434FF6FB752A408D882A434FF6FF6550
:1029D0002B404FF6FF552B408D892B43CD892B4340
:1029E00083800483CD888586028470BD002C0140DD
:1029F00000340140004001400044014000480140D3
:102A00000A460021018B4FF6F773194011430183E9
:102A10007047000070B5002200230024058C4EF69C
:102A2000FF7635400584038C8488828B48F6FF75D9
:102A30002A404FF6FF452A400D884FF6FF7606EAFA
:102A400005252A434DF6FF752B400D8906EA05350D
:102A50002B434D8806EA05352B430B4DA84202D087
:102A60000A4DA84208D14BF6FF752C408D894FF6D0
:102A7000FF7606EA85152C4384808283CD88A0F8F2
:102A80004050038470BD0000002C01400034014020
:102A90000A460021818B4FF2FF7319404FF6FF73F6
:102AA00003EA022319438183704781847047028BB4
:102AB0004FF6F3731A400283028B0A430283704776
:102AC000028B4FF2FF331A400283028B4FF6FF73E3
:102AD00003EA01231A4302837047828B4FF6F37394
:102AE0001A408283828B0A4382837047828B4FF223
:102AF000FF331A408283828B4FF6FF7303EA012370
:102B00001A43828370470000002202881D4B9842BE
:102B10000ED01D4B98420BD0B0F1804F08D01B4B0C
:102B2000984205D01A4B984202D01A4B984204D1D1
:102B30004FF68F731A404B881A43174B984207D0B1
:102B4000164B984204D04FF6FF431A40CB881A43E5
:102B500002808B8883850B8803850A4B98420BD0B3
:102B6000094B984208D00E4B984205D00D4B984225
:102B700002D00D4B984201D10B7A03860123838248
:102B800070470000002C0140003401400004004068
:102B900000080040000C00400010004000140040FD
:102BA0000040014000440140004801404FF6FF71E1
:102BB000818000210180C180418001727047000046
:102BC00010B58CB0044601210846FFF75DFA1048A5
:102BD000FEF758F80F48019002941020039000016E
:102BE0000490002005908020069000200790089017
:102BF00020200990C0010A9000200B9001A90448F0
:102C0000FEF7E6F801210248FEF730F80CB010BDDF
:102C10001C0002400448004000B587B00121082094
:102C2000FFF752FA01218804FFF73EFA4FF4806063
:102C3000ADF8180003208DF81A0018208DF81B003D
:102C400006A91A48FEF79AF94FF40060ADF818008B
:102C500004208DF81B0006A91448FEF78FF92720E1
:102C60008DF8040000208DF8050001208DF8060085
:102C70008DF8070001A8FEF769FF4FF4E1300290DC
:102C80000020ADF80C00ADF80E00ADF81000ADF866
:102C900014000C20ADF8120002A9054800F020F83D
:102CA0000121034800F006F807B000BD000C014008
:102CB0000048004021B1828942F40052828104E040
:102CC00082894DF6FF731A40828170471AB1838A58
:102CD0000B43838202E0838A8B4383827047000028
:102CE0002DE9F04786B005460E460024A24600BFF7
:102CF000A1460027B08900B100BF2F462C8A4CF6B0
:102D0000FF700440F08804432C82AC894EF6F31027
:102D10000440B08831890843718908430443AC8179
:102D2000AC8A4FF6FF400440B0890443AC8201A84E
:102D3000FFF7DAF91F48874202D1DDF810A001E061
:102D4000DDF80CA0A88900F4004040B10AEBCA00ED
:102D500000EB0A1031684900B0FBF1F807E00AEB1C
:102D6000CA0000EB0A1031688900B0FBF1F864205A
:102D7000B8FBF0F004012009642101FB1089A88947
:102D800000F4004040B1322000EBC900B0FBF1F08C
:102D900000F00700044308E0322000EB0910642132
:102DA000B0FBF1F000F00F0004432C8106B0BDE849
:102DB000F0870000003801407CB5044600201D4625
:102DC000164600290BD0491ECDE90041044B6A4646
:102DD0002946304600F0FEF8009A002111707CBDB3
:102DE000033700084100080218BF04200A0E18BF6C
:102DF00040F001004FF07F4232EA010108BF40F08D
:102E00000200012808BF052070470121FDF7C6BB5D
:102E1000FDF794B900210846FDF71ABA6FF05E017C
:102E20000807FDF7BBBB02E008C8121F08C1002A53
:102E3000FAD170477047002001E001C1121F002A3B
:102E4000FBD1704701490860704700006400002012
:102E50002DE9FF5F82B00021DDE90430020DDDF8CD
:102E600040B0034318D044F61050A2F2FF32424360
:102E70001514119801281FD0A5EB0B00401C5FEA28
:102E8000000A4FF000064E4FDFF83891B04650462A
:102E900015D5CAF1000413E0119801244AA30128B2
:102EA00001D16FEA0B010298119AC0E90031C0E923
:102EB000024206B0BDE8F09FCBF10000DFE7044618
:102EC0000021404A491842EB0450CDE9001012E0BD
:102ED000E00707D032463B4640464946FDF7F6F943
:102EE0008046894632463B4610461946FDF7EEF9C4
:102EF00006460F466410002CEAD1DDE90401DDE945
:102F00000023BAF1000F06DAFDF7E0F942464B461E
:102F1000FDF7DCF905E0FDF751FC42464B46FDF7B5
:102F20004DFC04460E460022284BFDF7CFFC03D88B
:102F30004FF0FF30014607E00022254B2046314686
:102F4000FDF795FBFDF7A9FC102409E0002C0ADB36
:102F50000A220023FDF7AAFA039B30321A55641E99
:102F600050EA0102F2D1641C039AC4F11103144423
:102F7000119A012A03D0012208430DD10AE0084327
:102F800004D000204FF0110B119072E7A3EB0B055A
:102F90006D1E0DE05B4504DD4FF0000205F10105FB
:102FA00004E003DA4FF00002A5F10105002AECD09D
:102FB00002981199C0E90231C0E9004579E70000A3
:102FC000000014400000F03F300000000000F0431B
:102FD0000000E03F2DE9FF4F95B09B46894606462D
:102FE00000250FE2252877D100242746F84A012141
:102FF000059400E0044316F8013F203B01FA03F07A
:103000001042F7D130782A2811D06FF02F03307892
:10301000A0F13002092A16D8059A44F0020402EB06
:10302000820203EB42021044761C0590EFE759F848
:10303000042B0592002A03DA504244F40054059010
:1030400044F00204761C30782E2816D116F8010FB1
:1030500044F004042A280DD06FF02F023078A0F13C
:103060003003092B09D807EB870302EB4303C7188A
:10307000761CF3E759F8047B761C30786C280FD067
:1030800006DC4C2817D068280DD06A2814D104E03B
:10309000742810D07A280FD10DE044F400140AE00F
:1030A00044F4801401E044F440147278824202D166
:1030B00004F58014761C761C307866280BD013DC5F
:1030C000582877D009DC002875D04528F6D0462846
:1030D000F4D047281AD19DE118E0632835D0642840
:1030E00079D0652812D195E1702873D008DC672863
:1030F000F1D069286FD06E280DD06F2806D1B5E0C9
:1031000073282CD0752875D0782874D05A46179912
:1031100090476D1C75E1C4F30250022809D00328C2
:103120000DD0D9F8001004280DD00D6009F1040964
:1031300067E1D9F80010EA17C1E90052F6E7D9F8BB
:1031400000100D80F2E70D70F0E719F8041B8DF800
:10315000001000208DF80100EA46012003E059F834
:1031600004AB4FF0FF3061074FF0000102D40DE0D7
:1031700008F101018846B9420FDA8045F8DB1AF8F8
:1031800008100029F4D108E008F1010188468142C5
:10319000FADB1AF808100029F6D105985B46A0EB77
:1031A000080721463846179A00F094FA284400EBA5
:1031B000080507E04DE029E10DE01AF8010B5A4639
:1031C00017999047B8F10108F7D25B462146384677
:1031D000179A13E142E00A220092C4F302524FF020
:1031E000000A022A08D059F804CB032A4FEAEC71EE
:1031F0000AD00DE029E02AE009F1070121F00702D9
:10320000F2E802C1914609E00FFA8CFC4FEAEC713A
:10321000042A03D14FFA8CFC4FEAEC71002907DA3B
:103220000A460021DCF1000C61EB02012D2202E0D4
:10323000220504D52B228DF80420012203E0E207A9
:1032400001D02022F7E7904659E00A2102E010223F
:103250000DE010214FF0000A00910BE010224FF01A
:10326000000A44F004040827009203E008224FF00B
:10327000000A0092C4F30252022A05D059F804CB86
:103280000021032A08D009E009F1070121F0070213
:10329000F2E802C1914605E01FFA8CFC042A01D134
:1032A0000CF0FF0C4FF00008220728D5702806D03C
:1032B000009B83F0100353EA0A0305D00EE040227E
:1032C0008DF80420012208E05CEA010206D03022D9
:1032D0008DF804208DF8050002229046009B83F0B3
:1032E000080353EA0A030AD15CEA010201D162072A
:1032F00005D530228DF804204FF001087F1E582894
:1033000004D034A003900EA802900DE036A0F9E797
:1033100053466046009AFDF7C9F884460398825CDC
:103320000298401E029002705CEA0100F0D10298FF
:1033300006A9081A00F1200A600702D524F4803497
:1033400000E00127574502DDA7EB0A0000E000205E
:1033500000EB0A01009005984144401A0590E003F3
:1033600006D45B462146179A059800F0B3F9054448
:10337000002706E001A85A46C05D179990476D1CCA
:103380007F1C4745F6DBE0030CD55B462146179AC8
:10339000059800F09FF9054404E030205A4617993B
:1033A00090476D1C0099481E00900029F5DC08E04C
:1033B000029802995A460078491C02911799904741
:1033C0006D1CBAF10001AAF1010AF1DC65E100000F
:1033D00009280100303132333435363738396162EB
:1033E00063646566000000003031323334353637AF
:1033F00038394142434445460000000000F058F986
:103400000544761C307800287FF4ECAD19B02846CE
:10341000BDE8F08F620700D4062709F1070222F009
:10342000070CFCE80223E14603F000485FEA080CC1
:1034300002D00FF2702C0DE05FEA045C02D50FF2AF
:10344000682C07E05FEAC47C02D00FF2602C01E038
:10345000AFF2700C4FF0FF3823F00043CDF850C0AE
:1034600065280CD006DC452809D046281DD0472801
:103470003DD13DE0662818D067287ED138E0002194
:10348000112F01DB112000E0781CCDE9000106A915
:103490000EA8FFF7DDFCDDE90F010E9A0391002174
:1034A000009207F1010A04914DE04FF000400097AF
:1034B000CDE9011006A90EA8FFF7CAFCDDE90F024D
:1034C00003920E9B11990022DDF80CA00093049248
:1034D00011B9791C00EB010AB7EB0A0004D4C0F162
:1034E000FF3007F1010A0490AAEB0700019044E0C5
:1034F000012F00DA01270021112F01DD112000E04A
:103500003846CDE9000106A90EA8FFF7A1FCDDE9C8
:103510000F010E9A0391002104910092BA462107EF
:103520000CD40399514500DA8A46BAF1010F05DD42
:10353000009AAAF10101515C302908D0B84202DAA0
:1035400010F1040F06DA0121CDE9011015E0AAF10E
:103550000101E9E7002805DC049901440491AAEB84
:10356000000102E0411C514500DD8A460499401AE1
:10357000401C01904FF000400290200704D40198B5
:10358000504501DBCDF8048000208DF84F000298F3
:103590000DF14F07B0F1004F25D02B200E9002986F
:1035A0004FF0020800280CDA404202902D200E90C5
:1035B00007E00A210298FCF763FF3031029007F818
:1035C000011DB8F10001A8F10108F2DC0298002801
:1035D000EFD1791E0E980870307800F0200040F08E
:1035E000450007F8020D12A8C01B00F10708149847
:1035F000007800B1012000EB0A01019801EBE071B5
:1036000005984144401A401E0590E00306D45B46ED
:103610002146179A059800F05DF805441498007843
:1036200018B15A46179990476D1CE00324D55B46A4
:103630002146179A059800F04DF805441CE00498BF
:10364000002807DBDDE90301884203DD0098405CC8
:10365000179901E0179930205A469047049805F1D0
:103660000105401C04900198401E019004D12E20B9
:103670005A46179990476D1CBAF10001AAF1010A48
:10368000DDDC05E017F8010B5A46179990476D1CD1
:10369000B8F10001A8F10108F4DC5B462146179A55
:1036A0000598ABE62D0000002B0000002000000074
:1036B0002DE9F041044600251E461746880404D42F
:1036C00005E039462020B0476D1C641EF9D5284618
:1036D000BDE8F0812DE9F041044600251E469046E4
:1036E000C80301D5302700E02027880404D505E071
:1036F00041463846B0476D1C641EF9D52846BDE8E2
:10370000F0814A68002A06D00A68531C0B601070CA
:103710004868401E486070472DE9F04104464FF06C
:103720000E4000EB4400B0F1506F204655D84FF0EA
:10373000FC41B1EB440F1CD224F000404FF07E510D
:10374000FCF751FD4FF0FF31FCF728FF054600F074
:10375000EFFC14F0004F1DBF2F4F304E80F00040A3
:103760002F4F08BF2F4E4FF04041FCF73FFD04465E
:1037700005E000273E460146FCF738FD05462A498C
:103780002846FCF733FD2949FCF7D8FC2946FCF70D
:103790002DFD2749FCF7D2FC2946FCF727FD2549DA
:1037A000FCF7CCFC2946FCF721FD2349FCF7C6FCBD
:1037B000804629462046FCF719FD4146FCF716FDD8
:1037C000054631462046FCF7B9FC2946FCF7B6FC15
:1037D0003946BDE8F041FCF7B1BC4FF0E441B1EB34
:1037E000440F08D9FFF7FEFA042808BFFFF716FBBD
:1037F0002046BDE8F0814FF07F41B1EB440F03D28A
:10380000BDE8F041FFF701BB0120FFF71BFBBDE85E
:10381000F041FFF7FFBA00000000C9BF22AAFDB9BE
:103820000000C93F22AAFD3924FE1C3DC78AD83CAE
:103830001E67383D1B93993DAFAA2A3E2DE9F047FC
:103840004FF0684202EB40030C460546B3F1654F6A
:103850003CBF02EB4102B2F1654F7CD2C0F3C753CB
:10386000C1F3C7529A1A1B2A06DD10F0004F14BF8D
:1038700076487748BDE8F08712F11A0F17DA11F091
:10388000004F06D010F0004F0CBF72487248BDE8E0
:10389000F08721462846FCF7DBFC0446FFF7A2FA36
:1038A000042808BFFFF7BAFA2046BDE8F0874200B7
:1038B000B2EB410F25D910F0004F19BF674F684E8A
:1038C000684F694E224685F0004415460A4680F04E
:1038D000004110460A1A5200B2F1807F40D248409F
:1038E0006249DFF88CA110F0004F18D04FF03F482C
:1038F0003846FCF775FC074651463046FCF770FC2D
:1039000017E011F0004F04BF00263746E2D010F058
:10391000004F19BF574F584E584F594EDAE74FF0E6
:103920007C583846FCF70AFC074651463046FCF7FF
:1039300005FC064641462846FCF758FC2146FCF7A4
:10394000FDFB824621464046FCF750FC2946FCF729
:103950004AFC514600E037E0FCF77AFC044604E0FC
:1039600021462846FCF774FC04460146FCF73EFC61
:1039700080464449FCF73AFC4349FCF7DFFB4146EB
:10398000FCF734FC4149FCF7D9FB4146FCF72EFC1F
:103990003F49FCF7D3FB4146FCF728FC3D49FCF7C7
:1039A000CDFB054641462046FCF720FC2946FCF7A6
:1039B0001DFC3146FCF7C2FB2146FCF7BFFB394634
:1039C000BDE8F047FCF7BABB4FF07F42B2EB400FC7
:1039D00028BFB2EB410F03D2BDE8F047FFF718BA9A
:1039E00040EA01035B0008BF44F0FF410AD0B2EB9C
:1039F000400F08BFB2EB410F06D125F0804024F004
:103A0000804105460C4629E7B2EB400F12BF5FEA42
:103A1000410245F0FF4004F000413FF41FAF4A006F
:103A200092EA40033FF51AAF002AACBF4FF09F4621
:103A30004FF03E563146FCF7D9FB0546314620464D
:103A4000FCF7D4FB04462846214607E7DB0FC9BF35
:103A5000DB0FC93FDB0F4940DB0F49C00000C9BF86
:103A600022AAFDB90000C93F22AAFD390060ED3E3F
:103A7000C30ACE37000049C022AA7DBA00004940DF
:103A800022AA7D3A2DAD65BD8FB8D53D0FB511BECB
:103A900061C84C3EA8AAAABE0346934201DD104667
:103AA00070478B4201DA0846FAE71846F8E700004B
:103AB00070B50446FDF7C2F9054608480068084994
:103AC000B0FBF1F04FF47A71614300FB01F400BFE9
:103AD000FDF7B4F9401BA042FAD370BD500000209E
:103AE00040420F0070B50446FDF7A8F905460648A8
:103AF00000680649B0FBF1F0444300BFFDF79EF9B2
:103B0000401BA042FAD370BD5000002040420F007D
:103B10002DE9F04105460F4614461E46FDF792FB7F
:103B200000282ED06906080EFDF762FBFDF7CEFBDC
:103B300020B9FDF7B3FB0120BDE8F0813846FDF761
:103B400057FBFDF7C3FBFDF77DFB012101EB4501B1
:103B5000C8B2FDF74DFBFDF7B9FB0CE0FDF724FB08
:103B60003070012C02D1FDF707FB01E0FDF7E8FA08
:103B7000761C601EC4B2002CF0DCFDF78FFB002029
:103B8000DAE70120D8E72DE9F04105460E46174651
:103B90009846FDF757FB28B36906080EFDF728FB8A
:103BA000FDF794FB20B9FDF779FB0120BDE8F0811A
:103BB0003046FDF71DFBFDF789FB00240CE018F8EB
:103BC0000400FDF715FBFDF781FB18B9FDF766FB57
:103BD0000020EBE7601CC4B2BC42F0DBFDF75EFBEB
:103BE0000020E3E70120E1E72DE9F04704464FF02C
:103BF0007C512046FCF7FAFA814625462E460C48B1
:103C0000A0EB6606354629464846FCF7EFFA8246A1
:103C10002946FCF7EBFA80464FF07F51FCF7E3FAB8
:103C200007462946FCF7E2FA05462846BDE8F08734
:103C3000865A375F1CB500243E4800233E4A3F4960
:103C400000903F48FEF70AFA4FF000403D4B3E4AD5
:103C5000002100903D48FEF701FA72B601210846A6
:103C6000FEF732FA4FF4A060FDF7A8FF01213848B3
:103C7000FDF710FAFDF7CCF83648FEF7A1FFFDF787
:103C800065FE00BF00F0BEF80028FBD0FDF7BAFFCC
:103C900001213148FEF7B2FD62B649E02F4948697B
:103CA000FCF7C7FB2EA2CDE9000100210846FEF774
:103CB00007F82A49C868FCF7BCFB2CA2CDE9000133
:103CC00000210120FDF7FCFF2B4803882BA20021D7
:103CD0000220FDF7F5FF28480C3803882AA20021AE
:103CE0000320FDF7EDFF20212A48FDF71BFAE0B97C
:103CF0000320FFF7DDFE20212648FDF713FAA0B9C7
:103D000034B9012401211C484038FEF777FD05E055
:103D10000024002118484038FEF770FD00BF202124
:103D20001C48FDF7FFF90028F9D01E20FFF7C0FE60
:103D3000B4E70000CDCC8CBF000040C0A8FDFFFF61
:103D400094010020CDCCCCBE0000F0C2C001002008
:103D500000023000900000200004004068000020B5
:103D6000524F4C4C3A252E326620200054454D507F
:103D70003A252E3266202000402C014050574D4CF1
:103D80003A2564202000000050574D523A25642007
:103D900020000000000801402DE9F84380468946D4
:103DA00014461D46089E6B46012249464046FFF7D1
:103DB000AFFE28BB601CFF2101FA00F0C4F108012E
:103DC0002944491EFF220A411043C7B2C5F1080029
:103DD00006FA00F0C6B2C4F1070006419DF80000E3
:103DE000384000909DF80000304300906B4601225F
:103DF00049464046FFF7C7FE10B90120BDE8F883E9
:103E00000020FBE71CB500200190012306226B2156
:103E100000906820FFF7C0FF08B900201CBDC82033
:103E2000FFF746FE0120042303226B210090682047
:103E3000FFF7B2FF08B90020F0E73220FFF738FEA5
:103E40000320022304221B2100906820FFF7A4FF17
:103E500008B90020E2E73220FFF72AFE0120022302
:103E600004221C2100906820FFF796FF08B900206B
:103E7000D4E73220FFF71CFE0320034602221A215A
:103E800000906820FFF788FF08B90020C6E73220BD
:103E9000FFF70EFE0020012305226A210090682012
:103EA000FFF77AFF08B90020B8E73220FFF700FEDD
:103EB000012003460246372100906820FFF76CFF7F
:103EC00008B90020AAE701AB012275216820FFF79D
:103ED0001FFE9DF8040008B900209FE701209DE720
:103EE0002DE9FF476B460E223B216820FFF710FEAD
:103EF00018B1002004B0BDE8F087604800680528CC
:103F000002DB00205D4908609DF801009DF800106B
:103F100040EA012000B25949096801EB4101584AC1
:103F200002EB8101C8809DF803009DF8021040EA71
:103F3000012001B25148006800EB400002EB800014
:103F400001819DF805009DF8041040EA012001B2AE
:103F50004A48006800EB400002EB800041819DF878
:103F600007009DF8061040EA012000B2454908808C
:103F70009DF809009DF8081040EA012000B23F4971
:103F8000096801EB410122F821009DF80B009DF822
:103F90000A1040EA012000B23849096801EB4101EA
:103FA00002EB810148809DF80D009DF80C1040EA5D
:103FB000012000B23149096801EB410102EB8101A6
:103FC00088802E480068401C2C4908600025002687
:103FD0000027A846A946AA46002429E004EB44008D
:103FE000274901EB8000B0F90600054404EB4400CA
:103FF00001EB8000B0F90800064404EB440001EB3B
:104000008000B0F90A00074404EB440031F92000B5
:10401000804404EB440001EB8000B0F902008144CD
:1040200004EB440001EB8000B0F904008244641CFE
:10403000052CD3DB052095FBF0F000B21249C880B7
:10404000052096FBF0F001B20F480181052097FB97
:10405000F0F001B20C484181052098FBF0F000B26D
:1040600009490880052099FBF0F000B2488005203E
:104070009AFBF0F000B2888001203BE72800002086
:10408000F801002000000020EC01002003490A682C
:1040900002604A684260896881607047EC010020D4
:1040A00070B5044610480068FFF736FB80F0004505
:1040B0000E492846FCF79AF820600D4801680D4823
:1040C0000068FFF7BBFB05460849FCF78FF8606006
:1040D0000948016809480068FFF7B0FB0546034935
:1040E000FCF784F8A06070BD1C000020E12E654242
:1040F00024000020200000201400002018000020D0
:1041000070B504460748B0F90000FCF751F90646BF
:104110000549FCF79DF805460449FCF70FF82060B7
:1041200070BD0000000000200000AA43B81E12422B
:1041300070B50546FCF715FC044620F00040C0F1C0
:10414000FF40C00F08D025F00040C0F1FF40C00F75
:1041500004BF0120FEF776FE204670BD000000007F
:104160000000000000000000000000000000001F30
:1041700000000000000000CC0000000000083040FB
:104180000830400000000000000000000002031E94
:1041900002031E000020FC2020FC2000000E111154
:1041A0003F100C0000180404FF8478000F100F016A
:1041B00006180000008C30C078847800000F1011C1
:1041C0000E0000007884C43498E48408004870002D
:1041D00000000000000000000000000000000007D8
:1041E00018204000000000E01804020000402018E1
:1041F0000700000000020418E00000000202010FA6
:1042000001020200404080F08040400000000000B9
:104210000700000000808080F080808000000000A7
:104220000000000000090E00000000000000000077
:10423000000000000080808080808000000000007E
:1042400000000000000C0C00000000000000000056
:10425000031C2000000618E0000000000007081002
:104260001008070000F008040408F0000000080827
:104270001F00000000000404FC040400000E1010E5
:1042800010100F00000C142444840C00000C1010BB
:1042900010110E000018048484443800000001024C
:1042A0000C1F00000060A02424FC2424001F111116
:1042B0001110100000980404048870000007081111
:1042C0001109000000F088040404F8000018101020
:1042D000111618000000007C80000000000E111074
:1042E00010110E000038448484443800000F101070
:1042F00010080700008048444488F00000000003D4
:10430000030000000000000C0C0000000000000191
:104310000000000000000007000000000000010293
:10432000040810000080402010080400000202026F
:1043300002020200004040404040400000100804DB
:10434000020100000004081020408000000E12103E
:1043500010110E000000000CEC000000030C131400
:1043600017080700E018E414F414E8000000031C28
:1043700007000000043CC44040E41C04101F11115D
:10438000110E000004FC040404887000030C1010DB
:1043900010101C00E018040404081000101F101076
:1043A0001008070004FC04040408F000101F111199
:1043B0001710080004FC0404C4041800101F111195
:1043C0001710080004FC0400C0000000030C1010CB
:1043D000101C0000E018040444784000101F100076
:1043E00000101F1004FC84808084FC040010101F47
:1043F00010100000000404FC040400000000101071
:104400001F10100003010101FE000000101F110326
:104410001418100004FC0480641C0400101F100019
:104420000000000004FC040404040C00101F1F0022
:104430001F1F100004FC807C80FC0400101F0C0374
:1044400000101F1004FC0400E018FC000708101006
:1044500010080700F00804040408F000101F1010F2
:1044600010100F0004FC84808080000007081010EA
:1044700010080700F00814140C0AF200101F1111A4
:1044800011110E0004FC0400C0300C04000E1110C9
:1044900010101C00001C0484844438001810101FE5
:1044A00010101800000004FC04000000101F100091
:1044B00000101F1000F804040404F800101E11007E
:1044C00000131C100000E01C70800000101F001F73
:1044D000001F100000C07C807CC000001018160176
:1044E00001161810040C34C0C0340C04101C130046
:1044F000131C1000000004FC040000000810101041
:10450000131C1000041C6484040418000000007FC5
:1045100040404000000000FE0202020000201C0398
:104520000000000000000080601C030000404040CC
:104530007F00000000020202FE0000000000204098
:10454000402000000000000000000000000000000B
:1045500000000000010101010101010100404020B3
:104560000000000000000000000000000000010149
:10457000010000000098242448FC0400080F0001FA
:104580000100000000FC88040488700000000001A5
:10459000010100000070880404048800000001018B
:1045A00001090F0000F804040408FC0400000101E4
:1045B0000101000000F824242424E8000001010780
:1045C00009090400000404FC0404000000000101C7
:1045D0000101010000D6292929C90600080F0001A0
:1045E0000101000004FC84000004FC04000119190E
:1045F00000000000000404FC0404000000000001AE
:10460000191900000003010101FE0000080F00005D
:104610000101010004FC2460940C04000008081F40
:1046200000000000000404FC04040000010101017A
:104630000101010004FC0400FC0400FC0101000174
:104640000101000004FC84000004FC0400000101DE
:104650000101000000F804040404F8000101000155
:104660000100000001FF89040488700000000001BF
:1046700001000100007088040489FF0101010100AC
:10468000010101000404FC84040080000000010119
:104690000101010000CC242424249800000101071A
:1046A00001010000000000F80404080001010000FE
:1046B0000001010000F804040408FC0401010100E9
:1046C0000101010000C0300C30C0000001010001F8
:1046D0000100010180700C30E01C608000010101CC
:1046E0000001010000048C70748C040001010100C1
:1046F000000101010081611E1860800000010101BC
:104700000101010000840C3444840C00000000000E
:10471000003F404000000000807C020200000000DA
:10472000FF00000000000000FF00000040403F00CC
:104730000000000002027C80000000000040804079
:104740004020400000000000000000006C4700080E
:104750000000002068000000262E0008D447000852
:1047600068000020D0050000362E00080000000080
:104770000000803F0000000000000000000000007A
:104780000000000000000000000000000000000029
:104790000000000000000000000000000000000019
:1047A00000000000000000000000000102030401FE
:1047B00002030406070809020406080000A24A04CE
:1047C00000000000000000000102030406070809C1
:0447D00000000000E5
:04000005080000ED02
:00000001FF
