:020000040800F2
:100000000806002001010008090100080B01000892
:100010000D0100080F010008110100080000000098
:1000200000000000000000000000000013010008B4
:100030001501000800000000170100081901000860
:100040001B0100081B0100081B0100081B01000820
:100050001B0100081B0100081B0100081B01000810
:100060001B0100081B0100081B0100088D0B000884
:10007000AD0B0008CD0B0008ED0B00080D0C0008BF
:100080002D0C00084D0C00081B0100081B01000886
:100090001B0100081B0100081B0100081B010008D0
:1000A0001B0100081B0100081B0100081B010008C0
:1000B0001B010008412500081B0100081B01000866
:1000C0001B0100081B0100081B0100081B010008A0
:1000D0001B0100081B0100081B0100081B01000890
:1000E0001B0100081B0100081B010008DFF80CD0F1
:1000F00000F004FC00480047493B000808060020C7
:100100000648804706480047FEE7FEE7FEE7FEE7B1
:10011000FEE7FEE7FEE7FEE7FEE7FEE7A1220008B6
:10012000ED00000810B5044604E00B7800F8013B30
:1001300003B1491C521EF8D2204610BDF0B480EA2B
:100140000102D40F4200B2EB410F02D20246084630
:1001500011464A0042D0C30DDDB2C1F3C752AD1AF9
:10016000202D35DAC1F3160141F4000204B15242E8
:10017000C5F1200602FA06F12A411044B3EBD05F24
:1001800023D0C4B1012DA0EBC35009DCF0BC4FF06B
:10019000004202EAC352DBB200F5000000F0D0B921
:1001A000400000F1807000EBC350A0F1807040EA85
:1001B000D170490009E0490841EAC071A0EBC35081
:1001C00000F50000400800EBC350F0BC00F0AFB9F0
:1001D0006142012202EB4101001BF6E7F0BC7047CF
:1001E00081F00041AAE780F00040A7E780EA010221
:1001F00010B502F00043400022D04A001FD0010E8B
:1002000001EB1261C0F35600C2F3560240F4000045
:1002100042F40002A0FB022000047F39140400D045
:10022000401C50EA124001D44000491EC2B20C06E4
:1002300004EBD010401C4008802A02D003E00020CC
:1002400010BD20F00100002900DA0020184310BD85
:1002500030B480EA010202F0004530F0004221F0A3
:10026000004013D090B1C30DD40DC2F31601C0F3FA
:100270001600E41A41F4000140F400027D3491427A
:1002800001D3641C00E04900002C02DA30BC0020DD
:1002900070474FF400000023914201D3891A0343B1
:1002A00040084FEA4101F7D151B1914202D14FF0DC
:1002B000004105E002D24FF0010101E06FF00101C1
:1002C00003EBC450284430BC00F031B92DE9FE4F97
:1002D00081EA030404F0004421F0004100944FF04F
:1002E000000B23F0004350EA01045ED052EA0304FD
:1002F0005BD0C3F30A54C1F30A552C44A4F2F3347F
:100300000194A0FB0254C1F3130141F48011C3F323
:10031000130343F4801301FB024400FB034E840AE1
:10032000970A44EA815447EA8357A4FB0768029579
:100330008D0A05FB07854FEA932C04FB0C54270517
:10034000029D4FEA065847EA1637B5EB08056EEBF3
:10035000070C870E920E47EA811742EA8312A7FB29
:100360000201B6EB0B0164EB00042B0D43EA0C33E6
:100370005E1844EB1C50DA465146E7FB0201C5F318
:1003800013044FEA0B3343EA14534FEA0432019C3F
:1003900043EA0603A4F10C040294009CCDE900B4E6
:1003A00000F017F903B0BDE8F08F00200146F9E72F
:1003B000C10F80EAE0700844CA079623002100F0CC
:1003C000BFB800F0004220F00040C10DC0F316009D
:1003D00040F400007F2901DA00207047962903DCF1
:1003E000C1F19601C84001E096398840002AF4D056
:1003F0004042704770B5C1F30A5201F00045002435
:10040000C1F3130140F2FF3341F480119A4201DA43
:10041000002070BD40F233439A42A2F2334203DC23
:10042000524200F074F800E090402C43F1D040427A
:1004300070BD00F0004230F000400AD0C10D01F55F
:100440006071C0F3160042EA0151C208400711432F
:100450007047002001467047002801DBC0F10040D2
:10046000002901DBC1F1004181427047002801DB16
:10047000C0F10040002901DBC1F100418842704712
:1004800030B50B46014600202022012409E021FA64
:1004900002F59D4205D303FA02F5491B04FA02F561
:1004A0002844151EA2F10102F1DC30BD2DE9F05FF8
:1004B0000546002092469B468846064681464024D3
:1004C0001BE0284641464746224600F020F85346A6
:1004D0005A46C01A914110D311461846224600F0E0
:1004E0001FFA2D1A67EB01084F4622460120002112
:1004F00000F016FA17EB00094E41201EA4F101048A
:10050000DFDC484631462A464346BDE8F09F202AB4
:1005100004DB203A21FA02F00021704721FA02F3AD
:10052000D040C2F12002914008431946704700298B
:10053000A8BF7047401C490008BF20F00100704769
:1005400010B4B0FA80FC00FA0CF050EA010404BFC9
:1005500010BC704749B1CCF1200421FA04F411FA1F
:100560000CF118BF012121430843A3EB0C01CB1D63
:100570004FEA00614FEA102042BF002010BC7047D4
:1005800000EBC35010440029A4BF10BC7047401CAE
:10059000490008BF20F0010010BC7047420005D0A0
:1005A000C0F3C7525242914201DC0020704700EB79
:1005B000C150704710B5141E73F1000408DA401CD6
:1005C00041F1000192185B411A4301D120F0010072
:1005D00010BD2DE9F04D92469B4611B1B1FA81F262
:1005E00002E0B0FA80F22032904600F099F9044619
:1005F0000F4640EA0A0041EA0B0153465A460843B7
:1006000013D0114653EA010019D0C8F140025046F8
:10061000FFF77DFF05460E4650465946424600F01C
:100620007FF9084305D0012004E020463946BDE8A3
:10063000F08D0020054346EAE0762C4337430A98C4
:100640006305E40AA0EB08000022FD0A44EA4754CF
:100650000A3002D500200146E9E701051019694179
:10066000DDE9084500196941BDE8F04DA2E72DE933
:10067000FE4F804681EA0300C00F0C46009021F037
:10068000004123F00045B8EB0200A94105D24046E5
:10069000214690461C460B46024623F0004010437C
:1006A00047D0270DC7F30A00C3F30A510290401A3E
:1006B000019040286BDAC3F3130040F4801B0098CC
:1006C000924620B10023D2EB030A63EB0B0B019897
:1006D0005946C0F14002504600F022F906460D4648
:1006E00050465946019A00F02AF910EB0800614182
:1006F000002487EA115284EAE7731A4340D0009A33
:1007000062B3019A012A4FEA075215DC001B61EB24
:1007100002014FF0004202EA0752CDE90042001CFC
:1007200041F5801132462B46FFF753FF03B0BDE879
:10073000F08F40462146F9E7001B61EB0201001CE7
:1007400041F5801300185B412018A2F5001747EB14
:10075000030140EAD570B6196D4111E06D084FEA0A
:10076000360645EAC0754FEA0752001B61EB0201ED
:10077000001C41F5801149084FEA30000019514131
:1007800032462B4603B0BDE8F04FFFF713BF009889
:10079000012240000023D0EB020263EBE0730098DB
:1007A00021464FEAE074B8EB000061EB0401E9E791
:1007B00083F000435BE781F0004158E72DE9F04DFD
:1007C00081EA030404F0004B21F0004514464FF089
:1007D000000A23F0004150EA050220D054EA010249
:1007E0001DD0C5F30A570246C5F31303C1F3130026
:1007F000C1F30A5640F4801543F48013A7EB0608B2
:10080000101BD64608F2FD3873EB050002D308F141
:10081000010801E092185B41B8F1000F03DA0020F3
:100820000146BDE8F08D00204FF480110646844655
:100830000EE0171B73EB050705D3121B63EB0503D3
:1008400006434CEA010C49084FEA300092185B411C
:1008500050EA0107EDD152EA030012D082EA040007
:1008600083EA0501084305D0101BAB4106D20122E3
:10087000002306E000224FF0004302E06FF0010287
:1008800053101AEB06004CEB085110EB0A0041EB39
:100890000B01BDE8F04DFFF78DBEC1F30A52C1F365
:1008A000130140F2FF3341F480119A4202DA002032
:1008B0000146704740F233439A42A2F2334202DCCF
:1008C0005242FFF724BE00F02BB8000030B5041EE2
:1008D00071F1000404DB4FF00044404264EB01017D
:1008E000141E73F1000405DB1C464FF00043524216
:1008F00063EB0403994208BF904230BD064C074D9C
:1009000006E0E06840F0010394E8070098471034DF
:10091000AC42F6D3FFF7EEFB4446000864460008FD
:10092000202A04DB203A00FA02F1002070479140AF
:10093000C2F1200320FA03F3194390407047202AA4
:1009400006DBCB17203A41FA02F043EAE07306E0F7
:1009500041FA02F3D040C2F1200291400843194607
:100960007047F0B4002802DCF0BC00207047C0F3F0
:10097000C751C0F3160040F40000CA0701D140007F
:10098000491E3F2202EB6105002211464FF400068A
:1009900026FA01F31344D418844201D8001B1A46E6
:1009A0004000491C1729F3DD5100814202D24FF06B
:1009B000FF3100E0002102EBC550F0BCFFF7B7BDEE
:1009C0000FB42DE9FC4782460C4694F800910DA81F
:1009D00001902046524690F800311918AA230B7056
:1009E00090F8013113B901234B7002E090F8013106
:1009F0004B70AF238B70CA7090F800315B1D80F88C
:100A0000003100BF80E00C9810F8011B0C906629A3
:100A10004FD004DC63293BD0642974D10FE06829EE
:100A200002D075296FD15DE0019830F8041B019068
:100A300008B200906946204600F096F863E00198FD
:100A4000006800900198001D019000BF9DF8031000
:100A500094F80021501C84F80001A1549DF8021064
:100A600094F80021501C84F80001A1549DF8011055
:100A700094F80021501C84F80001A1549DF8001046
:100A800094F80021501C84F80001A15400BF3AE002
:100A9000019810F8041B0190C8B2009000BF9DF8A7
:100AA000001094F80021501C84F80001A15400BFEC
:100AB00029E00198C01D20F007000190D0E90071E5
:100AC000019A083201920022264B3846FFF7FEFBBE
:100AD0000546FFF78FFC00B200906946204600F003
:100AE00043F810E0019802C8019001EBC10000EB4F
:100AF00001104FF6FF7101EA800000906946204620
:100B000000F032F800BF00BF0C98007800287FF496
:100B10007AAF20464946002390F80021521F521A0E
:100B2000D5B20A1D85540A4604E0855C1D44EBB22B
:100B3000551CEAB290F800519542F6D190F8005158
:100B40006A1C80F80021435500BF0020019094F8F2
:100B50000001A0EB090000F0FF094846BDE8FC07D2
:100B60005DF814FB0000594010B54B7890F8004137
:100B7000621C80F8002103550B7890F80041621C3C
:100B800080F80021035510BD7047000010B50548DE
:100B9000006800F00F04034844602046FFF7F4FFAC
:100BA00010BD0000000002407047000010B505486D
:100BB0000068C0F303142001024948602046FFF793
:100BC000F3FF10BD000002407047000010B505485B
:100BD0000068C0F303242002024948602046FFF762
:100BE000F3FF10BD000002407047000010B505483B
:100BF0000068C0F303342003024948602046FFF731
:100C0000F3FF10BD000002407047000010B505481A
:100C10000068C0F303442004024948602046FFF7FF
:100C2000F3FF10BD000002407047000010B50548FA
:100C30000068C0F303542005024948602046FFF7CE
:100C4000F3FF10BD000002407047000010B50548DA
:100C50000068C0F303642006024948602046FFF79D
:100C6000F3FF10BD0000024021B1026842F0010212
:100C7000026004E002684FF6FE731A40026070479B
:100C800001684FF6FE721140016000210160416071
:100C90008160C1604B49884208D14A490839496896
:100CA00041F00F01474A083A51608AE04549143142
:100CB000884208D143490839496841F0F001414A66
:100CC000083A51607DE03F492831884208D13D49CA
:100CD0000839496841F470613A4A083A516070E055
:100CE00038493C31884208D136490839496841F4CD
:100CF0007041344A083A516063E0324950318842C9
:100D000008D130490839496841F470212D4A083A20
:100D1000516056E02B496431884208D1294908398D
:100D2000496841F47001274A083A516049E0254971
:100D30007831884208D123490839496841F0706107
:100D4000204A083A51603CE01F49884206D1011F01
:100D5000096841F00F01021F116032E01A49143195
:100D6000884208D11849091F096841F0F001164A64
:100D7000121F116025E014492831884208D1124918
:100D8000091F096841F470610F4A121F116018E0D1
:100D90000D493C31884208D10B49091F096841F4CB
:100DA0007041094A121F11600BE007495031884217
:100DB00007D10549091F096841F47021024A121F31
:100DC00011607047080002400804024010B500227C
:100DD000026847F6F0739A430C6A8B6823430C69E8
:100DE00023434C6923438C692343CC6923434C6AD6
:100DF00023438C6A23431A430260CB6843600B6829
:100E000083604B68C36010BD4160704710B50848EF
:100E1000006840F0807006490860002000F012F879
:100E20000448006840F001000249086010BD00005D
:100E3000FCED00E0001000E0014840687047000051
:100E4000001000E00149486070470000001000E019
:100E500000B587B00121084601F0ECF8012104201B
:100E600001F0F8F80320ADF8000004208DF803002D
:100E700069461B4800F080F804A801F021FE00201C
:100E8000ADF810004FF6FF70ADF814000020ADF87B
:100E90001600ADF8120004A94FF0804001F0BEFD2D
:100EA00000231A4603214FF0804001F04CFC01A8BA
:100EB00001F0D2FC0A20ADF80C0001A9400701F0B6
:100EC00075FC0121880701F01DFC00214FF08040D6
:100ED00001F075FD0121880701F01AFC07B000BD83
:100EE0000008014000B587B00121042001F0A2F8FC
:100EF0000121082001F0AEF8C020ADF80000042068
:100F00008DF8030069461A4800F036F804A801F08D
:100F1000D7FD0020ADF810004FF6FF70ADF81400BB
:100F20000020ADF81600ADF8120004A9114801F038
:100F300075FD00231A4603210E4801F004FC01A8A8
:100F400001F08AFC0A20ADF80C0001A9094801F063
:100F50002DFC0121074801F0D5FB0021054801F0D7
:100F60002EFD0121034801F0D3FB07B000BD0000B6
:100F7000000C0140000800402DE9F0410246002528
:100F80000026002000230024002791F803C00CF065
:100F90000F0591F803C00CF0100CBCF1000F03D04A
:100FA00091F802C04CEA050591F800C0BCF1000FB1
:100FB00031D0146800202BE04FF0010C0CFA00F344
:100FC000B1F800C00CEA03069E4220D183004FF026
:100FD0000F0C0CFA03F7BC4305FA03FC4CEA0404BB
:100FE00091F803C0BCF1280F06D14FF0010C0CFAA8
:100FF00000FCC2F814C00AE091F803C0BCF1480F2D
:1010000005D14FF0010C0CFA00FCC2F810C0401CD6
:101010000828D1D31460B1F800C0BCF1FF0F34DD53
:10102000546800202EE000F1080C4FF0010808FA87
:101030000CF3B1F800C00CEA03069E4221D18300F4
:101040004FF00F0C0CFA03F7BC4305FA03FC4CEA13
:10105000040491F803C0BCF1280F05D100F1080C7D
:1010600008FA0CF8C2F8148091F803C0BCF1480FDC
:1010700007D100F1080C4FF0010808FA0CF8C2F88B
:101080001080401C0828CED35460BDE8F0810000D9
:10109000F0B50A46002300240021002500F0004698
:1010A000B6F1004F02D11D4EF16901E01B4E71688F
:1010B000C0F3034583B200F44016B6F5401F08D1D3
:1010C00021F07061154E766826F07066134F7E60D1
:1010D00012E000F48016B6F5801F06D1032606FA4A
:1010E00005F4A14341F0706106E0460D360103FAB4
:1010F00006F6B14341F0706122B1460D360103FAA4
:1011000006F6314300F00046B6F1004F02D1034E1F
:10111000F16101E0014E7160F0BD0000000001408E
:101120000246002093680B400BB1012000E0002034
:1011300070474161704701617047000010B50020A1
:101140000A490860012002F057FC01200849C1F853
:10115000A00102F051FC00200449091F0860012091
:101160000349C1F8A40102F047FC10BDA48121424B
:101170000080214210B501200849086002F03CFCC3
:1011800001200749C1F8A00102F036FC0020034904
:10119000091F0860012002F02FFC10BDA48121422C
:1011A0000080214270B5002514E0012002F024FCEB
:1011B0006006040E01200B49086002F01DFC0A487D
:1011C000D0F8240108B1601CC4B2002005490860B1
:1011D000681CC5B2082DE8DB012002F00DFC20469A
:1011E00070BD0000A08121420080214270B50446FC
:1011F00000251DE004F0800018B101200E490860B0
:1012000002E000200C490860012002F0F5FB0120FB
:101210000949091F086002F0EFFB00200749C1F8E7
:10122000A0016006040E012002F0E6FB681CC5B2B6
:10123000082DDFDB70BD0000A48121420080214227
:1012400010B501201249086002F0D6FB1148D0F811
:10125000240108B9002010BD01200D49091F0860B4
:1012600002F0CAFB00200B49C1F8A401012002F0E2
:10127000C3FB07488038006808B10020EBE7002076
:101280000349091F0860012002F0B6FB0120E2E7D4
:10129000A48121420080214210B500200849086045
:1012A000012002F0A9FB01200649C1F8A00102F0CB
:1012B000A3FB01200249086002F09EFB10BD000064
:1012C000A48121420080214210B501200D4908600F
:1012D0000D49C1F8A00102F08FFB00240BE0094882
:1012E0008038006828B900200649091F08600120DD
:1012F00010BD601CC4B2322CF1DB012002F07CFB7B
:101300000020F5E7A48121420080214201B59AB076
:101310004FF080401990FE4818904FF07C511A9879
:10132000FEF764FF179002F057FD10B900201BB0C4
:1013300000BDF848C08828B1F648008910B1F548CA
:10134000408908B90020F2E7F248B0F900000690A1
:10135000FFF72EF8F0490790FEF748FFEF49089095
:10136000FEF744FF1090EB48B0F902000690FFF73B
:101370001FF8E9490790FEF739FFE8490890FEF7A2
:1013800035FF1190E348B0F904000690FFF710F81C
:10139000E1490790FEF72AFFE0490890FEF726FF93
:1013A0001290DC48B0F906004043DA49B1F9082050
:1013B000B1F9081002FB0101D648B0F90A20B0F9D2
:1013C0000A0002FB00100790FEF7F2FF089002F0FF
:1013D00095FB1690CF48B0F906000790FEF7E8FF9E
:1013E00008901699FEF702FF1390CA48B0F908005A
:1013F0000790FEF7DDFF08901699FEF7F7FE1490B0
:10140000C448B0F90A000790FEF7D2FF0890169979
:10141000FEF7ECFE159015980690C14801680698F5
:10142000FEF7E4FE089014980690BE4801680698FE
:10143000FEF7DCFE07900899FEF7D2FE0F90139896
:101440000690B84801680698FEF7D0FE08901598F7
:101450000690B54801680698FEF7C8FE07900899FF
:10146000FEF7BEFE0E9014980690AF4801680698ED
:10147000FEF7BCFE089013980690A94801680698EC
:10148000FEF7B4FE07900899FEF7AAFE0D90A0485B
:101490000F99FEF7ABFE07901A99FEF7A7FE08908A
:1014A000A24801680898FEF749FEA04908609848DC
:1014B0000E99FEF79BFE07901A99FEF797FE08908B
:1014C0009B4801680898FEF739FE994908609048E2
:1014D0000D99FEF78BFE07901A99FEF787FE08908C
:1014E000944801680898FEF729FE924908604FF079
:1014F00080400F99FEF77AFE07908C4801680798A4
:10150000FEF71CFE08901098014607900898FEF719
:1015100015FE10904FF080400E99FEF767FE079081
:10152000834801680798FEF709FE08901198014664
:1015300007900898FEF702FE11904FF080400D9939
:10154000FEF754FE07907B4801680798FEF7F6FD0A
:1015500008901298014607900898FEF7EFFD129048
:10156000129804907448C06803900499FEF73EFEF8
:101570000690119802907048806801900299FEF7D9
:1015800035FE04906C48406880F00040029010984E
:10159000014601900298FEF729FE03900499FEF798
:1015A0001FFE05900699FEF71BFE07901799FEF7A0
:1015B0001DFE089060480068014607900898FEF7F5
:1015C000BDFD5D490860119804900846C06803900D
:1015D0000499FEF70BFE0690129802905648806818
:1015E00001900299FEF702FE049010980290524872
:1015F000006801900299FEF7F9FD03900499FEF747
:101600009DFD05900699FEF7EBFD07901799FEF7F3
:10161000EDFD089048484068014607900898FEF79D
:101620008DFD45494860109804900846C0680390B5
:101630000499FEF7DBFD0690129802903E48406840
:1016400001900299FEF7D2FD0490119802903A4859
:10165000006801900299FEF7C9FD03900499FEF716
:10166000BFFD05900699FEF769FD07901799FEF7F3
:10167000BDFD089030488068014607900898FEF745
:101680005DFD2D498860109804900846806803909D
:101690000499FEF7ABFD0690119802902648406829
:1016A00001900299FEF7A2FD049012980290224840
:1016B000006801900299FEF799FD03900499FEF7E6
:1016C0003DFD05900699FEF78BFD07901799FEF7F3
:1016D0008DFD08901848C068014607900898FEF7ED
:1016E0002DFD1549C8600846C06805900846C068C9
:1016F00004900599FEF77AFD07900F4880680390E3
:101700000D48806802900399FEF770FD059015E082
:101710006F12033BC001002000007A3D35FA8E3C79
:1017200020000020240000201C0000202C000020AD
:101730003000002034000020040000207B48406876
:1017400001907A48406800900199FEF74FFD0390A0
:101750007648006801907548006800900199FEF78E
:1017600045FD02900399FEF7E9FC04900599FEF708
:10177000E5FC06900799FEF7E1FC089002F0BEF93F
:1017800016906A48006808901699FEF72FFD674981
:1017900008600846406808901699FEF727FD6349DF
:1017A00048600846806808901699FEF71FFD5F495B
:1017B00088600846C06808901699FEF717FD5B49D7
:1017C000C8600846006808900846006807900899B5
:1017D000FEF70CFD0C90554840680890534840684F
:1017E00007900899FEF702FD0B905048806808901A
:1017F0004E48806807900899FEF7F8FC0A904B481D
:10180000C06808904948C06807900899FEF7EEFC48
:101810000990DDE90B10FEF791FC07900A99FEF79D
:10182000DFFC08900999FEF7DBFC414908603F485E
:10183000C06805903D48006804900599FEF7D6FC05
:1018400007903A48806805903848406804900599A8
:10185000FEF7CCFC06900799FEF770FC4FF0804134
:101860000890FEF7C3FC3349086030488068059053
:101870002E48006804900599FEF7B8FC07902B48A5
:10188000C06805902948406804900599FEF7AEFCB1
:1018900006900799FEF7A4FC4FF080410890FEF7F0
:1018A000A5FC254908602148C06805901F4880684C
:1018B00004900599FEF79AFC07901C484068059033
:1018C0001A48006804900599FEF790FC0690079965
:1018D000FEF734FC4FF080410890FEF787FC174973
:1018E0000860DDE90B10FEF77BFC07900A99FEF714
:1018F00077FC08900999FEF721FC114908604FF028
:101900007E510D480068FEF7B1FD03D24FF07E50C6
:10191000094908600B4908480068FEF79DFD02D29E
:10192000084805490860012001E500000400002086
:1019300014000020180000201C00002020000020BF
:1019400024000020000080BF10B500F00FF8002137
:1019500041F61F4000F06CF800F0BEF8FFF778FA8F
:10196000FFF7C0FA01F0E2F810BD000008B5002052
:1019700000904FF470412C48FFF7DBFB4FF400411F
:101980002A48FFF7D8FB4FF44E712748FFF7D3FBE7
:101990000121042000F05EFB0121082000F05AFB29
:1019A0002020ADF8000048208DF8030069461F484C
:1019B000FFF7E2FA4FF23800ADF8000010208DF882
:1019C000030003208DF8020069461748FFF7D4FA98
:1019D0004FF40040ADF8000010208DF80300032004
:1019E0008DF8020069461148FFF7C6FA4FF480707F
:1019F000ADF8000014208DF8030003208DF80200DC
:101A000069460948FFF7B8FA4FF40070ADF80000D6
:101A100014208DF8030003208DF802006946024867
:101A2000FFF7AAFA08BD0000000C014000080140C1
:101A300030B589B005460C460121C80200F00AFB0A
:101A40000121042000F006FB4FF41060ADF82000E7
:101A500018208DF8230003208DF8220008A91C48C7
:101A6000FFF78AFAADF81850ADF814400020ADF831
:101A70001A00ADF8160005A9164800F0CFFF602047
:101A8000ADF804000120ADF806000020ADF80A0012
:101A9000ADF80C0001A90F4800F0F0FE01A90D48B7
:101AA00000F042FF01210B4800F03EFE08210948EA
:101AB00000F030FF0821074800F074FF01210548BD
:101AC00000F014FE0021034800F022FE09B030BDF2
:101AD00000080140002C01401FB50121022000F048
:101AE000A9FA0020ADF8060041F28730ADF80800F1
:101AF0004720ADF804000020ADF80A0001A9114804
:101B000000F08CFF012211460E4800F0AEFE0122CB
:101B100040210C4800F0A9FE1D208DF80000012096
:101B20008DF803008DF801008DF8020000210548B2
:101B300000F0EEFD0121034800F0E7FD684600F0EB
:101B400003F81FBD0004004070B5002100230F22E0
:101B5000C47804B3154C246804F4E064C4F5E0646C
:101B6000210AC1F10403CA40447804FA03F18478DD
:101B70001440214309010E4C0678A155047804F065
:101B80001F050124AC4005786D11AD0005F1E0257D
:101B9000C5F8004109E0047804F01F050124AC40B9
:101BA000044D0678761145F8264070BD0CED00E036
:101BB00000E400E080E100E002490143024A1160D4
:101BC000704700000000FA050CED00E010B50020A1
:101BD0000949087009490870002404E0202000F039
:101BE000D1F8601CC4B2402CF8DB00200249087018
:101BF0000249087010BD00003800002039000020A4
:101C000010B500202B490860642001F0DBFE0120A4
:101C10002949C1F88C01AE2000F02AF9D52000F046
:101C200027F9502000F024F9A82000F021F93F20E6
:101C300000F01EF9D32000F01BF9002000F018F985
:101C4000402000F015F98D2000F012F9142000F06A
:101C50000FF9202000F00CF9022000F009F9A12072
:101C600000F006F9C02000F003F9DA2000F000F9D6
:101C7000122000F0FDF8812000F0FAF8EF2000F0CB
:101C8000F7F8D92000F0F4F8F12000F0F1F8DB20AB
:101C900000F0EEF8302000F0EBF8A42000F0E8F8B7
:101CA000A62000F0E5F8AF2000F0E2F8FFF78EFF85
:101CB00010BD00008C812142008021420FB430B55C
:101CC00087B004460D460DA80190112102A8019B82
:101CD0000C9A00F0FBFF02AA2946204600F020F8EB
:101CE00007B030BC5DF814FB70B505460026002433
:101CF00010E0285D7F2802DD601CC4B208E0285D8A
:101D000000F040F8401C10B1701CC6B200E004E0C6
:101D1000601CC4B2285D0028EBD100BF304670BD06
:101D20002DE9F04786B007460C461546134890F853
:101D30000080134890F800902146384600F086F85D
:101D4000C0B1C4F11000C6B23246294601A8FEF760
:101D5000E9F9002001A9885501A8FFF7C5FF8246CF
:101D6000064880F80080064880F80090504606B08B
:101D7000BDE8F0874FF0FF30F9E7000038000020A1
:101D8000390000202DE9F041064600BFA6F12000F1
:101D9000C7B27E2F02DD0020BDE8F081284800EBAD
:101DA000071828480078102807DB0020254908700C
:101DB00025480078401C24490870234800780428EE
:101DC00002DB4FF0FF30E7E700242DE044B91E4965
:101DD0000978B722A2EB4101C8B200F049F807E048
:101DE00019490978B622A2EB4101C8B200F040F8C7
:101DF000144909780F2202EAC10000F039F81149AC
:101E00000978C900102242EA211000F031F80025BB
:101E100006E008EBC401485D00F04CF8681CC5B250
:101E2000082DF6DB601CC4B2022CCFDB054800781D
:101E3000401C0449087000BF00BF00BF3046ABE73C
:101E400054400008380000203900002002461029C4
:101E500001DA042A01DB00207047034801700348BF
:101E600002700120F8E7000038000020390000204F
:101E700000220E4B1A60002114E000220C4B1A6065
:101E800000F080021AB101221B1F1A6003E0002239
:101E9000074B1B1F1A600122054B1A604206100EE9
:101EA0004A1CD1B20829E8DB70470000BC0121427E
:101EB0009481214201220E4B1A60002114E000227D
:101EC0000C4B1A6000F080021AB101221B1F1A602D
:101ED00003E00022074B1B1F1A600122054B1A600A
:101EE0004206100E4A1CD1B20829E8DB70470000F8
:101EF000BC0121429481214210B50446207850B99A
:101F0000D4E908210A44A16A501841F658325142D6
:101F100001F04CFD10BDD4E908210A44A16A501813
:101F200041F65832514201F041FDF3E710B5044645
:101F3000207810B101281ED116E0606800F6B83094
:101F40006169814205DC6068A0F6B8306169814250
:101F500002DA0021A16106E043F698225142A0690D
:101F600001F024FDA06106E042F210725142A06926
:101F700001F01CFDA06100BF10BD2DE9F041044639
:101F80000D4616466068401B6061D4E905100144A7
:101F9000A1617142E1612046FFF7C8FF6069FEF769
:101FA00007FA8046A168FEF721F90746FEF709FA0D
:101FB0002062A069FEF7FCF98046E168FEF716F999
:101FC0000746FEF7FEF96062E069FEF7F1F9804628
:101FD0002169FEF70BF90746FEF7F3F9A0622046E8
:101FE000FFF78AFFBDE8F08170B5049C084D2D789D
:101FF0000570074D2D786D1C054E3570416082606F
:10200000C36004610025456100268661C66170BD1C
:102010003A00002029B1064A52690243044B5A6132
:1020200004E0034A52698243014B5A617047000041
:102030000010024029B1064AD2690243044BDA611A
:1020400004E0034AD2698243014BDA617047000021
:102050000010024029B1064A92690243044B9A617A
:1020600004E0034A92698243014B9A617047000081
:102070000010024030B500210022002400232D4D25
:102080006D6805F00C0121B1042905D0082923D180
:1020900005E0294D056022E0274D05601FE0254D34
:1020A0006D6805F47012234D6D6805F480340225C7
:1020B00005EB92421CB9214D554305600BE01D4DC7
:1020C0006D6805F400351DB11C4D5543056002E0F7
:1020D000194D5543056002E0174D056000BF00BF74
:1020E000144D6D6805F0F0010909154D6B5C05682C
:1020F000DD4045600F4D6D6805F4E061090A104D43
:102100006B5C4568DD4085600A4D6D6805F4605183
:10211000C90A0B4D6B5C4568DD40C560054D6D68B7
:1021200005F44041890B074D6B5CC568B5FBF3F5C1
:10213000056130BD0010024000127A0000093D0028
:102140003B0000204B00002010B500F001F810BD4E
:102150000CB50020019000903348006840F48030B6
:102160003149086000BF3048006800F4003000903A
:102170000198401C0190009818B90198B0F5A06F23
:10218000F1D12948006800F4003010B1012000901E
:1021900001E0002000900098012843D12348006806
:1021A00040F01000214908600846006820F0030054
:1021B00008600846006840F0020008601A4840685D
:1021C000194948600846406848600846406840F43D
:1021D000806048600846406820F47C1048600846EB
:1021E000406840F4E81048600846006840F080709D
:1021F000086000BF0C48006800F000700028F9D0AB
:102200000948406820F003000749486008464068D4
:1022100040F00200486000BF0348406800F00C0036
:102220000828F9D10CBD0000001002400020024037
:10223000002809DD0022174B1A600122164BC3F853
:10224000B821164B188009E00122124B1A600022B7
:10225000114BC3F8B8214242104B1A8000290BDD04
:1022600000220C4B083B1A6001220B4BC3F8B02133
:102270000A4B0C3319800BE00122064B083B1A6015
:102280000022054BC3F8B0214A42044B0C331A809C
:1022900070470000BC81214200802142342C014063
:1022A00010B51348006840F0010011490860084665
:1022B0004068104908400E494860084600680E49C9
:1022C00008400B4908600846006820F48020086038
:1022D0000846406820F4FE0048604FF41F00886004
:1022E000FFF732FF4FF000600449086010BD0000A6
:1022F000001002400000FFF8FFFFF6FE08ED00E0CE
:10230000F0B50C46154600220021068C4FF6FE77EC
:102310003E400684028B018C4FF60C7632407E1CC8
:1023200006EA03162E433243104EB0420ED0104E32
:10233000B0420BD0B0F1804F08D00E4EB04205D065
:102340000D4EB04202D00D4EB04206D14FF6FD7692
:10235000314044F00106314305E04FF6F576314057
:1023600044F00106314302830184F0BD002C01409A
:10237000003401400004004000080040000C004010
:10238000F0B50C461546002200210026078C4FF6BA
:10239000EF7C07EA0C070784028B018C4FF6FF776E
:1023A00007EA041640F6FF473A404FF6FF7707EA80
:1023B00003373A434FF6FF7707EA05273A43114FB1
:1023C000B8420ED0104FB8420BD0B0F1804F08D0B9
:1023D0000E4FB84205D00E4FB84202D00D4FB84252
:1023E00006D14FF6DF77394046F01007394305E054
:1023F0004FF65F77394044F0100739430283018478
:10240000F0BD0000002C01400034014000040040F9
:1024100000080040000C0040F0B50C4615460022B4
:1024200000210026078C4FF6FF6C07EA0C07078493
:10243000828B018C4FF6FF7707EA04264FF60C7764
:102440003A404FF6FF7707EA03172F433A43114FFD
:10245000B8420ED0104FB8420BD0B0F1804F08D028
:102460000E4FB84205D00E4FB84202D00D4FB842C1
:1024700006D14FF6FF57394046F48077394305E0DF
:102480004FF2FF57394044F4807739438283018407
:10249000F0BD0000002C0140003401400004004069
:1024A00000080040000C0040F0B50C461546002224
:1024B00000210026078C4EF6FF7C07EA0C070784F4
:1024C000828B018C4FF6FF7707EA043640F6FF4710
:1024D0003A404FF6FF7707EA05273A434FF6FF7772
:1024E00007EA03373A43114FB8420ED0104FB842B3
:1024F0000BD0B0F1804F08D00E4FB84205D00E4F30
:10250000B84202D00D4FB84206D14DF6FF773940A0
:1025100046F48057394305E047F6FF57394044F405
:102520008057394382830184F0BD0000002C0140B4
:10253000003401400004004000080040000C00404E
:102540002DE9F04F87B001215C4800F01DF900280B
:102550007ED04FF0000B002006905948FEF7D6FEC3
:10256000584801F019FD5748001F01F045FD554836
:10257000103801F007FD0020534981F8000151494E
:1025800010398869FDF755FF04460D464D4910394D
:102590000869FDF74EFF06460F464A49103948695B
:1025A000FDF747FF49A28DE8C300CDE90445464940
:1025B0000120FEF705FA43481038B0F904004149FC
:1025C0001039B1F902103F4A103AB2F900203D4BE0
:1025D000103BB3F90A30CDE90132CDE90310394897
:1025E0001038B0F90800009036481038B0F90630BD
:1025F00037A235490220FEF7E3F9334890F800117D
:102600003548FEF701FC01228021344800F0E8FA49
:102610002C49103948693249FDF7E8FD0546FDF7B8
:10262000D0FE044627481038B0F9002021462D4836
:10263000FFF7A3FC0FFA80FB06990BEB010041F6B4
:102640005832514201F0B2F90FFA80FA514600E0D7
:1026500031E05046FFF7ECFD2249496841F29412FF
:102660008818FDF7A5FE04461649103948691C492B
:10267000FDF7BCFD05462146FDF7F8FE12D31949CA
:102680004968A1F588509438FDF792FE04460D493B
:10269000103948691249FDF7A9FD05462146FDF7A5
:1026A000DBFE03D20021104800F032F8012103487C
:1026B00000F02BF800BF07B0BDE8F08F0004004029
:1026C0000AD7A33B780000209000002066666600D1
:1026D00068686868686800001C00024000480040A4
:1026E0000000C84294010020002C014021B1028862
:1026F00042F08002028004E002884FF67F731A40A5
:1027000002807047CA4302827047CA430282704700
:1027100021B1028842F00102028004E002884FF6F3
:10272000FE731A400280704731B1B0F8442042F481
:102730000042A0F8442005E0B0F84420C2F30E02A5
:10274000A0F844207047F0B50C4615461E460021FF
:10275000002200230189028B038C4FF6F877394061
:1027600021434FF6FC473A4040F201173A434FF6F7
:10277000DD773B404FF6FF7707EA06172F433B43D1
:10278000018102830384F0BD30B50246002000239E
:102790000024158A05EA0103958905EA010413B1AD
:1027A0000CB1012000E0002030BD000070B50546EE
:1027B0000C46244885420ED0234885420BD0B5F103
:1027C000804F08D02148854205D02148854202D05B
:1027D0002048854200D100E000BF208850B92389FD
:1027E000A28861882846FFF78BFDE188284600F023
:1027F000E8F825E0208804280AD12389A288618886
:102800002846FFF7BDFDE188284600F0E3F817E011
:10281000208808280AD12389A28861882846FFF7E2
:10282000FBFDE188284600F0E2F809E02389A28850
:1028300061882846FFF738FEE188284600F0E0F876
:1028400070BD0000002C0140003401400004004035
:1028500000080040000C004000210180418001215F
:1028600081800021C180018170471AB183890B43A7
:10287000838102E083898B438381704770B5002494
:1028800000220023058C4FF6FE7635400584028C2D
:102890008388048B4FF68F752C40B51E2C400D8815
:1028A0002C43751E2A400D892A434D882A43144D16
:1028B000A8420BD0134DA84208D0134DA84205D012
:1028C000124DA84202D0124DA84213D14FF6F7750F
:1028D0002A404D892A434FF6FB752A408D882A43AA
:1028E0004FF6FF652B404FF6FF552B408D892B434C
:1028F000CD892B4383800483CD888586028470BD77
:10290000002C0140003401400040014000440140DF
:10291000004801400A460021018B4FF6F773194029
:10292000114301837047000070B50022002300248A
:10293000058C4EF6FF7635400584038C8488828BA7
:1029400048F6FF752A404FF6FF452A400D884FF69E
:10295000FF7606EA05252A434DF6FF752B400D89C3
:1029600006EA05352B434D8806EA05352B430B4D0A
:10297000A84202D00A4DA84208D14BF6FF752C4060
:102980008D894FF6FF7606EA85152C438480828375
:10299000CD88A0F84050038470BD0000002C014099
:1029A000003401400A460021818B4FF2FF73194029
:1029B0004FF6FF7303EA0223194381837047818432
:1029C0007047028B4FF6F3731A400283028B0A435F
:1029D00002837047028B4FF2FF331A400283028B4F
:1029E0004FF6FF7303EA01231A4302837047828B79
:1029F0004FF6F3731A408283828B0A4382837047B7
:102A0000828B4FF2FF331A408283828B4FF6FF7323
:102A100003EA01231A4382837047000000220288E0
:102A20001D4B98420ED01D4B98420BD0B0F1804FF9
:102A300008D01B4B984205D01A4B984202D01A4B33
:102A4000984204D14FF68F731A404B881A43174BA4
:102A5000984207D0164B984204D04FF6FF431A40D5
:102A6000CB881A4302808B8883850B8803850A4BA9
:102A700098420BD0094B984208D00E4B984205D093
:102A80000D4B984202D00D4B984201D10B7A038630
:102A90000123838270470000002C01400034014074
:102AA0000004004000080040000C004000100040FE
:102AB0000014004000400140004401400048014033
:102AC0004FF6FF71818000210180C1804180017239
:102AD0007047000010B58CB0044601210846FFF78E
:102AE00099FA1048FEF7CCF80F4801900294102094
:102AF00003900001049000200590802006900020A3
:102B00000790089020200990C0010A9000200B90A7
:102B100001A90448FEF75AF901210248FEF7A4F87A
:102B20000CB010BD1C0002400448004000B587B046
:102B300001210820FFF78EFA01218804FFF77AFAB5
:102B40004FF48060ADF8180003208DF81A001820AB
:102B50008DF81B0006A91A48FEF70EFA4FF4006024
:102B6000ADF8180004208DF81B0006A91448FEF7E4
:102B700003FA27208DF8040000208DF805000120BD
:102B80008DF806008DF8070001A8FEF7DDFF4FF471
:102B9000E13002900020ADF80C00ADF80E00ADF869
:102BA0001000ADF814000C20ADF8120002A9054881
:102BB00000F020F80121034800F006F807B000BD3E
:102BC000000C01400048004021B1828942F40052CB
:102BD000828104E082894DF6FF731A40828170473A
:102BE0001AB1838A0B43838202E0838A8B438382F8
:102BF000704700002DE9F04786B005460E460024D8
:102C0000A24600BFA1460027B08900B100BF2F46F1
:102C10002C8A4CF6FF700440F08804432C82AC8967
:102C20004EF6F3100440B088318908437189084397
:102C30000443AC81AC8A4FF6FF400440B0890443A2
:102C4000AC8201A8FFF716FA1F48874202D1DDF8CF
:102C500010A001E0DDF80CA0A88900F4004040B10C
:102C60000AEBCA0000EB0A1031684900B0FBF1F82A
:102C700007E00AEBCA0000EB0A1031688900B0FBDC
:102C8000F1F86420B8FBF0F004012009642101FB95
:102C90001089A88900F4004040B1322000EBC9003F
:102CA000B0FBF1F000F00700044308E0322000EB35
:102CB00009106421B0FBF1F000F00F0004432C81F7
:102CC00006B0BDE8F0870000003801407CB504463E
:102CD00000201D46164600290BD0491ECDE90041B3
:102CE000044B6A462946304600F0FEF8009A00215F
:102CF00011707CBD173600084100080218BF04207F
:102D00000A0E18BF40F001004FF07F4232EA010185
:102D100008BF40F00200012808BF052070470121CC
:102D2000FDF73CBCFDF70ABA00210846FDF790BA52
:102D30006FF05E010807FDF731BC02E008C8121F02
:102D400008C1002AFAD170477047002001E001C194
:102D5000121F002AFBD1704701490860704700002C
:102D6000640000202DE9FF5F82B00021DDE904301E
:102D7000020DDDF840B0034318D044F61050A2F223
:102D8000FF3242431514119801281FD0A5EB0B0008
:102D9000401C5FEA000A4FF000064E4FDFF8389102
:102DA000B046504615D5CAF1000413E0119801242D
:102DB0004AA3012801D16FEA0B010298119AC0E9D8
:102DC0000031C0E9024206B0BDE8F09FCBF100003F
:102DD000DFE704460021404A491842EB0450CDE9A0
:102DE000001012E0E00707D032463B464046494615
:102DF000FDF76CFA8046894632463B461046194636
:102E0000FDF764FA06460F466410002CEAD1DDE9AE
:102E10000401DDE90023BAF1000F06DAFDF756FAE6
:102E200042464B46FDF752FA05E0FDF7C7FC424625
:102E30004B46FDF7C3FC04460E460022284BFDF727
:102E400045FD03D84FF0FF30014607E00022254B37
:102E500020463146FDF70BFCFDF71FFD102409E06D
:102E6000002C0ADB0A220023FDF720FB039B3032F3
:102E70001A55641E50EA0102F2D1641C039AC4F18F
:102E800011031444119A012A03D0012208430DD1E1
:102E90000AE0084304D000204FF0110B119072E7B4
:102EA000A3EB0B056D1E0DE05B4504DD4FF000024A
:102EB00005F1010504E003DA4FF00002A5F1010578
:102EC000002AECD002981199C0E90231C0E900450E
:102ED00079E70000000014400000F03F30000000DF
:102EE0000000F0430000E03F2DE9FF4F95B09B4606
:102EF0008946064600250FE2252877D1002427467B
:102F0000F84A0121059400E0044316F8013F203BF4
:102F100001FA03F01042F7D130782A2811D06FF06F
:102F20002F033078A0F13002092A16D8059A44F010
:102F3000020402EB820203EB42021044761C05906D
:102F4000EFE759F8042B0592002A03DA504244F4C3
:102F50000054059044F00204761C30782E2816D1D7
:102F600016F8010F44F004042A280DD06FF02F0248
:102F70003078A0F13003092B09D807EB870302EB67
:102F80004303C718761CF3E759F8047B761C3078A6
:102F90006C280FD006DC4C2817D068280DD06A2882
:102FA00014D104E0742810D07A280FD10DE044F435
:102FB00000140AE044F4801401E044F440147278F0
:102FC000824202D104F58014761C761C3078662883
:102FD0000BD013DC582877D009DC002875D04528A1
:102FE000F6D04628F4D047281AD19DE118E063288E
:102FF00035D0642879D0652812D195E1702873D036
:1030000008DC6728F1D069286FD06E280DD06F28B2
:1030100006D1B5E073282CD0752875D0782874D0E7
:103020005A46179990476D1C75E1C4F30250022867
:1030300009D003280DD0D9F8001004280DD00D6058
:1030400009F1040967E1D9F80010EA17C1E9005253
:10305000F6E7D9F800100D80F2E70D70F0E719F8E7
:10306000041B8DF8001000208DF80100EA460120B5
:1030700003E059F804AB4FF0FF3061074FF0000157
:1030800002D40DE008F101018846B9420FDA80450B
:10309000F8DB1AF808100029F4D108E008F1010162
:1030A00088468142FADB1AF808100029F6D1059803
:1030B0005B46A0EB080721463846179A00F094FAC1
:1030C000284400EB080507E04DE029E10DE01AF87F
:1030D000010B5A4617999047B8F10108F7D25B46A1
:1030E00021463846179A13E142E00A220092C4F3BF
:1030F00002524FF0000A022A08D059F804CB032AE2
:103100004FEAEC710AD00DE029E02AE009F107014D
:1031100021F00702F2E802C1914609E00FFA8CFCA7
:103120004FEAEC71042A03D14FFA8CFC4FEAEC71A0
:10313000002907DA0A460021DCF1000C61EB0201EC
:103140002D2202E0220504D52B228DF80420012235
:1031500003E0E20701D02022F7E7904659E00A2178
:1031600002E010220DE010214FF0000A00910BE068
:1031700010224FF0000A44F004040827009203E0F4
:1031800008224FF0000A0092C4F30252022A05D02E
:1031900059F804CB0021032A08D009E009F10701FE
:1031A00021F00702F2E802C1914605E01FFA8CFC0B
:1031B000042A01D10CF0FF0C4FF00008220728D59B
:1031C000702806D0009B83F0100353EA0A0305D051
:1031D0000EE040228DF80420012208E05CEA0102A2
:1031E00006D030228DF804208DF80500022290468A
:1031F000009B83F0080353EA0A030AD15CEA010248
:1032000001D1620705D530228DF804204FF0010866
:103210007F1E582804D034A003900EA802900DE021
:1032200036A0F9E753466046009AFDF73FF9844619
:103230000398825C0298401E029002705CEA0100D2
:10324000F0D1029806A9081A00F1200A600702D5F9
:1032500024F4803400E00127574502DDA7EB0A0083
:1032600000E0002000EB0A01009005984144401A5C
:103270000590E00306D45B462146179A059800F0B6
:10328000B3F90544002706E001A85A46C05D179926
:1032900090476D1C7F1C4745F6DBE0030CD55B4671
:1032A0002146179A059800F09FF9054404E0302064
:1032B0005A46179990476D1C0099481E00900029A6
:1032C000F5DC08E0029802995A460078491C029100
:1032D000179990476D1CBAF10001AAF1010AF1DCBF
:1032E00065E10000092801003031323334353637CA
:1032F0003839616263646566000000003031323342
:1033000034353637383941424344454600000000E1
:1033100000F058F90544761C307800287FF4ECADB5
:1033200019B02846BDE8F08F620700D4062709F1DE
:10333000070222F0070CFCE80223E14603F00048F4
:103340005FEA080C02D00FF2702C0DE05FEA045C1B
:1033500002D50FF2682C07E05FEAC47C02D00FF2BE
:10336000602C01E0AFF2700C4FF0FF3823F0004307
:10337000CDF850C065280CD006DC452809D0462879
:103380001DD047283DD13DE0662818D067287ED162
:1033900038E00021112F01DB112000E0781CCDE97D
:1033A000000106A90EA8FFF7DDFCDDE90F010E9A6A
:1033B00003910021009207F1010A04914DE04FF0C2
:1033C00000400097CDE9011006A90EA8FFF7CAFC3E
:1033D000DDE90F0203920E9B11990022DDF80CA08B
:1033E0000093049211B9791C00EB010AB7EB0A00B3
:1033F00004D4C0F1FF3007F1010A0490AAEB0700E2
:10340000019044E0012F00DA01270021112F01DD96
:10341000112000E03846CDE9000106A90EA8FFF70B
:10342000A1FCDDE90F010E9A0391002104910092A5
:10343000BA4621070CD40399514500DA8A46BAF1FD
:10344000010F05DD009AAAF10101515C302908D075
:10345000B84202DA10F1040F06DA0121CDE90110B9
:1034600015E0AAF10101E9E7002805DC049901440F
:103470000491AAEB000102E0411C514500DD8A469F
:103480000499401A401C01904FF000400290200720
:1034900004D40198504501DBCDF8048000208DF85C
:1034A0004F0002980DF14F07B0F1004F25D02B20AF
:1034B0000E9002984FF0020800280CDA4042029069
:1034C0002D200E9007E00A210298FCF7D9FF303139
:1034D000029007F8011DB8F10001A8F10108F2DC23
:1034E00002980028EFD1791E0E980870307800F00D
:1034F000200040F0450007F8020D12A8C01B00F1A3
:1035000007081498007800B1012000EB0A01019827
:1035100001EBE07105984144401A401E0590E0031C
:1035200006D45B462146179A059800F05DF80544DD
:103530001498007818B15A46179990476D1CE0030B
:1035400024D55B462146179A059800F04DF80544AE
:103550001CE00498002807DBDDE90301884203DD55
:103560000098405C179901E0179930205A4690471F
:10357000049805F10105401C04900198401E01903B
:1035800004D12E205A46179990476D1CBAF10001BC
:10359000AAF1010ADDDC05E017F8010B5A4617997C
:1035A00090476D1CB8F10001A8F10108F4DC5B46FE
:1035B0002146179A0598ABE62D0000002B0000006D
:1035C000200000002DE9F041044600251E46174664
:1035D000880404D405E039462020B0476D1C641EE1
:1035E000F9D52846BDE8F0812DE9F04104460025D3
:1035F0001E469046C80301D5302700E020278804E6
:1036000004D505E041463846B0476D1C641EF9D527
:103610002846BDE8F0814A68002A06D00A68531C93
:103620000B6010704868401E486070472DE9F041FB
:1036300004464FF00E4000EB4400B0F1506F2046BE
:1036400055D84FF0FC41B1EB440F1CD224F00040A0
:103650004FF07E51FCF7C7FD4FF0FF31FCF79EFFA6
:10366000054600F0E1FC14F0004F1DBF2F4F304E17
:1036700080F000402F4F08BF2F4E4FF04041FCF725
:10368000B5FD044605E000273E460146FCF7AEFDC9
:1036900005462A492846FCF7A9FD2949FCF74EFDB5
:1036A0002946FCF7A3FD2749FCF748FD2946FCF70E
:1036B0009DFD2549FCF742FD2946FCF797FD23496E
:1036C000FCF73CFD804629462046FCF78FFD41462D
:1036D000FCF78CFD054631462046FCF72FFD2946B8
:1036E000FCF72CFD3946BDE8F041FCF727BD4FF053
:1036F000E441B1EB440F08D9FFF7FEFA042808BFF4
:10370000FFF716FB2046BDE8F0814FF07F41B1EB9B
:10371000440F03D2BDE8F041FFF701BB0120FFF7E2
:103720001BFBBDE8F041FFF7FFBA00000000C9BF76
:1037300022AAFDB90000C93F22AAFD3924FE1C3D82
:10374000C78AD83C1E67383D1B93993DAFAA2A3ED5
:103750002DE9F0474FF0684202EB40030C46054666
:10376000B3F1654F3CBF02EB4102B2F1654F7CD231
:10377000C0F3C753C1F3C7529A1A1B2A06DD10F0D3
:10378000004F14BF76487748BDE8F08712F11A0F52
:1037900017DA11F0004F06D010F0004F0CBF72483E
:1037A0007248BDE8F08721462846FCF751FD0446E3
:1037B000FFF7A2FA042808BFFFF7BAFA2046BDE8CF
:1037C000F0874200B2EB410F25D910F0004F19BF2E
:1037D000674F684E684F694E224685F00044154693
:1037E0000A4680F0004110460A1A5200B2F1807F6A
:1037F00040D248406249DFF88CA110F0004F18D049
:103800004FF03F483846FCF7EBFC07465146304640
:10381000FCF7E6FC17E011F0004F04BF0026374626
:10382000E2D010F0004F19BF574F584E584F594E25
:10383000DAE74FF07C583846FCF780FC07465146E3
:103840003046FCF77BFC064641462846FCF7CEFC9A
:103850002146FCF773FC824621464046FCF7C6FC35
:103860002946FCF7C0FC514600E037E0FCF7F0FCCD
:10387000044604E021462846FCF7EAFC04460146DB
:10388000FCF7B4FC80464449FCF7B0FC4349FCF724
:1038900055FC4146FCF7AAFC4149FCF74FFC414668
:1038A000FCF7A4FC3F49FCF749FC4146FCF79EFCB1
:1038B0003D49FCF743FC054641462046FCF796FC93
:1038C0002946FCF793FC3146FCF738FC2146FCF70F
:1038D00035FC3946BDE8F047FCF730BC4FF07F427D
:1038E000B2EB400F28BFB2EB410F03D2BDE8F04767
:1038F000FFF718BA40EA01035B0008BF44F0FF413C
:103900000AD0B2EB400F08BFB2EB410F06D125F051
:10391000804024F0804105460C4629E7B2EB400F79
:1039200012BF5FEA410245F0FF4004F000413FF45E
:103930001FAF4A0092EA40033FF51AAF002AACBF1E
:103940004FF09F464FF03E563146FCF74FFC054680
:1039500031462046FCF74AFC04462846214607E744
:10396000DB0FC9BFDB0FC93FDB0F4940DB0F49C08D
:103970000000C9BF22AAFDB90000C93F22AAFD3933
:103980000060ED3EC30ACE37000049C022AA7DBACE
:103990000000494022AA7D3A2DAD65BD8FB8D53DC6
:1039A0000FB511BE61C84C3EA8AAAABE03469342F9
:1039B00001DD104670478B4201DA0846FAE71846E7
:1039C000F8E7000070B50446FDF736FA05460848EA
:1039D00000680849B0FBF1F04FF47A71614300FBD5
:1039E00001F400BFFDF728FA401BA042FAD370BDD6
:1039F0005000002040420F0070B50446FDF71CFA4D
:103A00000546064800680649B0FBF1F0444300BF94
:103A1000FDF712FA401BA042FAD370BD50000020FF
:103A200040420F002DE9F04105460F4614461E4660
:103A3000FDF706FC00282ED06906080EFDF7D6FB20
:103A4000FDF742FC20B9FDF727FC0120BDE8F0811D
:103A50003846FDF7CBFBFDF737FCFDF7F1FB012105
:103A600001EB4501C8B2FDF7C1FBFDF72DFC0CE0F1
:103A7000FDF798FB3070012C02D1FDF77BFB01E0D4
:103A8000FDF75CFB761C601EC4B2002CF0DCFDF779
:103A900003FC0020DAE70120D8E72DE9F0410546D4
:103AA0000E4617469846FDF7CBFB28B36906080E6D
:103AB000FDF79CFBFDF708FC20B9FDF7EDFB0120AD
:103AC000BDE8F0813046FDF791FBFDF7FDFB0024DA
:103AD0000CE018F80400FDF789FBFDF7F5FB18B9B9
:103AE000FDF7DAFB0020EBE7601CC4B2BC42F0DB60
:103AF000FDF7D2FB0020E3E70120E1E72DE9F047E5
:103B000004464FF07C512046FCF770FB8146254669
:103B10002E460C48A0EB6606354629464846FCF77B
:103B200065FB82462946FCF761FB80464FF07F51DA
:103B3000FCF759FB07462946FCF758FB0546284683
:103B4000BDE8F087865A375F1CB5002439483A4BE8
:103B50003A4A3B4900903B48FEF746FA72B60121CB
:103B60000846FEF777FA4FF4A060FEF725F801212A
:103B70003548FDF78DFAFDF749F93448FEF7AAFFFD
:103B8000FDF7E2FE00BF00F0B9F80028FBD0FEF719
:103B900037F801212E48FEF7BBFD62B649E02D49FA
:103BA0004869FCF746FC2CA2CDE90001002108463B
:103BB000FEF784F82749C868FCF73BFC29A2CDE949
:103BC000000100210120FEF779F82948038829A285
:103BD00000210220FEF772F825480C38038828A23D
:103BE00000210320FEF76AF820212848FDF798FA03
:103BF000E0B90320FFF7E6FE20212448FDF790FA04
:103C0000A0B934B90124012119484038FEF780FDDC
:103C100005E00024002116484038FEF779FD00BF7A
:103C200020211A48FDF77CFA0028F9D01E20FFF762
:103C3000C9FEB4E7CDCC8CBFCDCCCCBE000060C0FB
:103C4000ECFAFFFF940100200002300090000020F9
:103C50000004004068000020524F4C4C3A252E32A0
:103C60006620200054454D503A252E326620200013
:103C7000402C014050574D4C3A2564202000000054
:103C800050574D523A2564202000000000080140A2
:103C90002DE9F8438046894614461D46089E6B462A
:103CA000012249464046FFF7BDFE28BB601CFF21AC
:103CB00001FA00F0C4F108012944491EFF220A411B
:103CC0001043C7B2C5F1080006FA00F0C6B2C4F14D
:103CD000070006419DF80000384000909DF8000064
:103CE000304300906B46012249464046FFF7D5FE1F
:103CF00010B90120BDE8F8830020FBE71CB50020C7
:103D00000190012306226B2100906820FFF7C0FF7D
:103D100008B900201CBDC820FFF754FE0120042371
:103D200003226B2100906820FFF7B2FF08B9002042
:103D3000F0E73220FFF746FE0320022304221B2176
:103D400000906820FFF7A4FF08B90020E2E73220C6
:103D5000FFF738FE0120022304221C210090682076
:103D6000FFF796FF08B90020D4E73220FFF72AFEBC
:103D70000320034602221A2100906820FFF788FFE3
:103D800008B90020C6E73220FFF71CFE00200123FF
:103D900005226A2100906820FFF77AFF08B9002009
:103DA000B8E73220FFF70EFE012003460246372116
:103DB00000906820FFF76CFF08B90020AAE701AB6C
:103DC000012275216820FFF72DFE9DF8040008B937
:103DD00000209FE701209DE72DE9FF476B460E225B
:103DE0003B216820FFF71EFE18B1002004B0BDE89B
:103DF000F08760480068052802DB00205D49086004
:103E00009DF801009DF8001040EA012000B25949D8
:103E1000096801EB4101584A02EB8101C8809DF815
:103E200003009DF8021040EA012001B251480068E9
:103E300000EB400002EB800001819DF805009DF839
:103E4000041040EA012001B24A48006800EB40003B
:103E500002EB800041819DF807009DF8061040EAC2
:103E6000012000B2454908809DF809009DF808101E
:103E700040EA012000B23F49096801EB410122F804
:103E800021009DF80B009DF80A1040EA012000B2C5
:103E90003849096801EB410102EB810148809DF836
:103EA0000D009DF80C1040EA012000B2314909686C
:103EB00001EB410102EB810188802E480068401C23
:103EC0002C490860002500260027A846A946AA46D6
:103ED000002429E004EB4400274901EB8000B0F9FD
:103EE0000600054404EB440001EB8000B0F9080033
:103EF000064404EB440001EB8000B0F90A000744DB
:103F000004EB440031F92000804404EB440001EB51
:103F10008000B0F90200814404EB440001EB800012
:103F2000B0F904008244641C052CD3DB052095FB0A
:103F3000F0F000B21249C880052096FBF0F001B203
:103F40000F480181052097FBF0F001B20C48418138
:103F5000052098FBF0F000B209490880052099FB84
:103F6000F0F000B2488005209AFBF0F000B28880A3
:103F700001203BE728000020CC01002000000020A9
:103F8000C001002003490A6802604A6842608968EB
:103F900081607047C001002070B504461048006879
:103FA000FFF744FB80F000450E492846FCF71EF958
:103FB00020600D4801680D480068FFF7C9FB054601
:103FC0000849FCF713F9606009480168094800686E
:103FD000FFF7BEFB05460349FCF708F9A06070BD7A
:103FE0001C000020E12E654224000020200000205B
:103FF000140000201800002070B504460748B0F9EE
:104000000000FCF7D5F906460549FCF721F90546FD
:104010000449FCF793F8206070BD00000000002008
:104020000000AA43B81E124270B50546FCF799FC81
:10403000044620F00040C0F1FF40C00F08D025F03A
:104040000040C0F1FF40C00F04BF0120FEF784FE16
:10405000204670BD000000000000000000000000CD
:10406000000000000000001F00000000000000CC65
:104070000000000000083040083040000000000050
:10408000000000000002031E02031E000020FC20AE
:1040900020FC2000000E11113F100C000018040439
:1040A000FF8478000F100F0106180000008C30C04C
:1040B00078847800000F10110E0000007884C4345A
:1040C00098E4840800487000000000000000000030
:1040D000000000000000000718204000000000E081
:1040E0001804020000402018070000000002041815
:1040F000E00000000202010F01020200404080F0D7
:104100008040400000000000070000000080808028
:10411000F0808080000000000000000000090E0018
:10412000000000000000000000000000008080800F
:10413000808080000000000000000000000C0C00E7
:104140000000000000000000031C2000000618E032
:1041500000000000000708101008070000F0080425
:104160000408F000000008081F000000000004041C
:10417000FC040400000E101010100F00000C14249A
:1041800044840C00000C101010110E000018048460
:1041900084443800000001020C1F00000060A024CD
:1041A00024FC2424001F1111111010000098040495
:1041B00004887000000708111109000000F088044D
:1041C0000404F80000181010111618000000007CFC
:1041D00080000000000E111010110E000038448401
:1041E00084443800000F1010100807000080484475
:1041F0004488F00000000003030000000000000CF1
:104200000C0000000000000100000000000000079A
:10421000000000000000010204081000008040209F
:1042200010080400000202020202020000404040A6
:104230004040400000100804020100000004081083
:1042400020408000000E121010110E000000000C23
:10425000EC000000030C131417080700E018E41426
:10426000F414E8000000031C07000000043CC440F4
:1042700040E41C04101F1111110E000004FC040482
:1042800004887000030C101010101C00E0180404C7
:1042900004081000101F10101008070004FC04048C
:1042A0000408F000101F11111710080004FC04048A
:1042B000C4041800101F11111710080004FC04009A
:1042C000C0000000030C1010101C0000E0180404D3
:1042D00044784000101F100000101F1004FC848060
:1042E0008084FC040010101F10100000000404FC67
:1042F00004040000000010101F1010000301010151
:10430000FE000000101F11031418100004FC0480AC
:10431000641C0400101F10000000000004FC0404D2
:1043200004040C00101F1F001F1F100004FC807CE1
:1043300080FC0400101F0C0300101F1004FC04007C
:10434000E018FC000708101010080700F00804042B
:104350000408F000101F101010100F0004FC8480DF
:10436000808000000708101010080700F0081414DF
:104370000C0AF200101F111111110E0004FC0400B0
:10438000C0300C04000E111010101C00001C04841E
:10439000844438001810101F10101800000004FC8E
:1043A00004000000101F100000101F1000F804048B
:1043B0000404F800101E110000131C100000E01C83
:1043C00070800000101F001F001F100000C07C80C4
:1043D0007CC000001018160101161810040C34C01F
:1043E000C0340C04101C1300131C1000000004FC4B
:1043F0000400000008101010131C1000041C64843A
:10440000040418000000007F40404000000000FE4F
:104410000202020000201C030000000000000080D7
:10442000601C0300004040407F00000000020202C8
:10443000FE000000000020404020000000000000BE
:104440000000000000000000000000000101010168
:1044500001010101004040200000000000000000B8
:104460000000000000000101010000000098242469
:1044700048FC0400080F00010100000000FC880453
:104480000488700000000001010100000070880431
:10449000040488000000010101090F0000F8040471
:1044A0000408FC04000001010101000000F82424BC
:1044B0002424E8000001010709090400000404FCA9
:1044C00004040000000001010101010000D62929B7
:1044D00029C90600080F00010101000004FC840046
:1044E0000004FC040001191900000000000404FC91
:1044F000040400000000000119190000000301017C
:1045000001FE0000080F00000101010004FC24600E
:10451000940C04000008081F00000000000404FCC4
:1045200004040000010101010101010004FC040078
:10453000FC0400FC010100010101000004FC8400F6
:104540000004FC04000001010101000000F8040463
:104550000404F800010100010100000001FF8904CA
:104560000488700000000001010001000070880450
:104570000489FF0101010100010101000404FC8420
:1045800004008000000001010101010000CC24248E
:10459000242498000001010701010000000000F838
:1045A00004040800010100000001010000F80404F7
:1045B0000408FC04010101000101010000C0300CED
:1045C00030C00000010100010100010180700C30C9
:1045D000E01C6080000101010001010000048C70FA
:1045E000748C040001010100000101010081611EC1
:1045F00018608000000101010101010000840C34F9
:1046000044840C0000000000003F40400000000017
:10461000807C020200000000FF000000000000009B
:10462000FF00000040403F000000000002027C80CC
:1046300000000000004080404020400000000000DA
:104640000000000064460008000000206800000030
:104650003A2D0008CC46000868000020A0050000A4
:104660004A2D0008000000000000803F000000000C
:10467000000000000000000000000000000000003A
:10468000000000000000000000000000000000002A
:10469000000000000000000000000000000000001A
:1046A00000000001020304010203040607080902D6
:1046B0000406080000A24A040000000000000000F8
:0C46C000010203040607080900000000C6
:04000005080000ED02
:00000001FF
